:040000000200413287
:03000B00020DAB38
:03001300020D9E3D
:01001B0032B2
:0100230032AA
:01002B0032A2
:01003300329A
:03003B00020D9320
:03021B0002003EA0
:03003E0002021E9D
:10021E00120BA21217A87E007F00C3EE9406EF64A5
:10022E0080948050F1EE2EFCEF33FDEC2416F58217
:10023E00ED3449F583E493FAA3E493FBEC2416FC26
:10024E00ED3449F97D80C007C006C003C00212021A
:10025E0061800BC002C0038C8289838DF022D00294
:0D026E00D003D006D0070EBE00B00F80AD4B
:0C4916001713481300140F1626164B133D
:10027B0022AF82C2C4C2C6D2C575A0FFD2C485A0AC
:10028B0082C00712027BAE82D0075306807D00C26C
:10029B00C4EE4D70E4C2C5D2C68F8212027B85823A
:1002AB00A0D2C4C2C422AF82C2C4C2C6D2C575A07A
:1002BB00FFD2C485A082C00712027BAE82D0075347
:1002CB0006807D00C2C4EE4D70E4C2C58F8212025F
:1002DB007B8582A0D2C4C2C422C2C4C2C6D2C57599
:1002EB00A0FFD2C485A08212027BAF82530780C2CB
:1002FB00C4EF70EBD2C6D2C485A08212027BC2C4FB
:10030B0022C2C4C2C6D2C575A0FFD2C485A08212B8
:10031B00027BC2C422AE82AF83C3E49E74808FF093
:10032B0063F08095F0501C7C207D0300EC24FFFAD9
:10033B00ED34FFFB8A048B05EA4B70EF1EBEFF0109
:10034B001F80D622C2C4C2C6C2C57D227E497F8011
:10035B007C008D828E838FF01235EAFBA3AD82AECB
:10036B00838B82C007C006C005C00412027B858246
:10037B00A0D2C4900004120320D004D005D006D024
:10038B0007C2C40CBC040040C98D828E838FF0124F
:10039B0035EAFC0DBD00010E8C82C007C006C005FE
:1003AB001202B1D005D006D0078D828E838FF0124A
:1003BB0035EAFC0DBD00010E8C82C007C006C005DE
:1003CB001202B1D005D006D0078D828E838FF0122A
:1003DB0035EAF5820202B1C0588581580581058145
:1003EB000581AD82AE83AFF0C007C006C005120316
:1003FB000C7582801202B1D005D006D0078D028E0B
:10040B00038F04A85808A60508A60608A6077F10A0
:10041B008F061FEE6059A8580886820886830886C7
:10042B00F01235EAFEBE0A070ABA00430B8040EE13
:10043B007010A8580886820886830886F0742012EC
:10044B002FF4A8580886820886830886F01235EAAE
:10045B00FEA31818A68208A6838E82C00712027C00
:10046B00D007A85808860208860308860480A17561
:10047B0082C0C004C003C0021202B1D002D003D0AC
:10048B00048A058B068C077C108C031CEB603C8D5F
:10049B00828E838FF01235EA700B8D828E838FF0F4
:1004AB007420122FF48D828E838FF01235EAFBA30A
:1004BB00AD82AE838B82C007C006C005C00412029A
:1004CB007CD004D005D006D00780BE855881D0588B
:1004DB0022E582FF30E72475820FC0071202B1D0EC
:1004EB000753071FBF1000500A8F0674802EF5822A
:1004FB000202B174B02FF5820202B175820C0202B6
:01050B00B13E
:074922003030303801060CB3
:10009A007801E4F208F27803F208F27805F208F23D
:0700AA0008F208F27809F2E8
:10050C00AF82C210EFFD3395E0FEC007C022C005DC
:10051C00C0067489C0E07449C0E07480C0E0123435
:10052C00BCE58124FBF581D022D007EF30E706C370
:10053C00E49FFFD210BF08027F0CBF09027F16C3D5
:10054C00EF648094885008EF75F00AA4FE04FFEF66
:10055C003395E0FEC007C006C022740AC0E0E4C0B8
:10056C00E08F828E83123606AC8215811581D022E3
:10057C00D006D007EC75F00CA4FCC004C022740AA1
:10058C00C0E0E4C0E08F828E83123643AE821581C8
:10059C001581D022D004EE2EFF1F1FEF2CFFC3EECF
:1005AC006480948440011F3010010F8F057E00C0C1
:1005BC0007C005C0067494C0E07449C0E07480C0E4
:0F05CC00E01234BCE58124FBF581D0078F822239
:104929001B1F5C1DB61B281AB0184E17FF15C314A0
:1049390098137F1275117A108E0FAE0EDB0D140DC0
:10494900580CA70BFF0A610ACC093F09BB083D08AF
:10495900C7075707EE068A062C06D30580053105D9
:10496900E604A0045D041F04E303AB0377034503D6
:104979001603EA02C0029802730250022F020F02C4
:10498900696E7075742025640D0A006F75747075F1
:07499900742025750D0A00D2
:1005DB0005050606050508080707000005050606BC
:1005EB000505090908080000050534342020080812
:1005FB000707060600002A2A202008080909080810
:10060B00000000007F000000000000000000000060
:10061B0000000000000000000000000000000000CF
:10062B0000000000000000000000000000000000BF
:10063B0000000000000000000000000000000000AF
:10064B00000000000000000000000000000000009F
:10065B00000000000000000000000000000000008F
:10066B00000000000000000000000000000000007F
:10067B00000000000000000000000000000000006F
:10068B00000000000000000000000000000000005F
:10069B000000000000000000050608080806080816
:1006AB0008080808030807070706070707070707CF
:1006BB00060302020203050505050602023C0101C1
:1006CB00030506030505030506030505323C010179
:1006DB00010503030302030303030303323C01017C
:1006EB0001050202020102020202030506060606CA
:1006FB00060603050101010302463C3C000202030E
:10070B000202463C32323232323205060C0C0C06F7
:10071B000C0C0C0C0C0C200C070707060707070723
:10072B00070706030202020307070706050505056F
:10073B00050505060C0C0C060C0C0C0C0C0C200CFB
:10074B000707070607070707070706030202020347
:10075B00050505050002023C010101010101050629
:10076B000101010101010603020202030505050552
:10077B000002023C01010101010101010000020222
:10078B0002023C3C010101010101010101017F0356
:10079B000505082020160C060606060606060602A8
:1007AB0004040507070605030303030303030305FB
:1007BB000606082A2A2008161616161616161606E8
:1007CB0016160807080607050505050505050503A3
:1007DB00050508202016080606060606060606026C
:1007EB0004040507070605030303030303030303BD
:1007FB00050606082A2A2008090909090909060617
:10080B000709090807080607050505050505050578
:10081B000305050820200908060606060606060637
:10082B00020404050707060503030303030303037D
:10083B0003050606082A2A200809090909090906D9
:10084B000607090908070806050808080808080824
:10085B0008050606082A2A200809090909090909B1
:10086B00090906060706060505080808080808080A
:10087B000808087F01010404050508087F0102032D
:06088B0004050607087FCA
:1000B100E4F523F524F525F526F527F528F529F5A9
:1000C1002AC200C201C202C203C204C205C206C2E0
:1000D10007C208C209782B746FF2087420F2782DD8
:0600E10074C5F208E4F210
:10089100AE82AF838FC38EC475C78275C50175C61D
:1008A1005A75C6A5C006C00774A0C0E07449C0E06F
:1008B1007480C0E01234BCE58124FBF581AFC2AD88
:1008C100C77E008F037C00C007C005C006C003C0FF
:1008D1000474AAC0E07449C0E07480C0E01234BC62
:1008E100E58124F9F581D0078F8222C0588581588E
:1008F100AE82AF83E55824FDF886C28FC38EC475DE
:10090100C78275C50275C65A75C6A5E55824FDF896
:1009110086047D00C004C005C006C00774C0C0E0E5
:100921007449C0E07480C0E01234BCE58124F9F55B
:1009310081D3D05822AE82AF838FC38EC475C78254
:1009410075C50375C65A75C6A5C006C00774D0C063
:10095100E07449C0E07480C0E01234BCE58124FB3E
:10096100F581D322C05885815805810581AE82AFBA
:1009710083E55824FCF8A95809E6F70809E6F78E3B
:10098100828F83C007C006120891AD82D006D007BE
:10099100BDFF02800F8E828F83C007C00612093609
:1009A100D006D0078E828F83A3C007C0061208919C
:1009B100AD82D006D007BDFF0280108E828F83A347
:1009C100C007C006120936D006D007AD580D7C000D
:1009D1007B408D828C838BF01235EAFAC007C0060A
:1009E100C005C004C003C0028E828F831208EC15BB
:1009F10081D003D004D005D006D0070DBD00010C75
:100A01008D828C838BF01235EAFD8E828F83A3C099
:100A1100051208EC1581D3855881D05822C058851C
:100A2100815805810581AE82AF83AD580D7C007B75
:100A3100408E828F83C007C006C005C004C0031268
:100A41000891AA82D003D004D005D006D0078D82A8
:100A51008C838BF0EA122FF40DBD00010C8E828F76
:100A610083A3C005C004C003120891AF82D003D094
:100A710004D0058D828C838BF0EF122FF4A85808D7
:100A81008682088683855881D058227E007F007433
:100A9100FC2F4059EE54077021C007C006C006C0A4
:100AA1000774DDC0E07449C0E07480C0E01234BC5A
:100AB100E58124FBF581D006D0078E828F83C007A4
:100AC100C006120891AD827C00C005C00474E5C067
:100AD100E07449C0E07480C0E01234BCE58124FBBD
:100AE100F581D006D0070EBE00A50F80A222AE82EE
:100AF100AF838E048F051EBEFF011FEC4D70F322E4
:100B0100AE82AF838E048F051EBEFF011FEC4D60C8
:100B1100109004FFC007C006120AEFD006D007806C
:100B2100E322900004120A1EAE82AF83BEFF05BF0E
:100B3100FF028007782BEEF208EFF2900006120A0E
:100B41001EAE82AF83BEFF04BFFF0122782DEEF2FD
:100B510008EFF222758780759850758922758DFD91
:100B6100758BFDD28ED299758C05759CD7758E15B6
:100B7100D28CD2AAD28AD2AFD2A922AE82AF8310AE
:100B8100990280FB8E998E828F832275D98C75D8BC
:100B91000075E90075F90075EA5575FA0575DA49C8
:100BA10022120B5575BB7012034F7420C0E0E4C0D4
:100BB100E074EBC0E07449C0E07480C0E090000ACA
:100BC10075F0601232AEE58124FBF58190000A7563
:100BD100F0601203E29003E8120B01759410120BFE
:100BE1008C020B23E58054E0FFE5B054044FF582FD
:100BF10022120BE5E582FF20E219782FC3E294FF70
:100C010008E294FF5024782FE22401F208E2340034
:100C1100F28017782FE4F208F2100202800AD2065D
:100C21007839E24401F28002C206782FC3E2F5F07E
:100C310074A095F008E2F5F0E495F05004D202803A
:100C410002C202EF20E7197831C3E294FF08E2946F
:100C5100FF50247831E22401F208E23400F28017D7
:100C61007831E4F208F2100302800AD2077839E2FF
:100C71004402F28002C2077831C3E2F5F074A09514
:100C8100F008E2F5F0E495F05004D2038002C203CB
:100C9100EF20E6197833C3E294FF08E294FF502471
:100CA1007833E22401F208E23400F280177833E469
:100CB100F208F2100402800AD2087839E24404F200
:100CC1008002C2087833C3E2F5F074A095F008E21F
:100CD100F5F0E495F05004D2048002C204EF20E55F
:100CE100197835C3E294FF08E294FF50247835E285
:100CF1002401F208E23400F280177835E4F208F2B8
:100D0100100502800AD2097839E24408F28002C251
:100D1100097835C3E2F5F074A095F008E2F5F0E446
:100D210095F05003D20522C2052243BC80900001F8
:100D3100120AEF439D0475BC82900001120AEF75FF
:100D4100BD0043BC0822E5BCA2E42253BCE7AEBD12
:100D51007F00EE2EFEEF33FFEE2EFEEF33FFACBE33
:100D61007D00EE4204EF42058C828D83539DFB533F
:100D7100BC7F22B280A280B3928122A21092DE2295
:100D8100AE82AF838EEA8FFA2230B303D28022C2C1
:100D91008022C2D875F90075E900B2843285232713
:100DA10085242885252985262A32C0E0C0D075D022
:100DB10008AC23AD24AE25AF2674012CF523E43D08
:0F0DC100F524E43EF525E43FF526D0D0D0E0320E
:1049A000722025303478203D20002530327820696F
:1049B00061705F636F6E747220253032780D0A006B
:1049C000772025303478203D20253032780D0A00BC
:1049D000657261736520253034780D0A000D0A2553
:1049E0003034783A00202530327800303132333498
:1049F00035363738396162636465667E4023242525
:0C4A00005E262A28295F2B7C2D3D5C00DF
:1000E700C20A783AE4F208F2783CF2783DF208F274
:0600F700783FF27840F2B0
:100DD000C058858158C082C083C0F0E581240DF5DC
:100DE00081A85808740326FAE40836FB0886048AAA
:100DF000828B838CF0E5582407F81235EAF6A312AB
:100E000035EA08F6A31235EA08F6A31235EA08F621
:100E1000C004C003C002E5582407F8E6C0E008E6B5
:100E2000C0E008E6C0E008E6C0E090FF0075F07F93
:100E3000744712300FAF82E58124FCF581D002D0D7
:100E400003D004EF6037A858088682088683088696
:100E5000F01235EAFDA31235EAFEA31235EAFF745B
:100E60000CC0E0744AC0E07480C0E08D828E838F35
:100E7000F0122E6D158115811581021232C002C04B
:100E800003C004E5582407F886820886830886F0A4
:100E900008E6C004C003C002123297AE82AF83D00E
:100EA00002D003D004A8580886820886830886F0FA
:100EB0001235EAFBA31235EAFCA31235EAFDC0079E
:100EC000C006C004C003C002C006C007740FC0E063
:100ED000744AC0E07480C0E0C003C004C005123191
:100EE000D2E58124F8F581D002D003D004A85808B7
:100EF00086820886830886F01235EAFBA31235EA5B
:100F0000FCA31235EAFD8B828C838DF0C003C002F6
:100F100012350FAC82D002D003D006D007E558249A
:100F200007F8A604A85808E5582404F9740726F71A
:100F3000E4083609F70809E6F7E5582404F886823C
:100F40000886830886F01235EAFDE5582407F8C3C1
:100F5000E69DD004D003D0024003021044C002C07A
:100F600003C004E558240BF8A605087600A8580825
:100F700086820886830886F01235EAFAA31235EADB
:100F8000FBA31235EAFDC007C006C004C003C002BF
:100F9000E558240BF8E6C0E008E6C0E07430C0E095
:100FA0008A828B838DF0123341158115811581D092
:100FB00002D003D004D006D007A85808868208863D
:100FC000830886F01235EAFBA31235EAFCA312353A
:100FD000EAFDE5582404F886820886830886F01224
:100FE00035EAFAE5582404F8EA2BF6E43C08F6085A
:100FF000A605E5582407F886027D00E5582404F884
:10100000E6C39AFA08E69DFD088604C007C006C03C
:1010100004C003C002C006C007740FC0E0744AC019
:10102000E07480C0E0C002C005C0041231D2E58186
:1010300024F8F581D002D003D004D006D007D00424
:10104000D003D0028A828B838CF0E5582407F812F3
:1010500035EAF6A31235EA08F6A31235EA08F6A334
:101060001235EA08F68E828F831232A2AC82AD83EB
:10107000AEF0FFC004C005C006C007E5582407F85D
:1010800086820886830886F008E6122E31AC82AD8F
:1010900083AEF0FFE58124FCF581E4C0E0C0E0749C
:1010A00080C0E0743FC0E08C828D838EF0EF123000
:1010B00061AC82AD83AEF0FFE58124FCF581E5589B
:1010C000240DF8A60408A60508A60608A607A85831
:1010D00008740826FAE40836FB0886078A828B83A0
:1010E0008FF01235EAFF8F061FEE6042C007E55809
:1010F000240DF8E6C0E008E6C0E008E6C0E008E637
:10110000C0E090000075F0207441122ED9AC82AD81
:1011100083AEF0FBE58124FCF581D007E558240D72
:10112000F8A60408A60508A60608A60380B8E55890
:10113000240DF886820886830886F008E612329726
:10114000AE82AF83A8580886820886830886F0128C
:1011500035EAFBA31235EAFCA31235EAFD8B828C3B
:10116000838DF0C007C00612350FAC82D006D007C1
:10117000A8580886820886830886F01235EAFAA302
:101180001235EAFBA31235EAFDEC2AFAE43BFBC078
:1011900004C006C007740FC0E0744AC0E07480C089
:1011A000E0C002C003C0051231D2E58124F8F58108
:1011B000D004A8580886820886830886F01235EA8B
:1011C000FDA31235EAFEA31235EAFFEC2DFCE43E46
:1011D000FB8F028C828B838AF0742E122FF4A85816
:1011E00008740926FDE40836FE0886078D828E8382
:1011F0008FF01235EAFDA31235EAFEA31235EAFF9D
:10120000ED4E602EA8580886820886830886F01264
:1012100035EAFAA31235EAFBA31235EAFCC005C091
:1012200006C0078A828B838CF01233AB158115813F
:101230001581855881D05822C058858158C082C0F8
:1012400083C0F0058105817410C0E0740EC0E0E534
:101250005824FCF88682088683122E3CAB82AC832D
:1012600015811581C004C003C003C004900E101284
:10127000303FAA82AF8315811581D003D004E55891
:1012800024FCF8E6C39AFA08E69FFFC007C004C032
:1012900003C002743CC0E0E4C0E08A828F83122E57
:1012A0003CAD82AE8315811581E5582404F8A6056E
:1012B00008A606E5582404F8E6C0E008E6C0E09079
:1012C000003C12303FAD82AE8315811581D002D033
:1012D00003D004D007EAC39DFAEF9EFFC002C00707
:1012E000E5582404F8E6C0E008E6C0E0C003C00406
:1012F0007412C0E0744AC0E07480C0E0A85808E6E8
:10130000C0E008E6C0E008E6C0E01231D2E5812482
:10131000F4855881D05822852C82852D83A3A3A3E0
:10132000A3A3E493FEA3E493FFAB2CAC2D7D80C07C
:1013300007C006121338800BC006C0078B828C834F
:101340008DF022D006D00722020BF2740D252CF569
:1013500082E4352DF583E493FFBF20004001222075
:101360000A0A200C0122120D2BD20A22120D47402C
:101370000122120D4C1232A2AC82AD83AEF0FFC03E
:1013800004C005C006C00790CCCD75F01C74451292
:101390003527AC82AD83AEF0FFE58124FCF5817882
:1013A00047ECF208EDF208EEF208EFF2740D252C8E
:1013B000F582E4352DF583E493240AFF7E007D60F9
:1013C000784BEFF208EEF208EDF2784E7947E3F24F
:1013D0000809E3F20809E3F20809E3F2785274011C
:1013E000F2785304F278547421F208744AF20874C3
:1013F00080F290004B75F060120DD0C20AD20B2221
:10140000C058E581F5582404F581C20C782BE2FC24
:1014100008E2FD7E007F00C004C005C006C007854D
:1014200023828524838525F0E52612322AAC82ADFD
:1014300083E58124FCF581783DECF208EDF2C005EE
:10144000C004C004C005782BE2F58208E2F58312DF
:10145000303FAE82AF83158115817B007A00A8589A
:1014600008E523C39EF6E5249F08F6E5259B08F6CC
:10147000E5269A08F6782BE22432F58208E2340059
:10148000F5837464C0E0E4C0E0122E3CAE82AF830A
:10149000158115817B007A00C006C007C003C00219
:1014A000A8580886820886830886F008E612322A41
:1014B000AA82AB83AEF0FFE58124FCF581D004D095
:1014C00005783FEAF2C20D783CE2B502028002D212
:1014D0000D783AE2B5040808E2B505030215F5D225
:1014E0000C7837E2C0E008E2C0E07423C0E0744A40
:1014F000C0E07480C0E01234BCE58124FBF5817843
:1015000037C3E2F5F0E495F008E2F5F0748063F09B
:101510008095F040030215F57837E224FFF208E2E7
:1015200034FFF27837E2F5F008E245F070067839DA
:10153000E24410F2740B252CF582E4352DF583E49A
:1015400093FF20E0030215F5740B252CF582E4359A
:101550002DF583E49330E2097837E2FE08E2FF805C
:1015600028852C82852D83A3A3A3A3A3A3A3A3A330
:10157000E493FCA3E493FD7837D3E29CF4B3FCB38B
:1015800008E29DF4FD8C068D07740B252CF582E492
:10159000352DF583E49330E135740C252CF582E488
:1015A000352DF583E493240AFD7C007B60C006C0E2
:1015B00007740FC0E0744AC0E07480C0E0C005C08A
:1015C00004C0031231D2E58124F8F5818025740C22
:1015D000252CF582E4352DF583E493240AFD7C0067
:1015E0007B60C006C0078D828C838BF01212381589
:1015F000811581D20B783DE2FE08E2FF783AEEF2E7
:1016000008EFF2783FE2783CF2855881D0582230DA
:101610000B1390000A75F0601203E27840E2F58245
:101620001204DCC20B22C058E581F5582404F58170
:101630007801E2FE08E2FF4E60717809E2FFBF0127
:101640006A7805E2FC08E2FD08E2FE08E2FFA8581D
:1016500008E523C39CF6E5249D08F6E5259E08F6DB
:10166000E5269F08F6782BE22432F58208E2340062
:10167000F5837464C0E0E4C0E0122E3CAA82AB8320
:1016800015811581C002C00390001912303FAA8253
:10169000AB83158115817E007F00A85808C3E69AA8
:1016A00008E69B08E69E08E69F5003021756120DB7
:1016B000747801E2FE08E2FF7803E2FC08E2FD74C0
:1016C000012CFAE43DFB7803EAF208EBF2EC2EF58C
:1016D00082ED3FF583E493FF7805E523F208E524E6
:1016E000F208E525F208E526F2BF7F2A780974039F
:1016F000F27839E24420F27434C0E0744AC0E074F5
:1017000080C0E01234BC158115811581C2F085F0CE
:1017100022120D7C8040EF700AC2F085F022120D7B
:101720007C80338F8212050CE58275F002A4242997
:10173000F582744935F0F583E493FEA3E493FFD278
:10174000F0C007C00685F022120D7CD006D0078EAF
:10175000828F83120D81855881D058227809E2FF4B
:10176000BF0102D322C3227809E2FFBF010DC2F0FC
:1017700085F022120D7C78097402F2227809E2FFCA
:10178000BF020578097401F222AE82AF837801EEC0
:10179000F208EFF27803E4F208F27805F208F208B2
:1017A000F208F2780904F222752C81752D2D852C12
:1017B00082852D83A3A3A3E493FEA3E493FFAB2C24
:1017C000AC2D7D80C007C0061217CD800BC006C0AF
:0D17D000078B828C838DF022D006D007227B
:104A0C006F6F00257500253032753A253032753AB6
:104A1C00253032750056007461736B2074696D65B6
:104A2C0063742025750D0A00706C617920656E64C5
:034A3C000D0A0060
:1000FD00752B00E4F52CF52D902D9793FDA3E4932E
:10010D00FEA3E493FF8D2E8E2F8F30902DADE493B3
:10011D00FDA3E493FEA3E493FF8D318E328F3390D4
:10012D002DC3E493FDA3E493FEA3E493FF8D348EDE
:10013D00358F36902DD9E493FDA3E493FEA3E4937C
:10014D00FF8D378E388F39902DEFE493FDA3E49317
:10015D00FEA3E493FF8D3A8E3B8F3C902E05E493E6
:10016D00FDA3E493FEA3E493FF8D3D8E3E8F3F9060
:10017D002E1BE493FDA3E493FEA3E493FF8D408E29
:10018D00418F4275432475444B75458075462E75D8
:10019D00474B754880754938754A4B754B80754C82
:1001AD0043754D4B754E80754F4D75504B75518048
:1001BD007552A375530675549A7555077556DB75AB
:1001CD005705C20BC20CC20D7845E4F27846740295
:1001DD00F27857E4F27858F208F2785AF2785BF236
:1001ED0008F2785DF208F208F208F27861743CF2D8
:1001FD0008E4F27863F208F208F208F27867F20880
:0E020D00F208F208F2786BF208F208F208F23A
:1017DD00AE82AD83AFF074092EFEE43DFD8E828D99
:1017ED00838FF01235EAFEA31235EAFFBEFE13BF5A
:1017FD00FF107861E2FC08E2FD7837ECF208EDF2BB
:10180D0080077837EEF208EFF27837E2C0E008E2B1
:10181D00C0E0743FC0E0744AC0E07480C0E0123490
:10182D00BCE58124FBF5817839E4F27421C0E0E454
:10183D00C0E0C0E090000A75F060123341158115CB
:10184D00811581D20B22AF82852C82852D83A3A396
:10185D00A3A3A3A3A3E493FDA3E4934D6036852C2A
:10186D0082852D83A3A3A3A3A3A3A3E493FDA3E444
:10187D0093FEAA2CAB2D7C80C007C006C0051218A4
:10188D0090800BC005C0068A828B838CF022D00518
:10189D00D006D0077845E27846F27845EFF27845E4
:1018AD00C2D575F016E230E704B2D5F404A430D5F4
:1018BD000AF42401C5F0F43400C5F02481F52C742C
:1018CD002D35F0F52D852C82852D83A3A3A3E493CF
:1018DD00FDA3E4934D6032852C82852D83A3A3A3B4
:1018ED00E493FDA3E493FEAA2CAB2D7C80C007C02E
:1018FD0006C005121905800BC005C0068A828B83B0
:10190D008CF022D005D006D0077E007846E2FCE2AE
:10191D003395E0FDC007C006C004C005745BC0E090
:10192D00744AC0E07480C0E01234BCE58124F9F53E
:10193D008122C058E581F558240CF581AD82AE8326
:10194D00AFF0E558240AF8A60508A60608A6077CF8
:10195D0000E558240AF8A95809740E26F7E408364C
:10196D0009F70809E6F7A85808E5582404F9E6F739
:10197D000809E6F70809E6F7E558240AF8E55824BA
:10198D0007F9741426F7E4083609F70809E6F77B1A
:10199D0000C3EB648094864003021A938BF005F02C
:1019AD007401800225E0D5F0FBFA7839E25A700314
:1019BD00021A8DC004A85808EB26FCE40836FE0870
:1019CD0086078C828E838FF01235EAD00420E727AC
:1019DD00E558240AF8740E26FDE40836FE0886073D
:1019ED00EC2DFDE43EFE8D828E838FF01235EAF5EF
:1019FD0082121853021A97E5582404F8EB26FDE4D9
:101A0D000836FE0886078D828E838FF01235EAFD2B
:101A1D00BDFE1ABA021778467945E2F5F0E3B5F046
:101A2D0002800A7846E2F582121853805D8A067F9D
:101A3D0000C003C0027404C0E0E4C0E0C006C007EB
:101A4D007467C0E0744AC0E07480C0E01234BCE535
:101A5D008124F9F581D002D003BA1024E55824076A
:101A6D00F886820886830886F01235EAFEA31235C1
:101A7D00EAFF4E600B8E828F83C003121789D0034D
:101A8D000B8B0402199E7839E4F2855881D05822C7
:101A9D001217DD7486C0E0744AC0E07480C0E07433
:101AAD0082C0E0744AC0E07480C0E0747DC0E07410
:101ABD004AC0E07480C0E0740AC0E07400C0E074F5
:101ACD0060C0E01231D2E58124F4F5817498C0E054
:101ADD00744AC0E07480C0E07495C0E0744AC0E000
:101AED007480C0E0741AC0E07400C0E07460C0E09F
:101AFD001231D2E58124F7F58174A1C0E0744AC09A
:101B0D00E07480C0E07495C0E0744AC0E07480C099
:101B1D00E0741FC0E07400C0E07460C0E01231D208
:101B2D00E58124F7F581D20B22AD82AE83AFF03083
:101B3D000632C007C006C00574ADC0E0744AC0E0EF
:101B4D007480C0E01234BC1581158115817837E29F
:101B5D002409F208E23400F290079A121789D00591
:101B6D00D006D007300724C007C006C0051217677E
:101B7D0074B9C0E0744AC0E07480C0E01234BC1582
:101B8D008115811581D005D006D007300821C007F9
:101B9D00C006C00574C5C0E0744AC0E07480C0E0E2
:101BAD001234BC158115811581D005D006D00730B2
:101BBD000921C007C006C00574D1C0E0744AC0E059
:101BCD007480C0E01234BC158115811581D005D00B
:101BDD0006D0078D828E838FF002193FAD82AE83C2
:101BED00AFF08D028E038F0478577401F28D828EC3
:101BFD00838FF0C004C003C0021217DD7420C0E053
:101C0D00E4C0E0C0E090000A75F060123341158128
:101C1D00158115817857E2FE7F00C006C00774DD7F
:101C2D00C0E0744AC0E07480C0E07416C0E0740077
:101C3D00C0E07460C0E01231D2E58124F8F581D0A6
:101C4D0002D003D00474092AFDE43BFE8C078D827B
:101C5D008E838FF01235EAFDA31235EAFEC004C063
:101C6D0003C002C005C00690000A75F0601212385C
:101C7D0015811581D002D003D004D20B74142AFA29
:101C8D00E43BFB8A828B838CF01235EAFAA3123582
:101C9D00EAFB8A828B83021789AD82AE83AFF08D0A
:101CAD00028E038F04300633C007C006C005C00482
:101CBD00C003C00274ADC0E0744AC0E07480C0E0DF
:101CCD001234BC1581158115819005DB121789D051
:101CDD0002D003D004D005D006D00730092DC0079F
:101CED00C006C005C004C003C00274D1C0E0744A70
:101CFD00C0E07480C0E01234BC158115811581D00F
:101D0D0002D003D004D005D006D0077839E25410A4
:101D1D00605674092AFAE43BFB8A828B838CF07837
:101D2D00371235EAF2A31235EA08F27857E22401A8
:101D3D00F27857E2FB7C00C007C006C005C003C0A7
:101D4D000474DDC0E0744AC0E07480C0E07416C055
:101D5D00E07400C0E07460C0E01231D2E58124F877
:101D6D00F581D005D006D0078D828E838FF00219B4
:101D7D003F7861E2C0E008E2C0E074E0C0E0744A80
:101D8D00C0E07480C0E0741AC0E07400C0E07460FC
:101D9D00C0E01231D2E58124F8F5817861E2C0E02E
:101DAD0008E2C0E090000A75F06012123815811536
:101DBD0081D20B221217DD74E3C0E0744AC0E074C7
:101DCD0080C0E07413C0E07400C0E07460C0E01225
:101DDD0031D2E58124FAF581121D7E785B7401F212
:101DED0008E4F278407487F2221217DD7861E2C0C0
:101DFD00E008E2C0E090000A75F06012123815811B
:101E0D001581D20B220217677840E4F222AE82AF21
:101E1D0083C3EE94A0EF940F500490000122C3EE03
:101E2D009410EF9427500490000A22C3EE9450EFC3
:101E3D0094C35004900064229003E822C058E581B9
:101E4D00F5582404F581AD82AE83AFF0300668C03D
:101E5D0007C006C005782FE2C0E008E2C0E074EBD1
:101E6D00C0E0744AC0E07480C0E01234BCE5812447
:101E7D00FBF581D005D006D0077861795BC3E2F51B
:101E8D00F0E395F008E2F5F009E3648063F08095E6
:101E9D00F050157861795BE3F5F0C3E295F0F20946
:101EAD00E3F5F008E295F0F2C007C006C005121D7B
:101EBD007ED005D006D007200803021F6BC005C0D9
:101ECD0006C007C007C006C0057833E2C0E008E2CF
:101EDD00C0E074FAC0E0744AC0E07480C0E012340F
:101EED00BCE58124FBF581D005D006D0077861E2F1
:101EFD00FA08E2FBE23395E0FCFFA8580874FFC333
:101F0D009AF6747F9B08F6E49C08F6E49F08F67831
:101F1D005BE2FC08E2FDE23395E0FEFFA85808C342
:101F2D00EC96ED0896EE0896EF64800886F063F067
:101F3D008095F0D007D006D00550147861795BE319
:101F4D00C5F0E225F0F209E3C5F008E235F0F2C084
:101F5D0007C006C005121D7ED005D006D007782F0C
:101F6D00C3E2F5F0748895F008E2F5F0741395F07E
:101F7D005054300C51785BE2B4100708E2B40E02F5
:101F8D008002800F785B7401F208E4F27840748768
:101F9D00F28033C007C006C005785BE2C0E008E2FE
:101FAD00C0E090003C12303FAB82AC8315811581AF
:101FBD00D005D006D007785BEBF208ECF27840E262
:101FCD00FC784024FDF27833C3E2F5F0748895F087
:101FDD0008E2F5F0741395F05057300C54785BE22D
:101FED00B4010408E260028010785B7410F208748A
:101FFD000EF278407481F28038C007C006C00574B7
:10200D003CC0E0E4C0E0785BE2F58208E2F58312C3
:10201D003643AB82AC8315811581D005D006D00730
:10202D00785BEBF208ECF27840E2FC784074032C1C
:10203D00F28D828E838FF012193F855881D05822F0
:10204D00781A7957E2F3784B740AF2087400F208A3
:10205D007460F2784E7963E3F20809E3F20809E35C
:10206D00F20809E3F278527402F2785314F27854BC
:10207D007409F208744BF2087480F290004B75F0FD
:10208D0060120DD0E4C0E07424C0E07474C0E0743C
:10209D0049C0E07867E2F58208E2F58308E2F5F0E1
:1020AD0008E212300FAF82E58124FCF581EF606903
:1020BD00784B7414F2087400F2087460F2E4C0E016
:1020CD00C0E0747AC0E07444C0E07867E2F582083D
:1020DD00E2F58308E2F5F008E2123527AC82AD8314
:1020ED00AEF0FFE58124FCF581784EECF208EDF2BF
:1020FD0008EEF208EFF278527403F278537401F29D
:10210D007854740EF208744BF2087480F290004B00
:10211D0075F060120DD00222247480C0E07496C058
:10212D00E07418C0E0744BC0E07867E2F58208E215
:10213D00F58308E2F5F008E212300FAF82E5812455
:10214D00FCF581EF6069784B7414F2087400F208A5
:10215D007460F2E4C0E07424C0E07474C0E07449AB
:10216D00C0E07867E2F58208E2F58308E2F5F00851
:10217D00E2123527AC82AD83AEF0FFE58124FCF58C
:10218D0081784EECF208EDF208EEF208EFF278529B
:10219D007401F2785304F278547410F208744BF20F
:1021AD00087480F290004B75F060120DD080687845
:1021BD004B7414F2087400F2087460F2E4C0E07419
:1021CD0024C0E07474C0E07449C0E07867E2F58221
:1021DD0008E2F58308E2F5F008E2123527AC82AD8E
:1021ED0083AEF0FFE58124FCF581784EECF208ED2D
:1021FD00F208EEF208EFF278527403F2785374019C
:10220D00F278547410F208744BF2087480F2900056
:10221D004B75F060120DD0781A7957E3F222C05841
:10222D00858158AC82AD83AEF0FFE5812408F58140
:10223D00786BA95809D3E29CF4B3F7B308E29DF487
:10224D00B309F7B308E29EF4B309F7B308E29FF4BC
:10225D0009F7A85808795DE6F30809E6F30809E6D9
:10226D00F30809E6F3782DE2F58208E2F5831232E0
:10227D00A2AA82AB83AEF0FFC002C003C006C007A6
:10228D00900FD075F0C97440122ED9C8E5582405A9
:10229D00C8A68208A68308A6F008F6E58124FCF5F9
:1022AD0081782BE2F58208E2F5831232A2AA82AB85
:1022BD0083AEF0FFC002C003C006C007E558240579
:1022CD00F886820886830886F008E6122ED9AC823D
:1022DD00AD83AEF0FFE58124FCF581E4C0E0C0E004
:1022ED00747AC0E07444C0E08C828D838EF0EF125E
:1022FD003527C8E5582405C8A68208A68308A6F088
:10230D0008F6E58124FCF581A858088682088683A5
:10231D000886F008E6122FDDAA82AB83AEF0FFC06F
:10232D0002C003C006C007E5582405F8868208865A
:10233D00830886F008E6123527AC82AD83AEF0FF38
:10234D00E58124FCF581C004C005C006C0079000DE
:10235D000075F0617445122ED9AC82AD83AEF0FFDD
:10236D00E58124FCF581E4C0E0C0E0747AC0E0743E
:10237D0044C0E08C828D838EF0EF123527AC82AD98
:10238D0083AEF0FFE58124FCF5817863ECF208ED76
:10239D00F208EEF208EFF2855881D058221217DDBF
:1023AD007863E4F208F208F208F27867F208F208AE
:1023BD00F208F212204DD20B22C058858158C082EE
:1023CD00C083C0F0786BE2B5271208E2B5280D087E
:1023DD00E2B5290808E2B52A030224F9786BE2F583
:1023ED00F008E242F008E242F008E245F070030224
:1023FD0024D88527828528838529F0E52A12222B6A
:10240D00E4C0E0C0E074C8C0E07442C0E07863E2AC
:10241D00F58208E2F58308E2F5F008E212300FAC20
:10242D0082E58124FCF581EC70030225577863E287
:10243D00FA08E2FB08E2FC08E2FF7841EAF208EB59
:10244D00F208ECF208EFF2782DE2F58208E2F5835E
:10245D001232A2AC82AD83AEF0FFC004C005C0063F
:10246D00C007900FD075F0C97440122ED9AC82AD53
:10247D0083AEF0FFE58124FCF581C004C005C006E4
:10248D00C0077867E2F58208E2F58308E2F5F00807
:10249D00E2123061AC82AD83AEF0FFE58124FCF534
:1024AD00817867ECF208EDF208EEF208EFF21220F7
:1024BD004DD20BAC27AD28AE29AF2A786BECF208C4
:1024CD00EDF208EEF208EFF2022557E52745284513
:1024DD0029452A6075AA27AB28AC29AF2A786BEA63
:1024ED00F208EBF208ECF208EFF2805E300C5B853F
:1024FD0023828524838525F0E52612222B7841E25F
:10250D00C0E008E2C0E008E2C0E008E2C0E07863A5
:10251D00E2F58208E2F58308E2F5F008E212300FE9
:10252D00AC82E58124FCF581EC601F12204DD20BAD
:10253D007863E2FA08E2FB08E2FC08E2FF7841EA80
:10254D00F208EBF208ECF208EFF2120D8AA8580827
:10255D0086820886830886F012193F855881D058E7
:10256D0022C058858158AD82AE83AFF07C00E5580E
:10257D0024FDF8C3EC965045C005C006C007EC24F9
:10258D000AF9745FF3E55824FCF886027B001ABA49
:10259D00FF011B8C067F00EEB50206EFB50302802E
:1025AD0008D007D006D0058011D007D006D005E59C
:1025BD005824FCF8860374302BF30C80B1C007C08F
:1025CD0006C0057410C0E0E4C0E0C0E090001A75CC
:1025DD00F060123341158115811581D005D006D0DB
:1025ED0007E55824FCF886037C001BBBFF011CC0CB
:1025FD0007C006C005C003C00490000312303FABF6
:10260D0082AC8315811581D005D006D007EB2DFD49
:10261D00EC3EFE8D828E838FF01235EAFDA31235CE
:10262D00EAFEA31235EAFFC005C006C0077495C0C7
:10263D00E0744AC0E07480C0E0741AC0E07400C059
:10264D00E07460C0E01231D2E58124F7F581D20B40
:10265D00D058221217DD7846E2FF7857F2C0077482
:10266D0007C0E090002E75F04012256E1581158182
:10267D002212193F30063C7857C3E2F5F0740195EC
:10268D00F0501B7857E214F27857E2C0E07407C09F
:10269D00E090002E75F04012256E1581158174ADF8
:1026AD00C0E0744AC0E07480C0E01234BC158115DE
:1026BD0081158130071B75820212185374B9C0E061
:1026CD00744AC0E07480C0E01234BC1581158115C8
:1026DD00813008397857E2B40700501C7857E2244E
:1026ED0001F27857E2C0E07407C0E090002E75F05B
:1026FD004012256E1581158174C5C0E0744AC0E085
:10270D007480C0E01234BC15811581158130091D0E
:10271D007857E2F58212185374D1C0E0744AC0E0C4
:10272D007480C0E01234BC158115811581221217F9
:10273D00DD78577401F2785AE4F2782BE2FE08E264
:10274D00FF786FEEF208EFF2782DE2FE08E2FF78E7
:10275D0071EEF208EFF27401C0E004C0E0900043A6
:10276D0075F04012256E1581158122900004120915
:10277D0036786FE2C0E008E2C0E09000041209650F
:10278D00158115817871E2C0E008E2C0E090000685
:10279D0012096515811581786FE2FE08E2FF782B2D
:1027AD00EEF208EFF27871E2FE08E2FF782DEEF21C
:1027BD0008EFF22212193F785AE2600302293630EF
:1027CD00063C7857C3E2F5F0740195F0501B78572D
:1027DD00E214F27857E2C0E07402C0E09000437555
:1027ED00F04012256E1581158174ADC0E0744AC09C
:1027FD00E07480C0E01234BC15811581158120076D
:10280D0003022892786F792BE2F5F0E3B5F00B080F
:10281D00E2F5F009E3B5F002800280167871792DAA
:10282D00E2F5F0E3B5F00B08E2F5F009E3B5F002DF
:10283D008036785A7402F27413C0E0744BC0E074A1
:10284D0080C0E07495C0E0744AC0E07480C0E0744C
:10285D0025C0E07400C0E07460C0E01231D2E581A3
:10286D0024F7F581D20B80087846E2F582121853D1
:10287D0074B9C0E0744AC0E07480C0E01234BC1575
:10288D0081158115813008397857E2B40200501C4A
:10289D007857E22401F27857E2C0E07402C0E0906C
:1028AD00004375F04012256E1581158174C5C0E089
:1028BD00744AC0E07480C0E01234BC1581158115D6
:1028CD008120090122785A7401F27857E2B401058A
:1028DD00752B6F8003752B71A92BE3FE09E3FFC0E8
:1028ED0006C0077419C0E0744BC0E07480C0E0747A
:1028FD0025C0E07400C0E07460C0E01231D2E58103
:10290D0024F8F5817840749FF2D20B78587401F257
:10291D0008E4F274D1C0E0744AC0E07480C0E012E3
:10292D0034BC15811581158122785AE2B4010280DB
:10293D0003022B6C300679782FE2C0E008E2C0E08C
:10294D0074EBC0E0744AC0E07480C0E01234BCE5A2
:10295D008124FBF581A92BE3FE09E3FF7858C3E23F
:10296D009E08E29F501CA92BA82BE2FE08E2FF78DF
:10297D0058D3E29EF4B3FEB308E29FF4FFEEF309E1
:10298D00EFF3A92BE3FE09E3FFC006C0077419C0DE
:10299D00E0744BC0E07480C0E07425C0E07400C0EA
:1029AD00E07460C0E01231D2E58124F8F581D20BDC
:1029BD00200803022A407833E2C0E008E2C0E07448
:1029CD00FAC0E0744AC0E07480C0E01234BCE58106
:1029DD0024FBF581A92BE3FE09E3FF74FFC39EFEE3
:1029ED0074FF9FFF7858C3E29E08E29F5017A92BF2
:1029FD00A82BE2FE08E2FF7858E22EFE08E23FFF28
:102A0D00EEF309EFF3A92BE3FE09E3FFC006C007C0
:102A1D007419C0E0744BC0E07480C0E07425C0E050
:102A2D007400C0E07460C0E01231D2E58124F8F585
:102A3D0081D20B782FC3E2F5F0748895F008E2F59A
:102A4D00F0741395F05047300C447858E2B41007E9
:102A5D0008E2B427028002800F78587401F208E46E
:102A6D00F27840749FF280267858E2C0E008E2C008
:102A7D00E090000A12303FAE82AF83158115817848
:102A8D0058EEF208EFF27840E2FF784014F2783316
:102A9D00C3E2F5F0748895F008E2F5F0741395F043
:102AAD005049300C467858E2B4010408E2600280C7
:102ABD001078587410F2087427F27840749BF280E5
:102ACD002A740AC0E0E4C0E07858E2F58208E2F525
:102ADD0083122E3CAE82AF83158115817858EEF2AC
:102AED0008EFF27840E2FF784004F2300748785A58
:102AFD00E4F27857E2B40110782BE2FE08E2FF7899
:102B0D006FEEF208EFF2800E782DE2FE08E2FF780C
:102B1D0071EEF208EFF27405C0E0E4C0E07420C07D
:102B2D00E090002575F060123341158115811581F6
:102B3D00D20B7840E4F220090122785AE4F27405B0
:102B4D00C0E0E4C0E07420C0E090002575F0601294
:102B5D003341158115811581D20B7840E4F222782D
:102B6D005AE2B4025A30094C122778785AE4F278B6
:102B7D0057E2C0E07402C0E090004375F0401225AA
:102B8D006E15811581741EC0E0744BC0E07480C059
:102B9D00E07495C0E0744AC0E07480C0E07425C054
:102BAD00E07400C0E07460C0E01231D2E58124F71A
:102BBD00F581D20B3007087846E2F58202185322D0
:102BCD001217DD78577401F2785AE4F204C0E074FC
:102BDD0003C0E090004975F04012256E15811581F6
:102BED0022AD82AE83AFF03006547857C3E2F5F0D4
:102BFD00740195F050277857E214F2C007C006C053
:102C0D00057857E2C0E07403C0E090004975F040CC
:102C1D0012256E15811581D005D006D007C007C0CD
:102C2D0006C00574ADC0E0744AC0E07480C0E01207
:102C3D0034BC158115811581D005D006D00730071C
:102C4D0057C007C006C00512175CD005D006D007C7
:102C5D005011C007C006C005121767D005D006D0A9
:102C6D000780147846E2F582C007C006C005121829
:102C7D0053D005D006D007C007C006C00574B9C033
:102C8D00E0744AC0E07480C0E01234BC1581158137
:102C9D001581D005D006D0073008517857E2B4031E
:102CAD000050287857E22401F2C007C006C005780D
:102CBD0057E2C0E07403C0E090004975F040122562
:102CCD006E15811581D005D006D007C007C006C08E
:102CDD000574C5C0E0744AC0E07480C0E01234BC15
:102CED00158115811581D005D006D00730093378AF
:102CFD0057E2FC1CEC2C2452F98782098783C0070C
:102D0D00C006C00512178974D1C0E0744AC0E074C2
:102D1D0080C0E01234BC158115811581D005D00617
:102D2D00D0077839E2542060427857E2B40300505E
:102D3D003A7857E22401F2C007C006C0057857E281
:102D4D00C0E07403C0E090004975F04012256E1587
:102D5D008115817857E2FC1CEC2C2452F9878209ED
:102D6D008783121789D005D006D0078D828E838F69
:042D7D00F002193F08
:104A3F00637572207461736B2074696D6563742D77
:104A4F002D2D696E69742025780D0A007569202552
:104A5F00752D3E25750D0A00657620666C61672001
:104A6F00257820455655544F2025780D0A0025737B
:104A7F00257300322E30005F366263386464322053
:104A8F00636C65616E0025730032313A31343A3010
:104A9F0030004170722032372032303230006B6577
:104AAF00792041312075700D0A006B6579204132F4
:104ABF002075700D0A006B65792041332075700DDC
:104ACF000A006B65792041342075700D0A00257539
:104ADF000025640054696D656F7574006B657920EE
:104AEF0041312075702025750D0A006B65792041C5
:104AFF00332075702025750D0A006B6D2F68006DC2
:044B0F00006B6D00CA
:102D81005B4B8060267E260000FFFF00210AFFFFCB
:102D9100FFFFFFFF0000604B809D1A361B0000FF04
:102DA100FF000021FFFEFF0302FF0000684B80E9E6
:102DB1001BA61C00002C0105101BFFFEFFFFFFFFDF
:102DC1007F086F4B80C11D491E151EFFFF00211B8F
:102DD100FF00FF0402FF00007B4B80F61D3F19122C
:102DE1001EFEFF05101BFFFEFFFFFF039A07814B2D
:102DF10080AA23C6230000FF7F01101BFFFEFFFFF7
:102E0100FFFF0000854B803B27C1270000FFFF002B
:102E1100210AFFFFFFFFFFFF00008F4B80CD2BEE4C
:102E21002B0000FFFF00210AFFFEFFFFFFFF000054
:104B1300536176653F0025303575005361766564D2
:104B23000074696D65722063616C00776865656CFC
:104B33002063616C005368616F4C696E5368690050
:104B43005869616E674C69616E00486170707942A3
:104B530069727468446179004D656E7500566572BB
:104B630073696F6E0035206D696E73005365742031
:104B730074696D656F75740054696D6572004C439B
:104B83004A0043616C692064617461004D75736907
:024B93006300BD
:0D004100758158122FF0E582600302003E29
:102E3100A8811818C6B2E7C6023061E58124FEF800
:102E4100E6F918E6F87A10E4FBFCE58225E0F58264
:102E5100E58333F583EB33FBEC33FCEB98F5F0ECD6
:102E6100994006FCABF0438201DADF22C05885812C
:102E710058C082C083C0F0058105810581E55824D1
:102E8100FBF88602088603088604A85808E558243A
:102E910004F9E6F70809E6F70809E6F78A828B8361
:102EA1008CF01235EAFFA3AA82AB83E5582404F81B
:102EB10086820886830886F0EF122FF4A31818A6DD
:102EC1008208A683EF70D5A85808868208868308F1
:102ED10086F0855881D05822122F7CBC0003023421
:102EE10050EF60FA30D502B2D1E583B4FF0302346A
:102EF10066E582B4FF0302346625834007248240DD
:102F01000B0234502483145003023466F582EA8D97
:102F1100F0A4A8F0EA8EF0A428F8E435F0F9EB8DDE
:102F2100F0A428E935F0F9E433CA8FF0A429F9EACD
:102F310035F0FAEBF88EF0A429F9EA35F0FAE4332A
:102F4100FBEC8DF0A429F9EA35F0FAE43BFBE88FBC
:102F5100F0A42AFAEB35F0FBE433CCFD8EF0A42A81
:102F6100FAEB35F0FBE43CFCED8FF0A42BFBEC35E8
:102F7100F0FC20E703122FAA02342FAA82AB83A20E
:102F8100F73392D1F5826002D2F7ACF0E58124F9F2
:102F9100F8E6FD08E6FE0886F008E6A2F73392D5CA
:092FA100F5836002D2F7AFF022C3
:06007000E478FFF6D8FD64
:102FAA007804EC7011E58224F8500AF582E4C9CA63
:102FBA00CBFCD8EF22EC7820058220E713D58201DA
:102FCA0022C3E933F9EA33FAEB33FBEC33FCD8EAF0
:032FDA001582223B
:10004E007900E94400601B7A00904BA0780175A0FE
:10005E0000E493F2A308B8000205A0D9F4DAF27511
:02006E00A0FFF1
:102FDD00FCABF0AA83A982749EC2D1F582122FAAEE
:102FED0002342F7582002220F71130F6138883A842
:102FFD008220F509F6A8837583002280FEF280F504
:10300D00F022FFA88118181230D8D2D133E640072C
:10301D0030E70B7582002220E70675820122C2D1AE
:10302D001230BAE97003F5822220D101B3E433F5F1
:10303D00822274FE2581F8E68582F0A4C0E08582A7
:10304D00F018E6A4F582D0E025F0C58386F0A4251E
:10305D0083F58322122F7C7900E583B58202800DE2
:10306D0050031234F5E583C39582123680E5D0C442
:10307D0065D020E117EA2DFAEB3EFBEC3FFC500941
:10308D007401123680EC4480FC02342FC3EA9DFAA1
:10309D00EB9EFBEC9FFC500FC3E499F9E49AFAE424
:0D30AD009BFBE49CFCB2D1122FAA02342F31
:100076007872E84400600A790175A000E4F309D8B3
:10008600FC7800E84400600C7900900001E4F0A3DD
:04009600D8FCD9FABF
:1030BA007901AA82E68F82B5821318E6B5F00E1856
:1030CA00E6B5830918E68A82B58202790022B480BD
:1030DA000FE5F0700AE5837006E58270027F00EF63
:1030EA00B6801518B6001018B6000B18B6000608F8
:1030FA00080876002208080822C058858158C0822C
:10310A00058105810581E55824FBF8A9580909E6D6
:10311A00F70809E6F70809E6F7A8580808868208B2
:10312A0086830886F01235EAFAA31235EAFBA3125F
:10313A0035EAFF74012AFCE43BFD8F06A85808080B
:10314A0086820886830886F0EC122FF4A3ED122FEC
:10315A00F4A3EE122FF48A828B838FF0A85808E624
:10316A00122FF4855881D05822C058858158C082C0
:10317A00C083C0F0AF580F7E007D40E55824FAF8AE
:10318A00E6C0E0E55824FBF8E6C0E008E6C0E0083F
:10319A00E6C0E0C007C006C005903103123835AE5C
:1031AA0082AF83E58124F9F581A858088603088649
:1031BA00040886058B828C838DF0E4122FF48E82AC
:1031CA008F83855881D05822C058E581F55824F854
:1031DA00FFE55824FBFE7D007C40C007E55824F833
:1031EA00F8E6C0E008E6C0E008E6C0E0C006C005B0
:1031FA00C004903103123835AE82AF83E58124F9D9
:10320A00F581E55824FBF886030886040886058BB1
:10321A00828C838DF0E4122FF48E828F83D0582211
:10322A00FBE58124FBF8E6F9087A20E4FCFDFEFFC1
:10323A00E5822582F582E58333F583E5F033F5F0FF
:10324A00EB33FB4017DAE98042E5822582F582E515
:10325A008333F583E5F033F5F0EB33FBEC33FCED28
:10326A0033FDEE33FEEF33FFEC99ED96EE0896EF61
:10327A00089618184013EC99FCED96FDEE0896FE98
:10328A00EF0896FF1818438201DABEEB227F8E12EE
:10329A0048DFF58385F08222E4AC83AB82FAF974C5
:1032AA008E022FE6C058E581F5582408F581AD82D3
:1032BA00AE83AFF0E5582406F8A60508A60608A6C8
:1032CA0007E55824FBF8A95809E6F70809E6F708BC
:1032DA0009E6F7E55824F9F8E5582404F9E6F70869
:1032EA0009E6F7E5582404F88603088604E5582415
:1032FA0004F816B6FF020816EB4C6028A858088690
:10330A00820886830886F01235EAFCA31818A6827A
:10331A0008A6838D828E838FF0EC122FF4A3AD82E0
:10332A00AE8380BFE5582406F8868208868308861D
:10333A00F0855881D05822C058858158C082C083F0
:10334A00C0F005810581A858088602088603088608
:10335A0004E55824FBF8E5582404F9E6F70809E6D9
:10336A00F7E5582404F88606088607E5582404F881
:10337A0016B6FF020816EE4F60168A828B838CF00F
:10338A00E55824FDF8E6122FF4A3AA82AB8380D174
:10339A00A8580886820886830886F0855881D058FE
:1033AA0022C058858158C082C083C0F0058105813A
:1033BA000581A8580886020886030886048A828B33
:1033CA00838CF01235EA60070ABA00F10B80EEE549
:1033DA005824FBF88605088606088607E55824045B
:1033EA00F8A60208A60308A6048D828E838FF0121F
:1033FA0035EAFCA3AD82AE83E5582404F886820838
:10340A0086830886F0EC122FF4A31818A68208A661
:10341A0083EC70D5A8580886820886830886F085CA
:10342A005881D05822B98003EA13B34010EA240124
:10343A00FAE43BFBE43CFC50047C800582BC000EB1
:10344A00BB000BBA0008E4F5F0F583F58222A2D19D
:10345A00E582138CF092F78B838A8222E4F583F556
:10346A008275F080F4A2D11322E4F583F58275F017
:10347A00C0747F22C0588581587E008E83120B7CCF
:10348A00D05822C058858158AD82AE83AFF0E55836
:10349A0024FDF8E6C0E0C005C006C007E4C0E0C0ED
:1034AA00E0C0E090347E123835E58124F9F581D008
:1034BA005822C058E581F55824FBFFC007E5582477
:1034CA00FBF8E6C0E008E6C0E008E6C0E0E4C0E0D9
:1034DA00C0E0C0E090347E123835AE82AF83E58119
:1034EA0024F9F5818E828F83D05822E582C583F52F
:1034FA0082A2D133A2D592D11392D5ECCFFCEBCED6
:10350A00FBEACDFA22AA82AB831235EA6003A380D2
:10351A00F8C3E5829AF582E5839BF58322122F7C14
:10352A0030D502B2D1BF0009BC00030234730234A1
:10353A0066BC0003023450E583B4FF0BE582B4FF96
:10354A0003023473023450E582B4FF03023466C3C3
:10355A0095835007247F400B023450248014500373
:10356A00023466F582C3ED9AEE9BEF9C40111582F8
:10357A00C3EA33F9EB33FAEC33FBE433FC8005E4BA
:10358A00CCCBCAF9C08275F019C3E99DEA9EEB9FBC
:10359A00EC9400D5F002802D400EE99DF9EA9EFADE
:1035AA00EB9FFBEC9400FCC3B3E833F8E58233F5F8
:1035BA0082E58333F583C3E933F9EA33FAEB33FB64
:1035CA00EC33FC80C4B3E4F938FAE43582FBE43521
:1035DA0083FCD082500405827C80122FAA023447D1
:1035EA0020F71430F6148883A88220F507E6A8830A
:1035FA0075830022E280F7E49322E022C2D5E583B4
:10360A0030E70DD2D5E4C39582F582E49583F5833C
:10361A00E58124FEF8E630E70918E4C396F6E408E3
:10362A0096F686011886001236CD30D50BE4C3957E
:10363A0082F582E49583F58322C2D5E58330E70DCE
:10364A00D2D5E4C39582F582E49583F583E5812496
:10365A00FEF8E630E70AB2D518E4C396F6E408960F
:10366A00F918E6F8122E4630D50BE4C39582F58296
:10367A00E49583F583226040F82582500274FFF5B1
:10368A0082E824F8501ECCCBCAF9E4CC24F85014B2
:10369A00CBCAF9E4CB24F8500BCAF9E4CA24F8508F
:1036AA000379002224086010F8C3EC13FCEB13FB27
:1036BA00EA13FAE913F9D8F122E58124FEF8860122
:1036CA00188600E84960367A01E825E0F8E93340CF
:1036DA000EF9E58298E5839940030A80ECC3E91361
:1036EA00F9E813F8C3E58298F5F0E583994005F502
:1036FA008385F082C3E913F9E813F8DAE722C058A0
:10370A00858158AF8274302FFF24C6501074072F5A
:10371A00FFE55824FDF8E6600474202FFFE55824DD
:10372A00F8F8E6C0E008E6C0E008E6C0E012373C78
:10373A00800FE55824FBF8E6C0E008E6C0E08F8277
:10374A0022158115811581D05822C058858158E5E6
:10375A0082FFC4540FFEC007E55824F8F8E6C0E01B
:10376A0008E6C0E008E6C0E0E55824FBF8E6C0E059
:10377A0008E6C0E0E55824FDF8E6C0E08E8212377C
:10378A0008E58124FAF581D00753070FE55824F894
:10379A00F8E6C0E008E6C0E008E6C0E0E55824FB29
:1037AA00F8E6C0E008E6C0E0E55824FDF8E6C0E027
:1037BA008F82123708E58124FAF581D05822C05841
:1037CA00858158A982870409870509870609870719
:1037DA00191919740429F87B20C003E626FAEF2385
:1037EA005401FBEA4203A603EC2CFCED33FDEE3355
:1037FA00FEEF33FFC000E55824FDF8C3EB96D00076
:10380A00D00340148602C000E55824FDF8EAC396A6
:10381A00FAD000A602430401EB14FB70BCA704090A
:10382A00A70509A70609A707D05822C058858158B5
:10383A00C082C083E5812423F581E558240CF8E48D
:10384A00F608F6E5582405F8E5582414F6E5582450
:10385A0020C8E5582412C82405F6E5582414F8248B
:10386A0004FAE5582403F9A702E5582404F9A70243
:10387A00E55824F8F987060987050987048E828D99
:10388A00838CF01235EAFFE55824F8F974012EF713
:10389A00E43D09F709A704EFFE70030248CDBE25EF
:1038AA0002800302488FC210C211C212C213C2148C
:1038BA00C215C216C217E558241BF97700E5582429
:1038CA0006F9E4F709F7E558241CF977FF0977FFA9
:1038DA00E55824F8F9C000E5582408F8E7F609087D
:1038EA00E7F60908E7F6D000E5582408F9878209BF
:1038FA0087830987F0C000E558240BF81235EAF6E9
:10390A00A31919A78209A783E5582408F9E55824B9
:10391A00F8F8E7F60908E7F60908E7F6D000E558E7
:10392A00240BF9B72543C002C000E55824FBF9E788
:10393A00C0E009E7C0E009E7C0E01239498012A9EE
:10394A005809E7C0E009E7C0E0E558240BF9878287
:10395A0022158115811581D000D002E558240CF971
:10396A0007B70002090702387AE558240BF9B7307D
:10397A00005003023A34E558240BF9E724C65003F1
:10398A00023A34E558241CF9B7FF5909B7FF55C064
:10399A0002C000C022E5582406F9E7C0E009E7C0E2
:1039AA00E090000A12303FAB82AF8315811581D0B7
:1039BA0022D000D002E558240BF987057E00ED2BB2
:1039CA00FBEE3FFFE5582406F9EB24D0F7EF34FF6E
:1039DA0009F7E5582406F9E7094760030238F2D2E5
:1039EA00110238F2C002C000C022E558241CF9E7CF
:1039FA00C0E009E7C0E090000A12303FAE82AF8310
:103A0A0015811581D022D000D002E558240BF98700
:103A1A00047D00EC2EFEED3FFFE558241CF9EE2450
:103A2A00D0F7EF34FF09F70238F2E558240BF9B75B
:103A3A002E1DE558241CF9B7FF0609B7FF028003BB
:103A4A000238F2E558241CF9E4F709F70238F2E5DE
:103A5A0058240BF9B76100401CE558240BF9E724F8
:103A6A00854012E558240BF9E754DFF7E55824138B
:103A7A00F977018007E5582413F97700E558240BF4
:103A8A00F9B72003023B58E558240BF9B72B030278
:103A9A003B53E558240BF9B72D03023B4EE5582456
:103AAA000BF9B74203023B5DE558240BF9B7430310
:103ABA00023B67E558240BF9B744030240D3E558A3
:103ACA00240BF9B746030240FAE558240BF9B74824
:103ADA00030238F2E558240BF9B749030240D3E54B
:103AEA0058240BF9B74A030238F2E558240BF9B700
:103AFA004C028064E558240BF9B74F030240DFE516
:103B0A0058240BF9B75003023EA5E558240BF9B720
:103B1A005303023BD7E558240BF9B754030238F292
:103B2A00E558240BF9B755030240E8E558240BF988
:103B3A00B758030240F1E558240BF9B75A03023883
:103B4A00F20240FED2100238F2D2120238F2D21336
:103B5A000238F2D2150238F2D2160238F2301517AC
:103B6A00C000E55824F7F8E614F9E55824F7F8A652
:103B7A0001D00087068014E55824F7F9E724FEFDF2
:103B8A00E55824F7F9A7058D018706C002C000C0D1
:103B9A0022E55824FBF9E7C0E009E7C0E009E7C0DD
:103BAA00E0123BB0800DA95809E7C0E009E7C0E080
:103BBA008E8222158115811581D022D000D002E58E
:103BCA0058240CF907B700020907024162E5582494
:103BDA0014F9C000E55824F7F8E624FDFEE5582458
:103BEA00F7F8A606A8068604088605088606D00001
:103BFA00A70409A70509A70619198C828D838EF0D7
:103C0A00C002C001C000C02212350FC000C8E5586A
:103C1A002410C8A68208A683D000D022D000D001E2
:103C2A00D002C000E558241CF8B6FF0608B6FF0209
:103C3A008004D0008016E5582410F8C001E5582405
:103C4A001CF9E6F70809E6F7D001D00030100302A4
:103C5A003D2EC000E5582410F8C001E5582406F9A5
:103C6A00C3E69708E60997D001D0004003023D2E2B
:103C7A00C000E5582406F8C001E5582410F9E6C347
:103C8A0097FE08E60997FDE558240CF8E558240E36
:103C9A00F9E6F70809E6F7D001D0008E048D071E71
:103CAA00BEFF011DEC4F605AC006C005C002C0012C
:103CBA00C000C0228500F0E55824FBF8E6C0E00801
:103CCA00E6C0E008E6C0E0A8F0123CD88011850002
:103CDA00F0A85808E6C0E008E6C0E0758220221580
:103CEA008115811581D022D000D001D002D005D013
:103CFA0006C000E558240EF806B600020806D000F1
:103D0A008099C000E558240EF8C001E558240CF942
:103D1A00E6F70809E6F7D001E5582406F8A60608EA
:103D2A00A605D000C000E558241CF88604088607BA
:103D3A00E558240CF8C001E558240EF9E6F70809FD
:103D4A00E6F7D001D0008703098705098706191904
:103D5A008B828D838EF01235EAFBFE7003023DF0F2
:103D6A00C3E49C74808FF063F08095F050781CBC9B
:103D7A00FF011FC007C004C002C001C000C02285E5
:103D8A0000F0E55824FBF8E6C0E008E6C0E008E6E3
:103D9A00C0E0A8F0123DA380108500F0A85808E6FC
:103DAA00C0E008E6C0E08E8222158115811581D017
:103DBA0022D000D001D002D004D007C000E5582498
:103DCA000EF806B600020806D0008703098705091F
:103DDA00870619190BBB00010DA70309A70509A737
:103DEA00061919023D50E558240EF9C000E5582479
:103DFA000CF8E7F60908E7F6D00020100302416242
:103E0A00E5582410F9C000E5582406F8C3E79609D6
:103E1A00E70896D0004003024162E5582406F9C03B
:103E2A0000E5582410F8E7C396FE09E70896FFE56F
:103E3A0058240EF9E5582419F8E7F60908E7F6D0E8
:103E4A00008E048F051EBEFF011FEC4D7003024158
:103E5A0044C007C006C002C000C022E55824FBF9CE
:103E6A00E7C0E009E7C0E009E7C0E0123E7A800E49
:103E7A00A95809E7C0E009E7C0E075822022158148
:103E8A0015811581D022D000D002D006D007E5587E
:103E9A002419F907B70002090780A6E5582414F97E
:103EAA00C000E55824F7F8E624FDFDE55824F7F8A4
:103EBA00A605A8058603088604088605D000A70378
:103ECA0009A70409A7051919E5582414FE2402F9BB
:103EDA008707BF800040047D438014BF6000400410
:103EEA007D50800BBF400040047D4980027D58C050
:103EFA0006C005C002C000C022E55824FBF9E7C08D
:103F0A00E009E7C0E009E7C0E0123F18800DA958B0
:103F1A0009E7C0E009E7C0E08D8222158115811505
:103F2A0081D022D000D002D005D006E558240CF961
:103F3A00740127FCE40937FBC006C005C004C003AE
:103F4A00C002C000C022E55824FBF9E7C0E009E737
:103F5A00C0E009E7C0E0123F65800EA95809E7C032
:103F6A00E009E7C0E075823A22158115811581D0F2
:103F7A0022D000D002D003D004D005D0060CBC0059
:103F8A00010BC006C005C004C003C002C000C022A5
:103F9A00E55824FBF9E7C0E009E7C0E009E7C0E01B
:103FAA00123FAF800EA95809E7C0E009E7C0E075E3
:103FBA00823022158115811581D022D000D002D0FD
:103FCA0003D004D005D0060CBC00010BC006C00506
:103FDA00C004C003C002C000C022E55824FBF9E7B0
:103FEA00C0E009E7C0E009E7C0E0123FF9800EA986
:103FFA005809E7C0E009E7C0E07582782215811503
:10400A00811581D022D000D002D003D004D005D0AF
:10401A000674012CFCE43BFFBD49028052BD5002EC
:10402A00804DEE04F98705C007C004C002C000C075
:10403A0022E55824FBF9E7C0E009E7C0E009E7C038
:10404A00E0A95809E7C0E009E7C0E0E5582413F9F8
:10405A00E7C0E08D82123754E58124FAF581D02237
:10406A00D000D002D004D00774022CFCE43FFFE554
:10407A00582405F987018705C007C004C002C0009B
:10408A00C022E55824FBF9E7C0E009E7C0E009E7E8
:10409A00C0E0A95809E7C0E009E7C0E0E5582413E1
:1040AA00F9E7C0E08D82123754E58124FAF581D010
:1040BA0022D000D002D004D007E558240CF97402AB
:1040CA002CF7E43F09F7024162D214E558241BF9A0
:1040DA00770A024162E558241BF97708807AE55885
:1040EA00241BF9770A8071E558241BF97710806838
:1040FA00D2178064C002C000C022E55824FBF9E749
:10410A00C0E009E7C0E009E7C0E01241198012A93E
:10411A005809E7C0E009E7C0E0E558240BF98782AF
:10412A0022158115811581D022D000D002E55824AC
:10413A000CF907B700020907801EE5582419F9C0CF
:10414A0000E558240CF8E7F60908E7F6D000E55828
:10415A002406F9A70609A707201703024256E558BD
:10416A002414F9C000E55824F7F8E624FCFFE558C2
:10417A0024F7F8A607A8078604088605088606080D
:10418A008607A70409A70509A70609A70719191980
:10419A00E5582414F9779509774B0977801919E5B9
:1041AA0058240CF88604088603D000C000E5582479
:1041BA0008F8E7F609E708F609E708F61919E558CD
:1041CA002408F8740126FDE40836FE088607A705C8
:1041DA0009A70609A7071919E5582408F8868208C5
:1041EA0086830886F01235EAFFD000EFFE700302DC
:1041FA00387AC004C003C002C001C0008500F0E5DF
:10420A005824FBF8E6C0E008E6C0E008E6C0E0A8EB
:10421A00F012422080108500F0A85808E6C0E00895
:10422A00E6C0E08E8222158115811581D000D00169
:10423A00D002D003D0040CBC00010BC000E5582406
:10424A000CF8A60408A603D0000241B5E558241BC1
:10425A00F9E7700302387AE5582412F9870730150E
:10426A0065C007E5582414F9C000E55824F7F8E6B4
:10427A0014FEE55824F7F8A606A8068606D0008E8E
:10428A00047D007E007F00A70409A70509A7060987
:10429A00A707191919D00730140302436DC00787FD
:1042AA00040987050987060987071919197D007EF8
:1042BA00007F00A70409A70509A70609A707191976
:1042CA0019D00702436D30163AC007E5582414F98D
:1042DA00C000E55824F7F8E624FCFEE55824F7F870
:1042EA00A606A8068604088605088606088607D054
:1042FA0000A70409A70509A70609A707191919D0CC
:10430A00078060C007E5582414F9C000E55824F76F
:10431A00F8E624FEFEE55824F7F8A606A806860560
:10432A00088606D000EEFC3395E0FEFFA70509A734
:10433A000409A70609A707191919D007201424C0C8
:10434A000787040987050987060987071919197E46
:10435A00007F00A70409A70509A70609A7071919D5
:10436A0019D00730144CC007E5582414F9870409FA
:10437A008705098706098707191919EFD00730E752
:10438A002FC00787040987050987060987071919AE
:10439A0019C3E49CFCE49DFDE49EFEE49FFFA70490
:1043AA0009A70509A70609A707191919D00780023D
:1043BA00C214D2158F01C000E5582410F8E4F6089B
:1043CA00F6D000E55824142404C000F87600D00082
:1043DA008805C002C001C000C0228500F0E558244B
:1043EA001BF8E6C0E08D821237C81581D022D000B2
:1043FA00D001D002201519C000E5582403F8860020
:10440A008605D000EDC4FDE7FC4205A70519800A20
:10441A00C000A8028605D000A705C000E5582410F0
:10442A00F806B600020806D000B21586030886040C
:10443A00088605088607181818EB4C4D4F708489B2
:10444A0007E5582410F9C000E558241EF8E7F609D4
:10445A0008E7F6D000E5582406F9E70947700AE5A7
:10446A00582406F9770109770030110302452B30E9
:10447A00100302452BE558240CF98704098703E544
:10448A00582406F9C000E5582410F8E7F60908E7A9
:10449A00F6D000C007E558241EF987070F8F067F5C
:1044AA0000E5582410F9C3EE97EF0997D007505347
:1044BA00C007C004C003C002C000C022E55824FBE4
:1044CA00F9E7C0E009E7C0E009E7C0E01244DB8091
:1044DA000EA95809E7C0E009E7C0E0758220221555
:1044EA008115811581D022D000D002D003D004D00A
:1044FA00070CBC00010BE5582410F917B7FF020995
:10450A00178090E558240CF9A70409A703E5582455
:10451A0010F9C000E5582406F8E7F60908E7F6D0CE
:10452A0000301452C007C002C000C022E55824FB64
:10453A00F9E7C0E009E7C0E009E7C0E012454B80AF
:10454A000EA95809E7C0E009E7C0E075822D2215D7
:10455A008115811581D022D000D002D007E55824D8
:10456A000CF907B700020907E5582406F917B7FF3F
:10457A00020917024633E558241EF9E70947700372
:10458A00024633301251C007C002C000C022E558AB
:10459A0024FBF9E7C0E009E7C0E009E7C0E01245FB
:1045AA00AD800EA95809E7C0E009E7C0E075822B83
:1045BA0022158115811581D022D000D002D007E5BD
:1045CA0058240CF907B700020907E5582406F91719
:1045DA00B7FF020917805230134FC007C002C0004C
:1045EA00C022E55824FBF9E7C0E009E7C0E009E783
:1045FA00C0E0124601800EA95809E7C0E009E7C0E9
:10460A00E075822022158115811581D022D000D033
:10461A0002D007E558240CF907B700020907E55844
:10462A002406F917B7FF0209173010030246CEE530
:10463A0058240CF9C000E5582410F8E7F60908E7F1
:10464A00F6D000E5582406F98703098704C0078BCA
:10465A00068C071BBBFF011CE558241EF9C3E79E05
:10466A0009E79FD00740030247173011067D307EC5
:10467A000080047D207E00C007C004C003C002C0C1
:10468A0000C022E55824FBF9E7C0E009E7C0E009C9
:10469A00E7C0E01246A2800DA95809E7C0E009E781
:1046AA00C0E08D8222158115811581D022D000D0DB
:1046BA0002D003D004D007E5582410F907B7000246
:1046CA0009078089E5582406F9C000E558241EF830
:1046DA00C3E69708E60997D0005027E5582406F95B
:1046EA00C000E558241EF8E7C396C0E009E708961B
:1046FA00C0E0E558240FF9D0E0F719D0E0F7D00070
:10470A008029E558240EF9E4F709F7801EE55824B4
:10471A0010F9C000E558240CF8E7F60908E7F6D0C6
:10472A0000E558240EF9A70309A7048F01C000E584
:10473A0058240CF88604088607E558241EF8C00198
:10474A00E5582410F9E6F70809E6F7D001D000C0C9
:10475A0000E5582410F88603088606E5582410F860
:10476A0016B6FF020816D000EB4E7003024801B2DB
:10477A001520151009E7C4540FFEC000A802A606AA
:10478A00D000800C8706740F5EC000A802F6D00025
:10479A00C000E5582404F886008606D000C007C089
:1047AA0004C002C001C000C0228500F0E55824FB05
:1047BA00F8E6C0E008E6C0E008E6C0E0A8F0850038
:1047CA00F0A85808E6C0E008E6C0E0A8F08500F0C6
:1047DA00E5582413F8E6C0E08E82123708E58124F2
:1047EA00FAF581D022D000D001D002D004D0070C33
:1047FA00BC00010F024759E558240CF9A70409A780
:10480A000720100302387AE5582419F9A70409A7E2
:10481A0007E558240EF987040987058C038D071CC0
:10482A00BCFF011DEB4F700302387AC005C004C0FB
:10483A0002C000E55824FBF9E7C0E009E7C0E00937
:10484A00E7C0E0124852800EA95809E7C0E009E71C
:10485A00C0E075822022158115811581D000D00211
:10486A00D004D005E5582419F907B700020907E56D
:10487A00582419F9C000E558240CF8E7F60908E7A6
:10488A00F6D0008096C002C000E55824FBF9E7C0C4
:10489A00E009E7C0E009E7C0E01248A8800DA9587E
:1048AA0009E7C0E009E7C0E08E822215811581156B
:1048BA0081D000D002E558240CF907B70002090795
:1048CA0002387AE558240CF886820886838558814E
:0348DA00D0582291
:0B4B95003C4E4F20464C4F41543E0068
:1048DD007F9E12490430D103023450C3EF958250AC
:1048ED000974FFF5F0F583F582227900123680897F
:1048FD00828A838BF0EC22AA82AB83A2F73392D10A
:09490D00F5826002D2F7ACF02241
:00000001FF
