:040000000200413287
:03000B00020AF8EE
:03001300020AEBF3
:01001B0032B2
:0100230032AA
:01002B0032A2
:01003300329A
:03003B00020AE0D6
:0302860002003E35
:03003E0002028932
:100289001209B21219967E007F00C3EE9407EF643B
:1002990080948050F1EE2EFCEF33FDEC2408F582BA
:1002A900ED3451F583E493FAA3E493FBEC2408FCC1
:1002B900ED3451F97D80C007C006C003C0021202A7
:1002C900CC800BC002C0038C8289838DF022D002BE
:0D02D900D003D006D0070EBE00B00F80ADE0
:0E5108006410901088135A15C415DF121E197A
:1002E60022AF82C2C4C2C6D2C575A0FFD2C485A041
:1002F60082C0071202E6AE82D0075306807D00C296
:10030600C4EE4D70E4C2C5D2C68F821202E6858263
:10031600A0D2C4C2C422AF82C2C4C2C6D2C575A00E
:10032600FFD2C485A082C0071202E6AE82D0075370
:1003360006807D00C2C4EE4D70E4C2C58F821202F3
:10034600E68582A0D2C4C2C422C2C4C2C6D2C575C2
:10035600A0FFD2C485A0821202E6AF82530780C2F4
:10036600C4EF70EBD2C6D2C485A0821202E6C2C424
:1003760022C2C4C2C6D2C575A0FFD2C485A082124D
:1003860002E6C2C422AE82AF83C3E49E74808FF0BD
:1003960063F08095F0501C7C207D0300EC24FFFA6E
:1003A600ED34FFFB8A048B05EA4B70EF1EBEFF019E
:1003B6001F80D6227F058F061FEE6040C0071203FE
:1003C60077AE828E047D00C006C004C005741DC0D1
:1003D600E07451C0E07480C0E0123C3EE58124FB2D
:1003E600F581D006D007BE80028003BE5102D3221B
:1003F600900064C00712038BD00780BAC322120391
:10040600BA400122C2C4C2C6C2C57D167E517F80D3
:100416007C008D828E838FF0123D6CFBA3AD82AE85
:10042600838B82C007C006C005C0041202E685821F
:10043600A0D2C490000412038BD004D005D006D0FD
:1004460007C2C40CBC040040C98D828E838FF01293
:100456003D6CFC0DBD00010E8C82C007C006C005B8
:1004660012031CD005D006D0078D828E838FF01222
:100476003D6CFC0DBD00010E8C82C007C006C00598
:1004860012031CD005D006D0078D828E838FF01202
:100496003D6CF58212031CD322C02C85812C05816C
:1004A60005810581AD82AE83AFF0C007C006C005E9
:1004B60012037775828012031CD005D006D0078DF3
:1004C600028E038F04A82C08A60508A60608A60710
:1004D6007F108F061FEE6059A82C08868208868337
:1004E6000886F0123D6CFEBE0A070ABA00430B806E
:1004F60040EE7010A82C0886820886830886F07461
:1005060020123776A82C0886820886830886F01281
:100516003D6CFEA31818A68208A6838E82C0071219
:1005260002E7D007A82C08860208860308860480FE
:10053600A17582C0C004C003C00212031CD002D041
:1005460003D0048A058B068C077C108C031CEB6099
:100556003C8D828E838FF0123D6C700B8D828E8364
:100566008FF074201237768D828E838FF0123D6C59
:10057600FBA3AD82AE838B82C007C006C005C00454
:100586001202E7D004D005D006D00780BE852C81A4
:10059600D02C22E582FF30E72475820FC0071203B4
:1005A6001CD00753071FBF1000500A8F0674802EF9
:1005B600F58202031C74B02FF58202031C75820CAF
:0305C60002031C11
:105116003030303801060C6C63647374737264202B
:06512600253032780A007A
:10009A007801E4F27802F208F27804F208F208F23F
:1000AA0008F27808F208F2780AF208F2780CF27884
:0400BA000DF208F249
:1005C900AF82C218EF30E706C3E49FFFD218BF0815
:1005D900027F0CBF09027F16C3EF6480948850081C
:1005E900EF75F00AA4FE04FFEF3395E0FEC007C0E3
:1005F90006C023740AC0E0E4C0E08F828E83123DF6
:10060900F8AC8215811581D023D006D007EC75F09E
:100619000CA4FCC004C023740AC0E0E4C0E08F82CB
:100629008E83123E35AE8215811581D023D004EE1A
:100639002EFF1F1FEF2CFFC3EE6480948440011F1F
:070649003018010F8F82221F
:10512C001B1F5C1DB61B281AB0184E17FF15C31495
:10513C0098137F1275117A108E0FAE0EDB0D140DB5
:10514C00580CA70BFF0A610ACC093F09BB083D08A4
:10515C00C7075707EE068A062C06D30580053105CE
:10516C00E604A0045D041F04E303AB0377034503CB
:10517C001603EA02C0029802730250022F020F02B9
:10518C0005050606050508080707000005050606BF
:10519C000505090908080000050534342020080815
:1051AC000707060600002A2A202008080909080813
:1051BC00000000007F000000000000000000000064
:1051CC0000000000000000000000000000000000D3
:1051DC0000000000000000000000000000000000C3
:1051EC0000000000000000000000000000000000B3
:1051FC0000000000000000000000000000000000A3
:10520C000000000000000000000000000000000092
:10521C000000000000000000000000000000000082
:10522C000000000000000000000000000000000072
:10523C000000000000000000000000000000000062
:10524C00000000000000000005067C0808080608A5
:10525C0008080808080308070707060707070707D1
:10526C0007060302020203050505050602023C01BE
:10527C0001030506030505030506030505323C017C
:10528C0001010503030302030303030303323C017F
:10529C0001010502020201020202020305060606D2
:1052AC0006060603050101010302463C3C0002020E
:1052BC00030202463C32323232323205060C0C0CFE
:1052CC00060C0C0C0C0C0C200C0707070607070728
:1052DC000707070603020202030707070605050571
:1052EC0005050505060C0C0C060C0C0C0C0C0C2006
:1052FC000C07070706070707070707060302020242
:10530C0003050505050002023C7A010101010101BA
:10531C0005067B01010101010106030202020305DE
:10532C000505050002023C0101010101010101001A
:10533C0000020202023C3C010101010101010101D8
:10534C00010000000000007F7C03050508202016EA
:10535C000C060606060606060602040405070706E2
:10536C00050303030303030303050606082A2A2087
:10537C00081616161616161616060616160807061C
:10538C000508080808080808080808080808080894
:10539C0008030505082020160C0606060606060658
:1053AC0006020404050707060503030303030303AE
:1053BC0003050606082A2A200816161616161616AF
:1053CC001606161608077E08077D0607050505054F
:1053DC000505050503050508202016080606060622
:1053EC000606060602040405070706050303030365
:1053FC000303030303050606082A2A2008090909E2
:10540C00090909060607090908077E08077D06072A
:10541C0005050505050505050305050820200908F2
:10542C000606060606060606020404050707060518
:10543C00030303030303030303050606082A2A20B8
:10544C00087A090909090909060607090908077EE6
:10545C0008077D060508080808080808087B0909DC
:10546C0009090909090909060607060605050808B8
:10547C0008080808080808080000000000000305D8
:10548C0005082020160C060606060606060602046B
:10549C0004050707060503030303030303030506BB
:1054AC0006082A2A2008090909090909090906090F
:1054BC000908070706050808080808080808080866
:1054CC000808080808087F01010404050508087F7E
:1054DC007E32323C3C7C01010101010102020303DA
:1054EC0003463C4632323C3C3C3C3C3C3C3C3C3C29
:1054FC003C3C0101020203030303030305050606FA
:10550C000101020304040303030303030303030362
:10551C00030303030505060606060606050506062F
:10552C0006063C3C030302020202020201010202D3
:10553C000202030303033232323232323C3C46461F
:10554C00030303033C3C3C3C01010101010101014B
:10555C000101010101010000050505050606080809
:10556C0007070707060506060606060606060606CC
:10557C0006060606060600000505050506060808CB
:10558C0007070707060503030303030303030303CA
:10559C00030332323C3C010101010101020203030D
:1055AC0003463C4632323C3C3C3C3C3C3C3C3C3C68
:1055BC003C3C010102020303030303030505060639
:1055CC0001010203040403030303030303030303A2
:1055DC00030303030505060606060606050506066F
:1055EC0006063C3C03030202020202020101020213
:1055FC000202030303033232323232323C3C46465F
:10560C00030303033C3C7A3C3C0101010101010111
:10561C00010101010101010101010132323C3C7B1C
:10562C003C3C0101010101010101010101010101E8
:10563C0001010101030303033232323232323C3CAA
:10564C004646030303033C3C3C3C010101010101C0
:10565C000101010101010101464646464646464606
:10566C00030303033C3C3C3C3C3C010101010101B4
:10567C00010101010101010101010101010101010E
:10568C0001010101000000007D7F080708070807E1
:10569C0008077F7E08070605040302017D7F0800CA
:1056AC0000000800000008000000080000000800CE
:1056BC0000000800000008000000080000000800BE
:1056CC0000000800000008000000080000000800AE
:1056DC000000080000007F7E3C4601020304057DAB
:1056EC007C060606060505030201010204030303FA
:1056FC0003000203013C3C323C01010101010101A8
:10570C0001050505030605030201013C0132323295
:10571C00323C3C3C3C3232010203030303030303DF
:10572C0003050505030605030201013C0132323273
:10573C00320505057E05067D0503027E03027D010B
:10574C000101010101010102020201030302020134
:10575C0001020305050505060606060303050605F5
:10576C0005050505050505060606060505030200E3
:10577C0001020403030101000203013C3C323C7AA8
:10578C0001010101017E3C4601020304057D7B0100
:10579C0001010101010101050505030605030201D3
:1057AC00013C01323232323C3C3C3C32320102038D
:1057BC0003030303030303050505030605030201A5
:1057CC00013C0132323232050505060505030201A2
:1057DC00010101010101017B01010101060606061F
:1057EC000505030200010204030301010002030189
:1057FC003C3C323C010101010101010101010000AD
:10580C00323232320505050605050302010101019C
:07581C000101010101017F00
:1000BE00E4F524F525F526F527F528F529F52AF595
:1000CE002BC2017832746FF2087420F2783474C542
:0400DE00F208E4F24E
:10065000AE82AF838FC38EC475C78275C50175C660
:100660005A75C6A5C006C0077423C0E07458C0E020
:100670007480C0E0123C3EE58124FBF581AFC2AD41
:10068000C77E008F037C00C007C005C006C003C042
:1006900004742DC0E07458C0E07480C0E0123C3E89
:1006A000E58124F9F581D0078F8222C02C85812C29
:1006B000AE82AF83E52C24FDF886C28FC38EC4754D
:1006C000C78275C50275C65A75C6A5E52C24FDF806
:1006D00086047D00C004C005C006C0077443C0E0A6
:1006E0007458C0E07480C0E0123C3EE58124F9F506
:1006F00081D3D02C22AE82AF838FC38EC475C782C4
:1007000075C50375C65A75C6A5C006C0077453C023
:10071000E07458C0E07480C0E0123C3EE58124FBE8
:10072000F581D322C02C85812C05810581AE82AF55
:1007300083E52C24FCF8A92C09E6F70809E6F78ED6
:10074000828F83C007C006120650AD82D006D00744
:10075000BDFF02800F8E828F83C007C0061206F590
:10076000D006D0078E828F83A3C007C00612065022
:10077000AD82D006D007BDFF0280108E828F83A38A
:10078000C007C0061206F5D006D007AD2C0D7C00C0
:100790007B408D828C838BF0123D6CFAC007C006C3
:1007A000C005C004C003C0028E828F831206AB1541
:1007B00081D003D004D005D006D0070DBD00010CB8
:1007C0008D828C838BF0123D6CFD8E828F83A3C053
:1007D000051206AB1581D3852C81D02C22C02C8527
:1007E000812C05810581AE82AF83AD2C0D7C007B11
:1007F000408E828F83C007C006C005C004C00312AC
:100800000650AA82D003D004D005D006D0078D822E
:100810008C838BF0EA1237760DBD00010C8E828F2F
:1008200083A3C005C004C003120650AF82D003D01A
:1008300004D0058D828C838BF0EF123776A82C08BC
:100840008682088683852C81D02C227E007F0074CE
:10085000FC2F4059EE54077021C007C006C006C0E7
:10086000077460C0E07458C0E07480C0E0123C3E81
:10087000E58124FBF581D006D0078E828F83C007E7
:10088000C006120650AD827C00C005C0047468C06A
:10089000E07458C0E07480C0E0123C3EE58124FB67
:1008A000F581D006D0070EBE00A50F80A222AE8231
:1008B000AF838E048F051EBEFF011FEC4D70F32227
:1008C000AE82AF838E048F051EBEFF011FEC4D600C
:1008D000109004FFC007C0061208AED006D00780F3
:1008E000E3229000041207DDAE82AF83BEFF05BF96
:1008F000FF0280077832EEF208EFF290000612074E
:10090000DDAE82AF83BEFF04BFFF01227834EEF27A
:1009100008EFF222C02C85812CAE82AF83900004B8
:10092000C007C0061206F5D006D007C006C0079063
:10093000000412072415811581E52C24FCF8E6C07B
:10094000E008E6C0E090000612072415811581D06A
:100950002C2275C13F227587807598507589227544
:100960008DFD758BFDD28ED299758C05759CD775D2
:100970008E15D28CD2AAD28AD2AFD2A922AE82AFA1
:100980008310990280FB8E998E828F832275D98C79
:1009900075D80075E90075F90075EA5575FA0575A1
:1009A000DA4922AE875306107F00EE4FB401009261
:1009B0000022D2F085F023120ABED2F085F0231275
:1009C0000AC41209A312095675BB701204049201DD
:1009D00050337420C0E0E4C0E0746EC0E07458C0CE
:1009E000E07480C0E090001175F060123A30E5814B
:1009F00024FBF58190001175F06012049F9001F4C2
:100A00001208C08015748FC0E07458C0E07480C0B4
:100A1000E0123C3E15811581158175941012098DE7
:100A20001208E2020952C29322E58054E0FFE5B0C9
:100A300054044FF582227836E25404B4010022783F
:100A400036E25480B40100227836E25440B401000A
:100A5000227836E25420B4010022120A29E5827875
:100A600036F2227836E2B4E402D322C32243BC80B9
:100A70009000011208AE439D0475BC8290000112E3
:100A800008AE75BD0043BC0822E5BCA2E42253BCFD
:100A9000E7AEBD7F00EE2EFEEF33FFEE2EFEEF330E
:100AA000FFACBE7D00EE4204EF42058C828D835385
:100AB0009DFB53BC7F22A280B322A281B322A21845
:100AC000B3928022A218B3928122A21892DE20183B
:100AD00002D28422AE82AF838EEA8FFA22A2B322A0
:100AE000C2D875F90075E900B284328524288525BD
:100AF0002985262A85272B32C0E0C0D075D008ACC6
:100B000024AD25AE26AF2774012CF524E43DF52550
:0D0B1000E43EF526E43FF527D0D0D0E032DA
:10582300722025303478203D2000253032782069DD
:1058330061705F636F6E747220253032780D0A00D9
:10584300772025303478203D20253032780D0A002A
:10585300657261736520253034780D0A000D0A25C1
:105863003034783A00202530327800303132333406
:1058730035363738396162636465667E4023242593
:105883005E262A28295F2B7C2D3D5C004C43442057
:105893006465746563746564206661696C6564211D
:0358A3000D0A00EB
:1000E200C202C203C204C205C206C207C208C209D2
:1000F200C20AC20BC20CC20D783EE4F208F278408A
:10010200F27841F208F27843F27844F27845743892
:10011200F2087401F27847E4F208F27849F208F240
:10012200784BF208F208F2784EF208F27850F208B0
:0D013200F27852F208F208F27869F208F251
:100B1D00C02C85812CC082C083C0F0E581240DF5E9
:100B2D0081A82C08740326FAE40836FB0886048A8B
:100B3D00828B838CF0E52C2406F8123D6CF6A31203
:100B4D003D6C08F6A3123D6C08F6A3123D6C08F639
:100B5D00C004C003C002E52C2406F8E6C0E008E698
:100B6D00C0E008E6C0E008E6C0E090FF0075F07F49
:100B7D007447123791AF82E58124FCF581D002D004
:100B8D0003D004EF6037A82C088682088683088678
:100B9D00F0123D6CFDA3123D6CFEA3123D6CFF7473
:100BAD00A6C0E07458C0E07480C0E08D828E838F43
:100BBD00F01235EF158115811581020F7FC002C02E
:100BCD0003C004E52C2406F886820886830886F087
:100BDD0008E6C004C003C002123A19AE82AF83D03A
:100BED0002D003D004A82C0886820886830886F0DC
:100BFD00123D6CFBA3123D6CFCA3123D6CFDC007B6
:100C0D00C006C004C003C002C006C00774A9C0E07E
:100C1D007458C0E07480C0E0C003C004C005123930
:100C2D0054E58124F8F581D002D003D004A82C0816
:100C3D0086820886830886F0123D6CFBA3123D6CFC
:100C4D00FCA3123D6CFD8B828C838DF0C003C00222
:100C5D00123C91AC82D002D003D006D007E52C24F3
:100C6D0006F8A604A82C08E52C240AF9740726F723
:100C7D00E4083609F70809E6F7E52C240AF8868218
:100C8D000886830886F0123D6CFDE52C2406F8C31A
:100C9D00E69DD004D003D0024003020D91C002C0E6
:100CAD0003C004E52C2404F8A605087600A82C083A
:100CBD0086820886830886F0123D6CFAA3123D6C7D
:100CCD00FBA3123D6CFDC007C006C004C003C002EB
:100CDD00E52C2404F8E6C0E008E6C0E07430C0E07E
:100CED008A828B838DF0123AC3158115811581D0BF
:100CFD0002D003D004D006D007A82C08868208861F
:100D0D00830886F0123D6CFBA3123D6CFCA3123DD3
:100D1D006CFDE52C240AF886820886830886F0127D
:100D2D003D6CFAE52C240AF8EA2BF6E43C08F608AB
:100D3D00A605E52C2406F886027D00E52C240AF88C
:100D4D00E6C39AFA08E69DFD088604C007C006C0F2
:100D5D0004C003C002C006C00774A9C0E07458C027
:100D6D00E07480C0E0C002C005C004123954E581B2
:100D7D0024F8F581D002D003D004D006D007D004DA
:100D8D00D003D0028A828B838CF0E52C2406F812D6
:100D9D003D6CF6A3123D6C08F6A3123D6C08F6A34C
:100DAD00123D6C08F68E828F83123A24AC82AD838D
:100DBD00AEF0FFC004C005C006C007E52C2406F840
:100DCD0086820886830886F008E61235B3AC82ADBC
:100DDD0083AEF0FFE58124FCF581E4C0E0C0E07452
:100DED0080C0E0743FC0E08C828D838EF0EF1237AF
:100DFD00E3AC82AD83AEF0FFE58124FCF581E52CFB
:100E0D00240DF8A60408A60508A60608A607A82C12
:100E1D0008740826FAE40836FB0886078A828B8355
:100E2D008FF0123D6CFF8F061FEE6042C007E52C60
:100E3D00240DF8E6C0E008E6C0E008E6C0E008E6EC
:100E4D00C0E090000075F020744112365BAC82ADAD
:100E5D0083AEF0FBE58124FCF581D007E52C240D54
:100E6D00F8A60408A60508A60608A60380B8E52C72
:100E7D00240DF886820886830886F008E6123A1952
:100E8D00AE82AF83A82C0886820886830886F0126E
:100E9D003D6CFBA3123D6CFCA3123D6CFD8B828C53
:100EAD00838DF0C007C006123C91AC82D006D007EE
:100EBD00A82C0886820886830886F0123D6CFAA35A
:100ECD00123D6CFBA3123D6CFDEC2AFAE43BFBC01A
:100EDD0004C006C00774A9C0E07458C0E07480C097
:100EED00E0C002C003C005123954E58124F8F58134
:100EFD00D004A82C0886820886830886F0123D6CE3
:100F0D00FDA3123D6CFEA3123D6CFFEC2DFCE43EE7
:100F1D00FB8F028C828B838AF0742E123776A82C6D
:100F2D0008740926FDE40836FE0886078D828E8337
:100F3D008FF0123D6CFDA3123D6CFEA3123D6CFFB4
:100F4D00ED4E602EA82C0886820886830886F01246
:100F5D003D6CFAA3123D6CFBA3123D6CFCC005C0A9
:100F6D0006C0078A828B838CF0123B2D158115816B
:100F7D001581852C81D02C22C02C85812CC082C05E
:100F8D0083C0F0058105817410C0E0740EC0E0E5EA
:100F9D002C24FCF886820886831235BEAB82AC8386
:100FAD0015811581C004C003C003C004900E10123A
:100FBD0037C1AA82AF8315811581D003D004E52CEA
:100FCD0024FCF8E6C39AFA08E69FFFC007C004C0E8
:100FDD0003C002743CC0E0E4C0E08A828F83123506
:100FED00BEAD82AE8315811581E52C2404F8A605CE
:100FFD0008A606E52C2404F8E6C0E008E6C0E0905B
:10100D00003C1237C1AD82AE8315811581D002D05F
:10101D0003D004D007EAC39DFAEF9EFFC002C007BC
:10102D00E52C2404F8E6C0E008E6C0E0C003C004E7
:10103D0074ACC0E07458C0E07480C0E0A82C08E621
:10104D00C0E008E6C0E008E6C0E0123954E58124AE
:10105D00F4852C81D02C22787FE22405F9E3FE095A
:10106D00E3FF787FE2FB7C007D60C007C0061210B5
:10107D0080800BC006C0078B828C838DF022D0063A
:10108D00D00722120A5A120A6340087869E4F2085E
:10109D00F2804B300F487869E22401F208E2340007
:1010AD00F27869E2C0E008E2C0E074BBC0E07458B9
:1010BD00C0E07480C0E0123C3EE58124FBF58178F0
:1010CD0069C3E2F5F0746495F008E2F5F0E495F08B
:1010DD00500C783DE24440F27869E4F208F2120ACD
:1010ED00365019785DC3E294FF08E294FF504C78B6
:1010FD005DE22401F208E23400F2803F7865E2B44B
:10110D00FF0050067865E22401F27865C3E2F5F040
:10111D0074A095F050251006028018D20A785DE271
:10112D00FE08E2FF7855EEF208EFF2783DE2440159
:10113D00F28002C20A785DE4F208F2785DC3E2F54E
:10114D00F074A095F008E2F5F0E495F0500B200650
:10115D000A7865E4F2D2068002C206120A3F5019DF
:10116D00785FC3E294FF08E294FF504C785FE2246D
:10117D0001F208E23400F2803F7866E2B4FF0050DD
:10118D00067866E22401F27866C3E2F5F074A09564
:10119D00F050251007028018D20B785FE2FE08E2AE
:1011AD00FF7857EEF208EFF2783DE24402F280024A
:1011BD00C20B785FE4F208F2785FC3E2F5F074A039
:1011CD0095F008E2F5F0E495F0500B20070A7866EB
:1011DD00E4F2D2078002C207120A4850197861C39F
:1011ED00E294FF08E294FF504C7861E22401F2088A
:1011FD00E23400F2803F7867E2B4FF005006786772
:10120D00E22401F27867C3E2F5F074A095F0502561
:10121D001008028018D20C7861E2FE08E2FF7859BE
:10122D00EEF208EFF2783DE24404F28002C20C784F
:10123D0061E4F208F27861C3E2F5F074A095F0086C
:10124D00E2F5F0E495F0500B20080A7867E4F2D24D
:10125D00088002C208120A5150197863C3E294FF44
:10126D0008E294FF504C7863E22401F208E2340066
:10127D00F2803F7868E2B4FF0050067868E22401FE
:10128D00F27868C3E2F5F074A095F05025100902CC
:10129D008018D20D7863E2FE08E2FF785BEEF2086B
:1012AD00EFF2783DE24408F28002C20D7863E4F279
:1012BD0008F27863C3E2F5F074A095F008E2F5F05A
:1012CD00E495F0500A2009097868E4F2D20922C2A7
:1012DD000922787FE2240DF9E3FFBF2000400122AF
:1012ED0020020A200F0122120A6DD20222120A894F
:1012FD00400122120A8E123A24AC82AD83AEF0FF69
:10130D00C004C005C006C00790CCCD75F01C744557
:10131D00123CA9AC82AD83AEF0FFE58124FCF581D2
:10132D007837ECF208EDF208EEF208EFF2787FE292
:10133D00240DF9E32411FF7E007D607871EFF20832
:10134D00EEF208EDF278747937E3F20809E3F2086A
:10135D0009E3F20809E3F278787401F2787904F27E
:10136D00787A74CAF2087458F2087480F290007199
:10137D0075F060120B1DC202D20E22C02CE581F554
:10138D002C2404F581C20F7832E2FC08E2FD7E00C8
:10139D007F00C004C005C006C00785248285258353
:1013AD008526F0E5271239ACAC82AD83E58124FCAE
:1013BD00F5817841ECF208EDF2C005C004C004C01F
:1013CD00057832E2F58208E2F5831237C1AE82AFBD
:1013DD0083158115817B007A00A82C08E524C39E16
:1013ED00F6E5259F08F6E5269B08F6E5279A08F60B
:1013FD007832E22432F58208E23400F5837464C059
:10140D00E0E4C0E01235BEAE82AF83158115817B5D
:10141D00007A00C006C007C003C002A82C0886824F
:10142D000886830886F008E61239ACAA82AB83AE33
:10143D00F0FFE58124FCF581D004D0057843EAF274
:10144D00C2107840E2B502028002D210783EE2B5B9
:10145D00040808E2B50503021540D20F783BE2C03F
:10146D00E008E2C0E074CCC0E07458C0E07480C005
:10147D00E0123C3EE58124FBF581783BE2F5F00876
:10148D00E245F07003021540787FE2FF240BF9E38B
:10149D00FE20E40302154030051C783BE224FFF2E8
:1014AD0008E234FFF2783BE2F5F008E245F0700611
:1014BD00783DE24410F2E3FE30E078EE30E2097858
:1014CD003BE2FC08E2FD801B74092FF9E3FA09E306
:1014DD00FB783BD3E29AF4B3FAB308E29BF4FB8AB0
:1014ED00048B05EE30E12D740C2FF9E32411FE7BF6
:1014FD00007A60C004C00574A9C0E07458C0E074DF
:10150D0080C0E0C006C003C002123954E58124F842
:10151D00F581801D740C2FF9E32411FF7E007B6093
:10152D00C004C0058F828E838BF0120F8515811537
:10153D0081D20E7841E2FE08E2FF783EEEF208EF2E
:10154D00F27843E27840F2852C81D02C22300116BE
:10155D00300E1390001175F06012049F7844E2F57F
:10156D0082120599C20E227801E4F27804F208F293
:10157D0008F208F27802F208F2227802E2FE08E29E
:10158D004EB4010022C02C85812CAF827802E2FD81
:10159D0008E24D701E7801EFF27804E4F208F208CB
:1015AD00F208F27802E52C24FCF9E7F20809E7F2DB
:1015BD00D38001C3D02C22C02CE581F52C2408F555
:1015CD00817808E2FE08E2FF4E7003021703780CE3
:1015DD00E2FFBF01028003021703121587400302C9
:1015ED001703B204A20492F085F023120ABEA204DE
:1015FD00B3921892F085F023120AC47808E2FE081F
:10160D00E2FF780AE2FC08E2FD74012CFAE43DFBEE
:10161D00780AEAF208EBF2EC2EF582ED3FF583E461
:10162D0093FFBF7F41780C7403F2783DE24420F2C2
:10163D00C2F085F023120ABEC2F085F023120AC44F
:10164D0074DDC0E07458C0E07480C0E0123C3E15FB
:10165D008115811581C2F085F023120ACA900138D7
:10166D00121842021703BF7E157845E2F5F008E225
:10167D00C313C5F01318F2C5F008F2021703BF7DAE
:10168D000D7845E225E0F208E233F2021703BF7A46
:10169D001F780DE2FD08E2FEBDFF05BEFF0280567C
:1016AD00780AEDF208EEF2780D74FFF208F280463A
:1016BD00BF7B1E780AE2FD08E2FE780DEDF208EE22
:1016CD00F2780FE2FD08E2FE780AEDF208EEF28004
:1016DD0025BF7C10780AE2FD08E2FE780FEDF208D6
:1016ED00EEF280127845E2C0E008E2C0E08F82128F
:1016FD001592158115817802E2FE08E2FF4E700306
:10170D000218347804E2FA08E2FB08E2FC08E2FD74
:10171D00EA4B4C4D70587804E524F208E525F208A3
:10172D00E526F208E527F27801E2FF700BC2F0859D
:10173D00F023120ACA02183C8F821205C9E5827580
:10174D00F002A4242CF582745135F0F583E493FF57
:10175D00A3E493FED2F0C007C00685F023120ACA97
:10176D00D006D0078F828E83120AD402183CA82C83
:10177D0008E524C39AF6E5259B08F6E5269C08F6B0
:10178D00E5279D08F6E52C2405F8A60608A607080A
:10179D0076000876007832E22432F58208E23400D1
:1017AD00F5837464C0E0E4C0E01235BEAA82AB8359
:1017BD00158115817E007F00C002C003C006C007E1
:1017CD00E52C2405F886820886830886F008E61243
:1017DD003D88AC82AD83AEF0FFE58124FCF58174CC
:1017ED000AC0E0E4C0E0C0E0C0E08C828D838EF0E2
:1017FD00EF1239ACAC82AD83AEF0FFE58124FCF580
:10180D0081A82C08C3E69C08E69D08E69E08E69F85
:10181D00401D7802E4F208F212184E4012C2F08513
:10182D00F023120ACA8008C2F085F023120ACA8575
:10183D002C81D02C22AE82AF837845EEF208EFF2E8
:10184D0022780CE2FFBF0102D322C322780CE2FF03
:10185D00BF010DC2F085F023120ACA780C7402F292
:10186D0022780CE2FFBF0205780C7401F222C02C25
:10187D0085812CAE82AF837808EEF208EFF2780AFC
:10188D00E4F208F2780C04F2780D74FFF208F278A5
:10189D000FE4F208F2E52C24FCF8E60846700AE5A0
:1018AD002C24FCF87638087601E52C24FCF8868289
:1018BD00088683121842D02C22C02C85812CAE8232
:1018CD00AF837D00C3ED648094825042ED75F007C7
:1018DD00A4FC2447F9E3FA09E3FB19EA4B702CE564
:1018ED002C24FCF8E6F30908E6F3EC2447FC24026B
:1018FD00F9EEF309EFF374042CF9E52C24F9F8E66D
:10190D00F30908E6F30908E6F380030D80B6D02C41
:10191D002220030312095230106E7F00C3EF648042
:10192D0094825064EF75F007A42447F92402F8E27D
:10193D00FD08E2FE18ED4E604C1DBDFF011EEDF2DF
:10194D0008EEF218ED4E703DE3FD09E3FE19ED4E84
:10195D006033740429F8E2FA08E2FB08E2FC181877
:10196D00C007C006C005C00112197A800BC005C0A2
:10197D00068A828B838CF022D001D005D006D00749
:09198D00E4F309F3190F80942220
:1058A6006F6F00257500253032753A253032753A0E
:1058B60025303275006E6F6B6579646F776E2025C3
:1058C600750D0A0056007461736B2074696D65630B
:1058D600742025750D0A00706C617920656E640D63
:0258E6000A00B6
:10013F00C20EC20FC210C211C212786FE4F27870F1
:10014F0004F2787D743CF208E4F2787FF27880F262
:10015F0008F208F208F27884F208F208F208F2784E
:10016F0088F208F208F208F2789AF2789BF208F215
:10017F00789DF2789EF208F278A0F208F208F20861
:10018F00F278BBF208F208F290347793FDA3E49370
:10019F00FEA3E493FF78BEEDF208EEF208EFF290C3
:1001AF00348EE493FDA3E493FEA3E493FF78C1EDB3
:1001BF00F208EEF208EFF29034A5E493FDA3E49376
:1001CF00FEA3E493FF78C4EDF208EEF208EFF2908D
:1001DF0034BCE493FDA3E493FEA3E493FF78C7ED4F
:1001EF00F208EEF208EFF29034D3E493FDA3E49318
:1001FF00FEA3E493FF78CAEDF208EEF208EFF29057
:10020F0034EAE493FDA3E493FEA3E493FF78CDEDEA
:10021F00F208EEF208EFF2903501E493FDA3E493B8
:10022F00FEA3E493FF78D0EDF208EEF208EFF29020
:10023F003518E493FDA3E493FEA3E493FF78D3ED85
:10024F00F208EEF208EFF290352FE493FDA3E4935A
:10025F00FEA3E493FF78D6EDF208EEF208EFF290EA
:10026F003546E493FDA3E493FEA3E493FF78D9ED21
:07027F00F208EEF208EFF2B5
:101996007417C0E0E4C0E07460C0E07434C0E07462
:1019A60080C0E09000A475F060123A30E58124FB17
:1019B600F581787F74A4F278A7E2FE08E2FF787FCB
:1019C600E2FB7C007D60C007C0061219D5800BC003
:1019D60006C0078B828C838DF022D006D00722C0EA
:1019E6002C85812C058105810581AD82AE83AFF002
:1019F600A82C08A60508A60608A607A82C08740B96
:101A060026FAE40836FB0886048A828B838CF01259
:101A16003D6C30E504C2058002D2058A828B838C38
:101A2600F0123D6C30E310787DE2FE08E2FF783B71
:101A3600EEF208EFF28020A82C08740926FDE408CF
:101A460036FE0886078D828E838FF0783B123D6CBA
:101A5600F2A3123D6C08F2D212783BE2C0E008E233
:101A6600C0E074E8C0E07458C0E07480C0E0123C86
:101A76003EE58124FBF581783DE4F27421C0E0E483
:101A8600C0E0C0E090001175F060123AC3158115F0
:101A9600811581D20E7869E4F208F2C2F085F0234E
:101AA600120ABEC2F085F023120AC4852C81D02CFE
:101AB60022AF82787FE22407F9E3FD09E3FE4D6059
:101AC60024787FE2FA7B007C60C007C006C005125E
:101AD6001ADA800BC005C0068A828B838CF022D06E
:101AE60005D006D007786FE27870F2786FEFF2785B
:101AF6006FC2D575F017E230E704B2D5F404A4300E
:101B0600D50AF42401C5F0F43400C5F02460FD7450
:101B16003435F0FE7C80C0077417C0E0E4C0E0C036
:101B260005C006C0049000A475F060123A30E58145
:101B360024FBF581D007787F74A4F278A7E2FD082C
:101B4600E2FE4D6024787FE2FA7B007C60C007C02D
:101B560006C005121B5E800BC005C0068A828B83F9
:101B66008CF022D005D006D0077E007870E2FCE229
:101B76003395E0FDC007C006C004C0057404C0E08C
:101B86007459C0E07480C0E0123C3EE58124F9F54A
:101B96008122C2F085F023020ABEC2F085F023023C
:101BA6000AC4C02C85812CAF82BF012CD2F085F0EF
:101BB60023120ABEE4C0E0C0E0C0E07498C0E0743E
:101BC6001BC0E0E52C24FCF886820886831218C622
:101BD600E58124FBF581802AD2F085F023120AC420
:101BE600E4C0E0C0E0C0E074A0C0E0741BC0E0E563
:101BF6002C24FCF886820886831218C6E58124FB0D
:101C0600F581D02C22C02CE581F52C2416F581AD6A
:101C160082AE83AFF0E52C2413F8A60508A60608C5
:101C2600A607783DE2607212184E406D300B1174B3
:101C360032C0E0E4C0E0758232121592158115813A
:101C4600300D117432C0E0E4C0E0758205121592C1
:101C560015811581200A03300C117432C0E0E4C0EE
:101C6600E075820112159215811581E52C2413F871
:101C7600740B26FAE40836FB0886048A828B838C6A
:101C8600F0123D6CFA20E6117405C0E0E4C0E07580
:101C96008202121BA8158115817C00E52C2413F8FD
:101CA600A92C09740E26F7E4083609F70809E6F7A1
:101CB600A82C08E52C2407F9E6F70809E6F7080931
:101CC600E6F7E52C2413F8E52C240AF9740B26F71D
:101CD600E4083609F70809E6F7E52C2413F8E52C9D
:101CE6002410F9740926F7E4083609F70809E6F717
:101CF600A82C08E52C240DF9E6F70809E6F70809EB
:101D0600E6F7E52C2413F8E52C2404F9741526F7D8
:101D1600E4083609F70809E6F77B00C3EB6480940C
:101D2600874003021E5A8BF005F0E52C2416F87442
:101D360001800225E0D5F0FBF6783DE52C2416F966
:101D4600E2577003021E54C004A82C08EB26FAE4DE
:101D56000836FC0886078A828C838FF0123D6CFA5F
:101D6600D00420E727E52C2413F8740E26FDE4089A
:101D760036FE088607EC2DFDE43EFE8D828E838FAF
:101D8600F0123D6CF582121AB7021E7AE52C240772
:101D9600F8EB26FDE40836FE0886078D828E838FD3
:101DA600F0123D6CFDBDFE187870796FE2F5F0E338
:101DB600B5F002800B7870E2F582121AB7021E7A2D
:101DC600E52C240DF8EB26FDE40836FE0886078D83
:101DD600828E838FF0123D6CFDBDFD3DE52C240AFD
:101DE600F886820886830886F0123D6CFF30E31081
:101DF600787DE2FE08E2FF783BEEF208EFF280190A
:101E0600E52C2410F886820886830886F0793B1232
:101E16003D6CF3A3123D6C09F3E52C2416F8B610BD
:101E26002DE52C2404F886820886830886F0123D68
:101E36006CFEA3123D6CFF4E6014C003E4C0E0C00C
:101E4600E08E828F8312187B15811581D0030B8B50
:101E560004021D2130121912184E4014300F11744D
:101E660005C0E0E4C0E0758201121BA8158115814A
:101E7600783DE4F2852C81D02C221219E57419C024
:101E8600E07459C0E07480C0E07415C0E07459C0B5
:101E9600E07480C0E07410C0E07459C0E07480C083
:101EA600E07411C0E07400C0E07460C0E012395400
:101EB600E58124F4F581742BC0E07459C0E0748088
:101EC600C0E07428C0E07459C0E07480C0E074219A
:101ED600C0E07400C0E07460C0E0123954E58124AB
:101EE600F7F5817434C0E07459C0E07480C0E074C2
:101EF60028C0E07459C0E07480C0E07426C0E07465
:101F060000C0E07460C0E0123954E58124F7F58121
:101F1600D20E22021C0B123D6CF582021AB7AD825C
:101F2600AE83AFF08D028E038F04789A7401F28D22
:101F3600828E838FF0C004C003C0021219E574209C
:101F4600C0E0E4C0E0C0E090001175F060123AC352
:101F5600158115811581789AE2FE7F00C006C007BB
:101F66007440C0E07459C0E07480C0E0741DC0E0E5
:101F76007400C0E07460C0E0123954E58124F8F5BD
:101F860081D002D003D00474092AFDE43BFE8C07FD
:101F96008D828E838FF0123D6CFDA3123D6CFEC0C8
:101FA60004C003C002C005C00690001175F060129F
:101FB6000F8515811581D002D003D004D20E741579
:101FC6002AFAE43BFB8A828B838CF0123D6CFAA3DF
:101FD600123D6CFBE4C0E0C0E08A828B8312187B62
:101FE6001581158122AD82AE83AFF08D028E038FEF
:101FF60004783DE25410605674092AFAE43BFB8AE1
:10200600828B838CF0783B123D6CF2A3123D6C08F8
:10201600F2789AE22401F2789AE2FB7C00C007C0CB
:1020260006C005C003C0047440C0E07459C0E07423
:1020360080C0E0741DC0E07400C0E07460C0E012AF
:102046003954E58124F8F581D005D006D007783DCE
:10205600E254206037789AE2B40431789A7409F22F
:10206600C007C006C005749AC0E07400C0E0746082
:10207600C0E0741CC0E0741FC0E09003E81218C6EC
:10208600E58124FBF581D005D006D0078D828E83AD
:102096008FF0021C0B787DE2C0E008E2C0E07440DD
:1020A600C0E07459C0E07480C0E07421C0E07400E0
:1020B600C0E07460C0E0123954E58124F8F58178F7
:1020C6007DE2C0E008E2C0E090001175F060120FFA
:1020D6008515811581D20E221219E578997402F2BE
:1020E600D2117443C0E07459C0E07480C0E0741A21
:1020F600C0E07400C0E07460C0E0123954E5812489
:10210600FAF581789B7401F208E4F278447487F258
:102116007890743CF208E4F2789204F208E4F278DB
:10212600947410F208740EF278967403F27897039A
:10213600F278987487F202209B1219E5787DE2C046
:10214600E008E2C0E090001175F060120F8515817D
:102156001581D20E22021859AD82AE83AFF08D02E0
:102166008E038F04300C14B20574142AFAE43BFB78
:102176008A828B838CF074FF1237768D828E838FE2
:10218600F0021C0B7844E4F2223018587894E2FEF0
:1021960008E2FF789BE2B5060708E2B5070280026F
:1021A60080117892799BE2F308E209F378987944F2
:1021B600E2F3227890E2FE08E2FFC006C007789BB1
:1021C600E2F58208E2F5831237C1AE82AF8315814C
:1021D6001581789BEEF208EFF27896E2FF7844E2FA
:1021E600C39FF2227892E2FE08E2FF789BE2B506F0
:1021F6000708E2B50702800280117894799BE2F322
:1022060008E209F378977944E2F3227890E2FE082F
:10221600E2FFC006C007789BE2F58208E2F583126A
:1022260035BEAE82AF8315811581789BEEF208EF3D
:10223600F27896E2FF7844E22FF222AD82AE83AFC7
:10224600F03018468D828E838FF0123D6CFBA31200
:102256003D6CFCC005C006C00774FFC39BFA74FF43
:102266009CFF789BC3E29A08E29FD007D006D00570
:10227600504E789BE22BFB08E23CFC8D828E838FCE
:10228600F0EB123776A3EC0237768D828E838FF0D1
:10229600123D6CFBA3123D6CFC789BC3E29B08E2EB
:1022A6009C501D789BD3E29BF4B3FBB308E29CF4ED
:1022B600FC8D828E838FF0EB123776A3EC02377695
:1022C60022AD82AE83AFF0C2187899E2FC6008BCFA
:1022D60001028003022387300A527855C3E294A094
:1022E60008E2940F5046C007C006C005785DE2C0FC
:1022F600E008E2C0E0744BC0E07459C0E07480C0EE
:10230600E0123C3EE58124FBF581D005D006D007DE
:10231600C2F0C007C006C00585F0238D828E838F6C
:10232600F0122241D005D006D007D218300C5278D0
:1023360059C3E294A008E2940F5046C007C006C0F5
:10234600057861E2C0E008E2C0E0745AC0E0745962
:10235600C0E07480C0E0123C3EE58124FBF581D0EC
:1023660005D006D007D2F0C007C006C00585F02309
:102376008D828E838FF0122241D005D006D007D2EF
:10238600187899E2FC600FBC0103022448BC0203E2
:1023960002249302259C30061C300819300F16D2F1
:1023A600F0C007C006C00585F02312218FD005D0E6
:1023B60006D007D2187843E2FB7C00C007C006C0EF
:1023C60005C023740AC0E0E4C0E08B828C83123D12
:1023D600F8AB82AC8315811581D023D005D006D009
:1023E60007EB4C600302259C785DC3E2F5F074A010
:1023F60095F008E2F5F0740F95F0501CC2F0C00796
:10240600C006C00585F0238D828E838FF01222418F
:10241600D005D006D007D2187861C3E2F5F074A0D3
:1024260095F008E2F5F0740F95F0400302259CD272
:10243600F085F0238D828E838FF0122241D218020E
:10244600259C785DC3E2F5F074A095F008E2F5F0FE
:10245600740F95F0500D300F0AD2F085F02312213B
:102466008FD2187861C3E2F5F074A095F008E2F512
:10247600F0740F95F0400302259C200F0302259C63
:10248600C2F085F02312218FD21802259C300A371C
:102496007855C3E294A008E2940F502BC007C006FB
:1024A600C0057469C0E07459C0E07480C0E0123C95
:1024B6003E158115811581D2F085F02312218FD02A
:1024C60005D006D007D218300C3FC007C006C0059D
:1024D6007475C0E07459C0E07480C0E0123C3E15CB
:1024E6008115811581D005D006D007A21192F0C0C2
:1024F60007C006C00585F0238D828E838FF01222D9
:1025060041D005D006D007D218785DC3E2F5F07445
:10251600A095F008E2F5F0740F95F05023300F20E7
:10252600B211A21192F0C007C006C00585F0238D36
:10253600828E838FF0122241D005D006D007D218A2
:102546007861C3E2F5F074A095F008E2F5F0740F37
:1025560095F050427843E2FB7C00C007C006C005F8
:10256600C023740AC0E0E4C0E08B828C83123DF87D
:10257600AB82AC8315811581D023D005D006D00758
:10258600EB4C7012A21192F085F0238D828E838F10
:10259600F0122241D218A21822AD82AE83AFF0907B
:1025A600007D75F060C007C006C0051222C7D005C1
:1025B600D006D007500FC007C006C00512209BD01A
:1025C60005D006D0078D828E838FF0021C0B7821F2
:1025D600799AE2F378717411F2087400F208746063
:1025E600F278747980E3F20809E3F20809E3F20865
:1025F60009E3F278787402F2787914F2787A7481C1
:10260600F2087459F2087480F290007175F0601245
:102616000B1DE4C0E07424C0E07474C0E07449C0CB
:10262600E07884E2F58208E2F58308E2F5F008E254
:10263600123791AF82E58124FCF581EF60697871EC
:10264600741BF2087400F2087460F2E4C0E0C0E0A3
:10265600747AC0E07444C0E07884E2F58208E2F55A
:102666008308E2F5F008E2123CA9AC82AD83AEF035
:10267600FFE58124FCF5817874ECF208EDF208EEB2
:10268600F208EFF278787403F278797401F2787AC6
:102696007486F2087459F2087480F290007175F02D
:1026A60060120B1D0227AB7480C0E07496C0E07404
:1026B60018C0E0744BC0E07884E2F58208E2F58346
:1026C60008E2F5F008E2123791AF82E58124FCF5C5
:1026D60081EF60697871741BF2087400F208746007
:1026E600F2E4C0E07424C0E07474C0E07449C0E051
:1026F6007884E2F58208E2F58308E2F5F008E21252
:102706003CA9AC82AD83AEF0FFE58124FCF581786F
:1027160074ECF208EDF208EEF208EFF27878740144
:10272600F2787904F2787A7488F2087459F20874A7
:1027360080F290007175F060120B1D8068787174DC
:102746001BF2087400F2087460F2E4C0E07424C05E
:10275600E07474C0E07449C0E07884E2F58208E26F
:10276600F58308E2F5F008E2123CA9AC82AD83AE2F
:10277600F0FFE58124FCF5817874ECF208EDF208AF
:10278600EEF208EFF278787403F278797401F27851
:102796007A7488F2087459F2087480F290007175A0
:1027A600F060120B1D7821799AE3F222C02C858104
:1027B6002CAC82AD83AEF0FFE5812408F5817888E4
:1027C600A92C09D3E29CF4B3F7B308E29DF4B3094C
:1027D600F7B308E29EF4B309F7B308E29FF409F7EA
:1027E600A82C0879A0E6F30809E6F30809E6F30839
:1027F60009E6F37834E2F58208E2F583123A24AA70
:1028060082AB83AEF0FFC002C003C006C007900FC4
:10281600D075F0C9744012365BC8E52C2405C8A6ED
:102826008208A68308A6F008F6E58124FCF58178DF
:1028360032E2F58208E2F583123A24AA82AB83AE2D
:10284600F0FFC002C003C006C007E52C2405F886C9
:10285600820886830886F008E612365BAC82AD8372
:10286600AEF0FFE58124FCF581E4C0E0C0E0747AB7
:10287600C0E07444C0E08C828D838EF0EF123CA9D8
:10288600C8E52C2405C8A68208A68308A6F008F683
:10289600E58124FCF581A82C0886820886830886B3
:1028A600F008E612375FAA82AB83AEF0FFC002C023
:1028B60003C006C007E52C2405F88682088683082F
:1028C60086F008E6123CA9AC82AD83AEF0FFE58146
:1028D60024FCF581C004C005C006C0079000007541
:1028E600F061744512365BAC82AD83AEF0FFE581D4
:1028F60024FCF581E4C0E0C0E0747AC0E07444C012
:10290600E08C828D838EF0EF123CA9AC82AD83AE53
:10291600F0FFE58124FCF5817880ECF208EDF20801
:10292600EEF208EFF2852C81D02C221219E5788080
:10293600E4F208F208F208F27884F208F208F208E3
:10294600F21225D4D20E22C02C85812CC082C083DF
:10295600C0F07888E2B5281208E2B5290D08E2B57C
:102966002A0808E2B52B03022A907888E2F5F008D7
:10297600E242F008E242F008E245F07003022A5E05
:10298600852882852983852AF0E52B1227B2E4C0A3
:10299600E0C0E074C8C0E07442C0E07880E2F5822E
:1029A60008E2F58308E2F5F008E2123791AC82E519
:1029B6008124FCF581EC7003022A7D7880E2FA0816
:1029C600E2FB08E2FC08E2FF786BEAF208EBF208A9
:1029D600ECF208EFF27834E2F58208E2F583123A77
:1029E60024AC82AD83AEF0FFC004C005C006C007AC
:1029F600900FD075F0C9744012365BAC82AD83AED1
:102A0600F0FFE58124FCF581C004C005C006C007BF
:102A16007884E2F58208E2F58308E2F5F008E2122E
:102A260037E3AC82AD83AEF0FFE58124FCF5817817
:102A360084ECF208EDF208EEF208EFF21225D4D299
:102A46000EAC28AD29AE2AAF2B7888ECF208EDF251
:102A560008EEF208EFF2801FE5284529452A452BA6
:102A66006015AA28AB29AC2AAF2B7888EAF208EBC6
:102A7600F208ECF208EFF27405C0E0E4C0E07582FB
:102A860002121BA815811581805E300F5B8524829A
:102A96008525838526F0E5271227B2786BE2C0E00C
:102AA60008E2C0E008E2C0E008E2C0E07880E2F5B3
:102AB6008208E2F58308E2F5F008E2123791AF8268
:102AC600E58124FCF581EF601F1225D4D20E7880B3
:102AD600E2FC08E2FD08E2FE08E2FF786BECF20891
:102AE600EDF208EEF208EFF2A82C0886820886833B
:102AF6000886F0121C0B852C81D02C22C02C8581D7
:102B06002CAD82AE83AFF0E52C24FDF8E624F85018
:102B160007E52C24FDF876077C00E52C24FDF8C398
:102B2600EC96500AEC2411F8745FF20C80ECE52C5C
:102B360024FDF8E62411F87420F2E52C24FCF8E6CE
:102B4600FC14FB24F950027B06E52C24FCF8E62451
:102B5600F6506AC005C006C007EB2411F9E52C241F
:102B6600FCF886027F00C007C003C002C001740AD9
:102B7600C0E0E4C0E08A828F83123E35AD821581C3
:102B86001581D001D002D003D00774302DF38B0607
:102B9600EE042411F9C005C001740AC0E0E4C0E0E7
:102BA6008A828F83123DF8AE8215811581D001D0BD
:102BB6000574302EF3D007D006D0058008EB24111B
:102BC600F974302CF3C007C006C0057410C0E0E4E9
:102BD600C0E0C0E090002175F060123AC31581157F
:102BE600811581D005D006D007E52C24FCF8860394
:102BF6007C001BBBFF011CC007C006C005C003C08C
:102C0600049000031237C1AB82AC8315811581D0C5
:102C160005D006D007EB2DFDEC3EFE8D828E838F10
:102C2600F0123D6CFDA3123D6CFEA3123D6CFFC07D
:102C360005C006C0077428C0E07459C0E07480C09F
:102C4600E07421C0E07400C0E07460C0E012395442
:102C5600E58124F7F581D20ED02C22C02C85812C5B
:102C6600AD82AE83AFF0300A58789AC3E2F5F074BD
:102C76000195F0502B789AE214F2C007C006C00501
:102C8600789AE2C0E0E52C24FDF8E6C0E08D828E5D
:102C9600838FF0122B0215811581D005D006D0073F
:102CA600C007C006C0057469C0E07459C0E07480EE
:102CB600C0E0123C3E158115811581D005D006D0A5
:102CC60007300C41789AE52C24FDF9C3E297502091
:102CD600789AE22401F2789AE2C0E0E52C24FDF825
:102CE600E6C0E08D828E838FF0122B02158115814E
:102CF6007475C0E07459C0E07480C0E0123C3E15A3
:102D06008115811581D02C22AD82AE83AFF01000E3
:102D1600028006758208021AB78D828E838FF012A2
:102D260019E57870E2FF789AF2C007740AC0E0905D
:102D360000BE75F060122B021581158122121C0B44
:102D4600740AC0E09000BE75F060122C61158130E7
:102D56000D1D789AE2F582121AB7748BC0E0745989
:102D6600C0E07480C0E0123C3E15811581158122B9
:102D76001219E578997401F2789AF2789DE4F2785E
:102D860032E2FE08E2FF788CEEF208EFF27834E2E7
:102D9600FE08E2FF788EEEF208EFF27890740AF2FF
:102DA60008E4F2789204F208E4F278947410F208D7
:102DB6007427F278967401F27897749BF278987477
:102DC6009FF2789AE2C0E07402C0E090355D75F03B
:102DD60080122B021581158122AD82AE83AFF07869
:102DE6009DE26003022F5BC007C006C0057402C0E7
:102DF600E090355D75F080122C611581D005D00606
:102E0600D007200B03022EB3788C7932E2F5F0E37B
:102E1600B5F00B08E2F5F009E3B5F0028002801682
:102E2600788E7934E2F5F0E3B5F00B08E2F5F009B7
:102E3600E3B5F0028042789D7402F2C007C006C076
:102E4600057497C0E07459C0E07480C0E07428C06F
:102E5600E07459C0E07480C0E0742CC0E07400C017
:102E6600E07460C0E0123954E58124F7F581D0059D
:102E7600D006D007D20E80147870E2F582C007C063
:102E860006C005121AB7D005D006D007C007C0067F
:102E9600C005749DC0E07459C0E07480C0E0123C67
:102EA6003E158115811581D005D006D007200D036A
:102EB600023112789D7401F2789AE2B4010E78BB61
:102EC600748CF208E4F2087460F2800C78BB748E9D
:102ED600F208E4F2087460F278BBE2FA08E2FB0852
:102EE600E2FC8A828B838CF0123D6CFAA3123D6C55
:102EF600FBC007C006C005C002C00374A9C0E074C9
:102F060059C0E07480C0E0742CC0E07400C0E07466
:102F160060C0E0123954E58124F8F581D005D00669
:102F2600D0077844749FF2D20E789B7401F208E4BD
:102F3600F2C007C006C005748BC0E07459C0E074C7
:102F460080C0E0123C3E158115811581D005D00662
:102F5600D007023112789DE2B4010280030230608C
:102F660078BBE2F58208E2F58308E2F5F0C007C017
:102F760006C0051222C7D005D006D007504C78BB34
:102F8600E2FA08E2FB08E2FC8A828B838CF0123DAF
:102F96006CFAA3123D6CFBC007C006C005C002C098
:102FA6000374A9C0E07459C0E07480C0E0742CC0FA
:102FB600E07400C0E07460C0E0123954E58124F882
:102FC600F581D005D006D007D20E300B54789DE49B
:102FD600F2789AE2B401107832E2FB08E2FC788CCF
:102FE600EBF208ECF2800E7834E2FB08E2FC788E15
:102FF600EBF208ECF2C007C006C0057405C0E0E4B9
:10300600C0E07420C0E090002C75F060123AC31541
:103016008115811581D005D006D007D20E7844E4FB
:10302600F2200D03023112789DE4F2C007C006C0FB
:10303600057405C0E0E4C0E07420C0E090002C7583
:10304600F060123AC3158115811581D005D006D0DE
:1030560007D20E7844E4F2023112789DE2B40202FD
:103066008003023112200D030230FBC007C006C0E8
:1030760005788EE2C0E008E2C0E0788CE2F58208CE
:10308600E2F58312091415811581788CE2FB08E2BA
:10309600FC7832EBF208ECF2788EE2FB08E2FC7880
:1030A60034EBF208ECF2789DE4F2789AE2C0E07430
:1030B60002C0E090355D75F080122B0215811581F6
:1030C60074AEC0E07459C0E07480C0E07428C0E0FB
:1030D6007459C0E07480C0E0742CC0E07400C0E095
:1030E6007460C0E0123954E58124F7F581D005D02B
:1030F60006D007D20E300B147870E2F582C007C0F6
:1031060006C005121AB7D005D006D0078D828E8369
:103116008FF0021C0B1219E5789A7401F2789DE47F
:10312600F204C0E07405C0E090356375F080122BA0
:10313600021581158122AD82AE83E4C0E0C0E08D28
:10314600828E8312187B1581158122AD82AE83AFE4
:10315600F0C007C006C0057405C0E090356375F081
:1031660080122C611581D005D006D007300B55C0D2
:1031760007C006C00512184ED005D006D00750115C
:10318600C007C006C005121859D005D006D0078062
:1031960012758200C007C006C005121AB7D005D046
:1031A60006D007C007C006C005749DC0E07459C0AC
:1031B600E07480C0E0123C3E158115811581D00572
:1031C600D006D007300D62789AE2FC1CC2D575F0A5
:1031D60002EC30E704B2D5F404A430D50AF4240195
:1031E600C5F0F43400C5F02472F582743535F0F577
:1031F60083E493FBA3E493FCC007C006C005E4C0C8
:10320600E0C0E08B828C8312187B15811581748B4C
:10321600C0E07459C0E07480C0E0123C3E158115D0
:10322600811581D005D006D007783DE25420700381
:103236000232C5789AE2B4050040030232C5789A94
:10324600E22401F2C007C006C005789AE2C0E07425
:1032560005C0E090356375F080122B02158115814B
:10326600D005D006D007789AE2FC1CC2D575F002CC
:10327600EC30E704B2D5F404A430D50AF42401C531
:10328600F0F43400C5F02472F582743535F0F58318
:10329600E493FBA3E493FC7A80C007C006C005C094
:1032A60003C004C002743CC0E07431C0E090012C3D
:1032B6001218C6E58124FBF581D005D006D007C0DB
:1032C60007C006C00512184ED005D006D007500616
:1032D6007869E4F208F28D828E838FF0021C0B125D
:1032E60019E574B4C0E07459C0E07480C0E0900081
:1032F6001175F0601235EF15811581158174BEC008
:10330600E07459C0E07480C0E090002175F060124E
:1033160035EF158115811581D20E22AD82AE83AFB0
:10332600F0300D23D203C007C006C00574C7C0E045
:103336007459C0E07480C0E0123C3E1581158115B9
:1033460081D005D006D0078D828E838FF0021C0BAC
:103356001219E574DEC0E07459C0E07480C0E090D4
:10336600001175F0601235EF158115811581D20EA9
:1033760022AD82AE83AFF0783DE25420600FC007E5
:10338600C006C005120A26D005D006D007300B0F9E
:10339600C007C006C005121859D005D006D00730A0
:1033A6000F1DC007C006C0057464C0E0E4C0E07528
:1033B600820812159215811581D005D006D0078D89
:1033C600828E838FF0021C0B1219E5789A7401F233
:1033D600C0E0740BC0E090357C75F080122B0215AE
:1033E60081158122AD82AE83AFF0C007C006C0054D
:1033F600740BC0E090357C75F080122C611581D07D
:1034060005D006D007300B12758200C007C006C073
:1034160005121AB7D005D006D007300D34789AE2D7
:10342600FC1CC2D575F002EC30E704B2D5F404A456
:1034360030D50AF42401C5F0F43400C5F0249DF516
:1034460082743535F0F583787DE493F2A3E493082E
:0A345600F28D828E838FF0021C0BB2
:1058E800637572207461736B2074696D6563742DC0
:1058F8002D2D696E69742025780D0A00756920259B
:10590800752D3E25750D0A002573257300322E323C
:10591800005F6330333834383620636C65616E005D
:1059280025730031313A30303A3433004D617920F3
:10593800313020323032300025750054696D656F82
:105948007574006B65792041312075702025750DBF
:105958000A006B65792041332075702025750D0A82
:10596800006B65792041312075700D0A006B6579EF
:105978002041332075700D0A006B6D2F68006D0093
:035988006B6D0044
:10346000EE59800E2D432D0000000000210AFFFFC1
:10347000FFFFFFFF090000F35980241FEB1F00002E
:103480002C0115101BFF00FFFFFFFFFFD354FA595B
:1034900080CE33EA330000000000210AFF00FF0461
:1034A000FFFF0900000B5A80DE209F258A210000C3
:1034B00000211BFF00FF0402FF090000175A803F94
:1034C000215E215B2100003D101BFFFEFFFFFFFE80
:1034D0000954531D5A8031294D290000FF7F511096
:1034E0001BFF00FFFFFFFFFF0000215A801B31512F
:1034F000310000000000210AFFFFFFFFFFFF09006D
:1035000000275A80762DDF2D0000000000210AFFE1
:10351000FFFFFFFFFF090000315A80E53221330031
:1035200000010010211BFF00FFFFFFFD0996564020
:103530005A805633773300000A0017101BFFFEFF36
:10354000FFFFFFFF9F564A5A80801E191F00000090
:1035500000000021FF00FFFFFFFF090000525A801A
:033560005C5A8032
:10598B006B65792041342075700D0A005361766583
:10599B003F006B65792041322075700D0A00253070
:0959AB0035750053617665640056
:10356300665A80715A807B5A80895A80935A805454
:093573005254538C51DC54E35610
:1059B400576174636820446F67005761726E696E43
:1059C4006721007465737420776174636820646F61
:1059D400672072657365740D0A005077724F6666AE
:0A59E400436F756E74446F776E0018
:10357C00A25A80A55A80A95A80AF5A80B55A80BBEE
:10358C005A80C25A80C95A80D05A80D75A80DE5A83
:10359C008005001E003C0078002C0158028403B00A
:0735AC00040807100E201CAB
:1059EE004D656E750035206D696E7300507265647D
:1059FE006566696E65642074696D657200536574C1
:105A0E002074696D656F75740054696D6572004C14
:105A1E00434A004D757369630043616C692064618C
:105A2E00746100576174636820446F672057617218
:105A3E006E00506F776572204F6666005665727302
:105A4E00696F6E0074696D65722063616C007768B2
:105A5E0065656C2063616C005368616F4C696E53B1
:105A6E006869005869616E674C69616E00486170C3
:105A7E0070794269727468446179005869596F751A
:105A8E004A695F3100596F754A69616E436875697D
:105A9E0059616E003573003330730031206D696EBD
:105AAE000032206D696E0035206D696E0031302038
:105ABE006D696E003135206D696E003230206D6972
:105ACE006E003330206D696E003120686F75720084
:075ADE003220686F757200B1
:0D00410075812C123772E582600302003ECB
:1035B300A8811818C6B2E7C60237E3E58124FEF8EE
:1035C300E6F918E6F87A10E4FBFCE58225E0F582DB
:1035D300E58333F583EB33FBEC33FCEB98F5F0EC4D
:1035E300994006FCABF0438201DADF22C02C8581CF
:1035F3002CC082C083C0F0058105810581E52C24A0
:10360300FBF88602088603088604A82C08E52C2408
:1036130004F9E6F70809E6F70809E6F78A828B83D7
:103623008CF0123D6CFFA3AA82AB83E52C2404F833
:1036330086820886830886F0EF123776A31818A6C9
:103643008208A683EF70D5A82C0886820886830893
:1036530086F0852C81D02C221236FEBC0003023B5F
:10366300D2EF60FA30D502B2D1E583B4FF03023B57
:10367300E8E582B4FF03023BE82583400724824048
:103683000B023BD22483145003023BE8F582EA8DFC
:10369300F0A4A8F0EA8EF0A428F8E435F0F9EB8D55
:1036A300F0A428E935F0F9E433CA8FF0A429F9EA44
:1036B30035F0FAEBF88EF0A429F9EA35F0FAE433A1
:1036C300FBEC8DF0A429F9EA35F0FAE43BFBE88F33
:1036D300F0A42AFAEB35F0FBE433CCFD8EF0A42AF8
:1036E300FAEB35F0FBE43CFCED8FF0A42BFBEC355F
:1036F300F0FC20E70312372C023BB1AA82AB83A272
:10370300F73392D1F5826002D2F7ACF0E58124F968
:10371300F8E6FD08E6FE0886F008E6A2F73392D540
:09372300F5836002D2F7AFF02239
:06007000E478FFF6D8FD64
:10372C007804EC7011E58224F8500AF582E4C9CAD9
:10373C00CBFCD8EF22EC7820058220E713D5820150
:10374C0022C3E933F9EA33FAEB33FBEC33FCD8EA66
:03375C00158222B1
:10004E007900E94400601B7A00905AF0780175A09F
:10005E0000E493F2A308B8000205A0D9F4DAF27511
:02006E00A0FFF1
:10375F00FCABF0AA83A982749EC2D1F58212372CDA
:10376F00023BB17582002220F71130F6138883A82F
:10377F008220F509F6A8837583002280FEF280F57A
:10378F00F022FFA881181812385AD2D133E6400719
:10379F0030E70B7582002220E70675820122C2D125
:1037AF0012383CE97003F5822220D101B3E433F5DE
:1037BF00822274FE2581F8E68582F0A4C0E085821E
:1037CF00F018E6A4F582D0E025F0C58386F0A42595
:1037DF0083F583221236FE7900E583B58202800DD0
:1037EF005003123C77E583C39582123E72E5D0C435
:1037FF0065D020E117EA2DFAEB3EFBEC3FFC5009B8
:10380F007401123E72EC4480FC023BB1C3EA9DFA94
:10381F00EB9EFBEC9FFC500FC3E499F9E49AFAE49A
:0D382F009BFBE49CFCB2D112372C023BB194
:1000760078DBE84400600A790175A000E4F309D84A
:10008600FC7800E84400600C7900900001E4F0A3DD
:04009600D8FCD9FABF
:10383C007901AA82E68F82B5821318E6B5F00E18CC
:10384C00E6B5830918E68A82B58202790022B48033
:10385C000FE5F0700AE5837006E58270027F00EFD9
:10386C00B6801518B6001018B6000B18B60006086E
:10387C00080876002208080822C02C85812CC082FA
:10388C00058105810581E52C24FBF8A92C0909E6A5
:10389C00F70809E6F70809E6F7A82C080886820855
:1038AC0086830886F0123D6CFAA3123D6CFBA312C2
:1038BC003D6CFF74012AFCE43BFD8F06A82C080824
:1038CC0086820886830886F0EC123776A3ED1237D1
:1038DC0076A3EE1237768A828B838FF0A82C08E6BB
:1038EC00123776852C81D02C22C02C85812CC0825D
:1038FC00C083C0F0AF2C0F7E007D40E52C24FAF87D
:10390C00E6C0E0E52C24FBF8E6C0E008E6C0E008E1
:10391C00E6C0E0C007C006C005903885124027AE4F
:10392C0082AF83E58124F9F581A82C0886030886EB
:10393C00040886058B828C838DF0E41237768E8298
:10394C008F83852C81D02C22C02CE581F52C24F87A
:10395C00FFE52C24FBFE7D007C40C007E52C24F801
:10396C00F8E6C0E008E6C0E008E6C0E0C006C00526
:10397C00C004903885124027AE82AF83E58124F9CC
:10398C00F581E52C24FBF886030886040886058B54
:10399C00828C838DF0E41237768E828F83D02C222A
:1039AC00FBE58124FBF8E6F9087A20E4FCFDFEFF38
:1039BC00E5822582F582E58333F583E5F033F5F076
:1039CC00EB33FB4017DAE98042E5822582F582E58C
:1039DC008333F583E5F033F5F0EB33FBEC33FCED9F
:1039EC0033FDEE33FEEF33FFEC99ED96EE0896EFD8
:1039FC00089618184013EC99FCED96FDEE0896FE0F
:103A0C00EF0896FF1818438201DABEEB227F8E1264
:103A1C0050D1F58385F08222E4AC83AB82FAF97441
:103A2C008E023768C02CE581F52C2408F581AD8217
:103A3C00AE83AFF0E52C2406F8A60508A60608A66A
:103A4C0007E52C24FBF8A92C09E6F70809E6F7088A
:103A5C0009E6F7E52C24F9F8E52C2404F9E6F70837
:103A6C0009E6F7E52C2404F88603088604E52C24E3
:103A7C0004F816B6FF020816EB4C6028A82C088632
:103A8C00820886830886F0123D6CFCA31818A68267
:103A9C0008A6838D828E838FF0EC123776A3AD82CD
:103AAC00AE8380BFE52C2406F886820886830886C0
:103ABC00F0852C81D02C22C02C85812CC082C08317
:103ACC00C0F005810581A82C0886020886030886AB
:103ADC0004E52C24FBF8E52C2404F9E6F70809E6A8
:103AEC00F7E52C2404F88606088607E52C2404F850
:103AFC0016B6FF020816EE4F60168A828B838CF086
:103B0C00E52C24FDF8E6123776A3AA82AB8380D18C
:103B1C00A82C0886820886830886F0852C81D02CF8
:103B2C0022C02C85812CC082C083C0F00581058108
:103B3C000581A82C0886020886030886048A828BD5
:103B4C00838CF0123D6C60070ABA00F10B80EEE535
:103B5C002C24FBF88605088606088607E52C240429
:103B6C00F8A60208A60308A6048D828E838FF01295
:103B7C003D6CFCA3AD82AE83E52C2404F886820850
:103B8C0086830886F0EC123776A31818A68208A64E
:103B9C0083EC70D5A82C0886820886830886F0856D
:103BAC002C81D02C22B98003EA13B34010EA2401F3
:103BBC00FAE43BFBE43CFC50047C800582BC000E28
:103BCC00BB000BBA0008E4F5F0F583F58222A2D114
:103BDC00E582138CF092F78B838A8222E4F583F5CD
:103BEC008275F080F4A2D11322E4F583F58275F08E
:103BFC00C0747F22C02C85812C7E008E8312097D9F
:103C0C00D02C22C02C85812CAD82AE83AFF0E52C5C
:103C1C0024FDF8E6C0E0C005C006C007E4C0E0C063
:103C2C00E0C0E0903C00124027E58124F9F581D0FA
:103C3C002C22C02CE581F52C24FBFFC007E52C249D
:103C4C00FBF8E6C0E008E6C0E008E6C0E0E4C0E04F
:103C5C00C0E0C0E0903C00124027AE82AF83E5810B
:103C6C0024F9F5818E828F83D02C22E582C583F5D1
:103C7C0082A2D133A2D592D11392D5ECCFFCEBCE4C
:103C8C00FBEACDFA22AA82AB83123D6C6003A380BF
:103C9C00F8C3E5829AF582E5839BF583221236FE02
:103CAC0030D502B2D1BF0009BC0003023BF5023B88
:103CBC00E8BC0003023BD2E583B4FF0BE582B4FF02
:103CCC0003023BF5023BD2E582B4FF03023BE8C39F
:103CDC0095835007247F400B023BD2248014500361
:103CEC00023BE8F582C3ED9AEE9BEF9C40111582E6
:103CFC00C3EA33F9EB33FAEC33FBE433FC8005E431
:103D0C00CCCBCAF9C08275F019C3E99DEA9EEB9F32
:103D1C00EC9400D5F002802D400EE99DF9EA9EFA54
:103D2C00EB9FFBEC9400FCC3B3E833F8E58233F56E
:103D3C0082E58333F583C3E933F9EA33FAEB33FBDA
:103D4C00EC33FC80C4B3E4F938FAE43582FBE43597
:103D5C0083FCD082500405827C8012372C023BC934
:103D6C0020F71430F6148883A88220F507E6A88380
:103D7C0075830022E280F7E49322E022AAF0FB7420
:103D8C00FB2581F8E58286F0A9F008A4FCADF0E5EE
:103D9C008389F0A42DFDE435F0FEE58286F0A42D98
:103DAC00FDE5F03EFEE433FFEA89F0A42EFEE5F0DB
:103DBC003FFFE58386F0A42EFEE5F03FFFE5820889
:103DCC0086F0A42EFEE5F03FFFEB89F0A42FFFE573
:103DDC008386F0A42FFFEA1886F0A42FFFE5820853
:103DEC000886F0A42F8EF08D838C8222C2D5E583B9
:103DFC0030E70DD2D5E4C39582F582E49583F58343
:103E0C00E58124FEF8E630E70918E4C396F6E408E9
:103E1C0096F68601188600123EBF30D50BE4C3958A
:103E2C0082F582E49583F58322C2D5E58330E70DD4
:103E3C00D2D5E4C39582F582E49583F583E581249C
:103E4C00FEF8E630E70AB2D518E4C396F6E4089615
:103E5C00F918E6F81235C830D50BE4C39582F58213
:103E6C00E49583F583226040F82582500274FFF5B7
:103E7C0082E824F8501ECCCBCAF9E4CC24F85014B8
:103E8C00CBCAF9E4CB24F8500BCAF9E4CA24F85095
:103E9C000379002224086010F8C3EC13FCEB13FB2D
:103EAC00EA13FAE913F9D8F122E58124FEF8860128
:103EBC00188600E84960367A01E825E0F8E93340D5
:103ECC000EF9E58298E5839940030A80ECC3E91367
:103EDC00F9E813F8C3E58298F5F0E583994005F508
:103EEC008385F082C3E913F9E813F8DAE722C02CD2
:103EFC0085812CAF8274302FFF24C6501074072F8D
:103F0C00FFE52C24FDF8E6600474202FFFE52C243B
:103F1C00F8F8E6C0E008E6C0E008E6C0E0123F2E84
:103F2C00800FE52C24FBF8E6C0E008E6C0E08F82A9
:103F3C0022158115811581D02C22C02C85812CE570
:103F4C0082FFC4540FFEC007E52C24F8F8E6C0E04D
:103F5C0008E6C0E008E6C0E0E52C24FBF8E6C0E08B
:103F6C0008E6C0E0E52C24FDF8E6C0E08E82123EA7
:103F7C00FAE58124FAF581D00753070FE52C24F8D4
:103F8C00F8E6C0E008E6C0E008E6C0E0E52C24FB5B
:103F9C00F8E6C0E008E6C0E0E52C24FDF8E6C0E059
:103FAC008F82123EFAE58124FAF581D02C22C02CA6
:103FBC0085812CA98287040987050987060987074B
:103FCC00191919740429F87B20C003E626FAEF238B
:103FDC005401FBEA4203A603EC2CFCED33FDEE335B
:103FEC00FEEF33FFC000E52C24FDF8C3EB96D000A8
:103FFC00D00340148602C000E52C24FDF8EAC396D9
:10400C00FAD000A602430401EB14FB70BCA7040910
:10401C00A70509A70609A707D02C22C02C85812C3F
:10402C00C082C083E5812423F581E52C240CF8E4BF
:10403C00F608F6E52C2405F8E52C2414F6E52C24DA
:10404C0020C8E52C2412C82405F6E52C2414F824E9
:10405C0004FAE52C2403F9A702E52C2404F9A702A1
:10406C00E52C24F8F987060987050987048E828DCB
:10407C00838CF0123D6CFFE52C24F8F974012EF7BB
:10408C00E43D09F709A704EFFE70030250BFBE25FB
:10409C00028003025081C218C219C21AC21BC21C70
:1040AC00C21DC21EC21FE52C241BF97700E52C246F
:1040BC0006F9E4F709F7E52C241CF977FF0977FFDB
:1040CC00E52C24F8F9C000E52C2408F8E7F60908DB
:1040DC00E7F60908E7F6D000E52C2408F9878209F1
:1040EC0087830987F0C000E52C240BF8123D6CF691
:1040FC00A31919A78209A783E52C2408F9E52C2418
:10410C00F8F8E7F60908E7F60908E7F6D000E52C19
:10411C00240BF9B72543C002C000E52C24FBF9E7BA
:10412C00C0E009E7C0E009E7C0E012413B8012A9FA
:10413C002C09E7C0E009E7C0E0E52C240BF98782E5
:10414C0022158115811581D000D002E52C240CF9A3
:10415C0007B70002090702406CE52C240BF9B730B5
:10416C00005003024226E52C240BF9E724C6500329
:10417C00024226E52C241CF9B7FF5909B7FF55C09C
:10418C0002C000C023E52C2406F9E7C0E009E7C013
:10419C00E090000A1237C1AB82AF8315811581D034
:1041AC0023D000D002E52C240BF987057E00ED2BE3
:1041BC00FBEE3FFFE52C2406F9EB24D0F7EF34FFA0
:1041CC0009F7E52C2406F9E7094760030240E4D21D
:1041DC00190240E4C002C000C023E52C241CF9E7FE
:1041EC00C0E009E7C0E090000A1237C1AE82AF838D
:1041FC0015811581D023D000D002E52C240BF98732
:10420C00047D00EC2EFEED3FFFE52C241CF9EE2482
:10421C00D0F7EF34FF09F70240E4E52C240BF9B793
:10422C002E1DE52C241CF9B7FF0609B7FF028003ED
:10423C000240E4E52C241CF9E4F709F70240E4E51C
:10424C002C240BF9B76100401CE52C240BF9E72456
:10425C00854012E52C240BF9E754DFF7E52C2413E9
:10426C00F977018007E52C2413F97700E52C240B52
:10427C00F9B7200302434AE52C240BF9B72B0302B0
:10428C004345E52C240BF9B72D03024340E52C24C0
:10429C000BF9B7420302434FE52C240BF9B7430348
:1042AC00024359E52C240BF9B744030248C5E52C0D
:1042BC00240BF9B746030248ECE52C240BF9B7485C
:1042CC00030240E4E52C240BF9B749030248C5E589
:1042DC002C240BF9B74A030240E4E52C240BF9B764
:1042EC004C028064E52C240BF9B74F030248D1E54E
:1042FC002C240BF9B75003024697E52C240BF9B785
:10430C0053030243C9E52C240BF9B754030240E4D0
:10431C00E52C240BF9B755030248DAE52C240BF9EC
:10432C00B758030248E3E52C240BF9B75A030240B3
:10433C00E40248F0D2180240E4D21A0240E4D21B44
:10434C000240E4D21D0240E4D21E0240E4301D17AC
:10435C00C000E52C24F7F8E614F9E52C24F7F8A6B0
:10436C0001D00087068014E52C24F7F9E724FEFD24
:10437C00E52C24F7F9A7058D018706C002C000C003
:10438C0023E52C24FBF9E7C0E009E7C0E009E7C00E
:10439C00E01243A2800DA92C09E7C0E009E7C0E0B8
:1043AC008E8222158115811581D023D000D002E593
:1043BC002C240CF907B700020907024954E52C24F8
:1043CC0014F9C000E52C24F7F8E624FDFEE52C24B6
:1043DC00F7F8A606A8068604088605088606D00007
:1043EC00A70409A70509A70619198C828D838EF0DD
:1043FC00C002C001C000C023123C91C000C8E52C13
:10440C002410C8A68208A683D000D023D000D001E7
:10441C00D002C000E52C241CF8B6FF0608B6FF023B
:10442C008004D0008016E52C2410F8C001E52C2463
:10443C001CF9E6F70809E6F7D001D00030180302A2
:10444C004520C000E52C2410F8C001E52C2406F909
:10445C00C3E69708E60997D001D000400302452037
:10446C00C000E52C2406F8C001E52C2410F9E6C3A5
:10447C0097FE08E60997FDE52C240CF8E52C240E94
:10448C00F9E6F70809E6F7D001D0008E048D071E77
:10449C00BEFF011DEC4F605AC006C005C002C00132
:1044AC00C000C0238500F0E52C24FBF8E6C0E00832
:1044BC00E6C0E008E6C0E0A8F01244CA801185000E
:1044CC00F0A82C08E6C0E008E6C0E07582202215B2
:1044DC008115811581D023D000D001D002D005D018
:1044EC0006C000E52C240EF806B600020806D00023
:1044FC008099C000E52C240EF8C001E52C240CF9A1
:10450C00E6F70809E6F7D001E52C2406F8A606081C
:10451C00A605D000C000E52C241CF88604088607EC
:10452C00E52C240CF8C001E52C240EF9E6F708095B
:10453C00E6F7D001D000870309870509870619190A
:10454C008B828D838EF0123D6CFBFE70030245E274
:10455C00C3E49C74808FF063F08095F050781CBCA1
:10456C00FF011FC007C004C002C001C000C02385EA
:10457C0000F0E52C24FBF8E6C0E008E6C0E008E615
:10458C00C0E0A8F012459580108500F0A82C08E634
:10459C00C0E008E6C0E08E8222158115811581D01D
:1045AC0023D000D001D002D004D007C000E52C24C9
:1045BC000EF806B600020806D00087030987050925
:1045CC00870619190BBB00010DA70309A70509A73D
:1045DC00061919024542E52C240EF9C000E52C24DD
:1045EC000CF8E7F60908E7F6D00020180302495446
:1045FC00E52C2410F9C000E52C2406F8C3E7960935
:10460C00E70896D0004003024954E52C2406F9C073
:10461C0000E52C2410F8E7C396FE09E70896FFE5A1
:10462C002C240EF9E52C2419F8E7F60908E7F6D046
:10463C00008E048F051EBEFF011FEC4D7003024956
:10464C0036C007C006C002C000C023E52C24FBF90D
:10465C00E7C0E009E7C0E009E7C0E012466C800E55
:10466C00A92C09E7C0E009E7C0E07582202215817A
:10467C0015811581D023D000D002D006D007E52CAF
:10468C002419F907B70002090780A6E52C2414F9B0
:10469C00C000E52C24F7F8E624FDFDE52C24F7F802
:1046AC00A605A8058603088604088605D000A7037E
:1046BC0009A70409A7051919E52C2414FE2402F9ED
:1046CC008707BF800040047D438014BF6000400416
:1046DC007D50800BBF400040047D4980027D58C056
:1046EC0006C005C002C000C023E52C24FBF9E7C0BE
:1046FC00E009E7C0E009E7C0E012470A800DA92CE9
:10470C0009E7C0E009E7C0E08D822215811581150B
:10471C0081D023D000D002D005D006E52C240CF992
:10472C00740127FCE40937FBC006C005C004C003B4
:10473C00C002C000C023E52C24FBF9E7C0E009E768
:10474C00C0E009E7C0E0124757800EA92C09E7C06A
:10475C00E009E7C0E075823A22158115811581D0F8
:10476C0023D000D002D003D004D005D0060CBC005E
:10477C00010BC006C005C004C003C002C000C023AA
:10478C00E52C24FBF9E7C0E009E7C0E009E7C0E04D
:10479C001247A1800EA92C09E7C0E009E7C0E0751B
:1047AC00823022158115811581D023D000D002D002
:1047BC0003D004D005D0060CBC00010BC006C0050C
:1047CC00C004C003C002C000C023E52C24FBF9E7E1
:1047DC00C0E009E7C0E009E7C0E01247EB800EA992
:1047EC002C09E7C0E009E7C0E07582782215811535
:1047FC00811581D023D000D002D003D004D005D0B5
:10480C000674012CFCE43BFFBD49028052BD5002F2
:10481C00804DEE04F98705C007C004C002C000C07B
:10482C0023E52C24FBF9E7C0E009E7C0E009E7C069
:10483C00E0A92C09E7C0E009E7C0E0E52C2413F956
:10484C00E7C0E08D82123F46E58124FAF581D02342
:10485C00D000D002D004D00774022CFCE43FFFE55A
:10486C002C2405F987018705C007C004C002C000CD
:10487C00C023E52C24FBF9E7C0E009E7C0E009E719
:10488C00C0E0A92C09E7C0E009E7C0E0E52C24133F
:10489C00F9E7C0E08D82123F46E58124FAF581D01C
:1048AC0023D000D002D004D007E52C240CF97402DC
:1048BC002CF7E43F09F7024954D21CE52C241BF9D0
:1048CC00770A024954E52C241BF97708807AE52CE9
:1048DC00241BF9770A8071E52C241BF9771080686A
:1048EC00D21F8064C002C000C023E52C24FBF9E772
:1048FC00C0E009E7C0E009E7C0E012490B8012A94B
:10490C002C09E7C0E009E7C0E0E52C240BF987820D
:10491C0022158115811581D023D000D002E52C24DD
:10492C000CF907B700020907801EE52C2419F9C001
:10493C0000E52C240CF8E7F60908E7F6D000E52C86
:10494C002406F9A70609A707201F03024A48E52CED
:10495C002414F9C000E52C24F7F8E624FCFFE52C20
:10496C0024F7F8A607A80786040886050886060813
:10497C008607A70409A70509A70609A70719191986
:10498C00E52C2414F977E509775A0977801919E58C
:10499C002C240CF88604088603D000C000E52C24D7
:1049AC0008F8E7F609E708F609E708F61919E52CFF
:1049BC002408F8740126FDE40836FE088607A705CE
:1049CC0009A70609A7071919E52C2408F8868208F7
:1049DC0086830886F0123D6CFFD000EFFE70030258
:1049EC00406CC004C003C002C001C0008500F0E5EB
:1049FC002C24FBF8E6C0E008E6C0E008E6C0E0A81E
:104A0C00F0124A1280108500F0A82C08E6C0E008CD
:104A1C00E6C0E08E8222158115811581D000D0016F
:104A2C00D002D003D0040CBC00010BC000E52C2438
:104A3C000CF8A60408A603D0000249A7E52C241BF9
:104A4C00F9E7700302406CE52C2412F98707301D3E
:104A5C0065C007E52C2414F9C000E52C24F7F8E612
:104A6C0014FEE52C24F7F8A606A8068606D0008EC0
:104A7C00047D007E007F00A70409A70509A706098D
:104A8C00A707191919D007301C03024B5FC0078701
:104A9C00040987050987060987071919197D007EFE
:104AAC00007F00A70409A70509A70609A70719197C
:104ABC0019D007024B5F301E3AC007E52C2414F9BD
:104ACC00C000E52C24F7F8E624FCFEE52C24F7F8CE
:104ADC00A606A8068604088605088606088607D05A
:104AEC0000A70409A70509A70609A707191919D0D2
:104AFC00078060C007E52C2414F9C000E52C24F7CE
:104B0C00F8E624FEFEE52C24F7F8A606A806860592
:104B1C00088606D000EEFC3395E0FEFFA70509A73A
:104B2C000409A70609A707191919D007201C24C0C6
:104B3C000787040987050987060987071919197E4C
:104B4C00007F00A70409A70509A70609A7071919DB
:104B5C0019D007301C4CC007E52C2414F987040924
:104B6C008705098706098707191919EFD00730E758
:104B7C002FC00787040987050987060987071919B4
:104B8C0019C3E49CFCE49DFDE49EFEE49FFFA70496
:104B9C0009A70509A70609A707191919D007800243
:104BAC00C21CD21D8F01C000E52C2410F8E4F608BD
:104BBC00F6D000E52C24142404C000F87600D000B4
:104BCC008805C002C001C000C0238500F0E52C247C
:104BDC001BF8E6C0E08D82123FBA1581D023D000BD
:104BEC00D001D002201D19C000E52C2403F886004A
:104BFC008605D000EDC4FDE7FC4205A70519800A27
:104C0C00C000A8028605D000A705C000E52C241022
:104C1C00F806B600020806D000B21D86030886040A
:104C2C00088605088607181818EB4C4D4F708489B8
:104C3C0007E52C2410F9C000E52C241EF8E7F60932
:104C4C0008E7F6D000E52C2406F9E70947700AE5D9
:104C5C002C2406F97701097700301903024D1D3019
:104C6C001803024D1DE52C240CF98704098703E574
:104C7C002C2406F9C000E52C2410F8E7F60908E707
:104C8C00F6D000C007E52C241EF987070F8F067F8E
:104C9C0000E52C2410F9C3EE97EF0997D007505379
:104CAC00C007C004C003C002C000C023E52C24FB15
:104CBC00F9E7C0E009E7C0E009E7C0E0124CCD809D
:104CCC000EA92C09E7C0E009E7C0E0758220221587
:104CDC008115811581D023D000D002D003D004D00F
:104CEC00070CBC00010BE52C2410F917B7FF0209C7
:104CFC00178090E52C240CF9A70409A703E52C24B4
:104D0C0010F9C000E52C2406F8E7F60908E7F6D000
:104D1C0000301C52C007C002C000C023E52C24FB8D
:104D2C00F9E7C0E009E7C0E009E7C0E0124D3D80BB
:104D3C000EA92C09E7C0E009E7C0E075822D221509
:104D4C008115811581D023D000D002D007E52C2409
:104D5C000CF907B700020907E52C2406F917B7FF71
:104D6C00020917024E25E52C241EF9E709477003AA
:104D7C00024E25301A51C007C002C000C023E52CDA
:104D8C0024FBF9E7C0E009E7C0E009E7C0E0124DF9
:104D9C009F800EA92C09E7C0E009E7C0E075822BC3
:104DAC0022158115811581D023D000D002D007E5C2
:104DBC002C240CF907B700020907E52C2406F91777
:104DCC00B7FF0209178052301B4FC007C002C0004A
:104DDC00C023E52C24FBF9E7C0E009E7C0E009E7B4
:104DEC00C0E0124DF3800EA92C09E7C0E009E7C022
:104DFC00E075822022158115811581D023D000D039
:104E0C0002D007E52C240CF907B700020907E52CA2
:104E1C002406F917B7FF020917301803024EC0E534
:104E2C002C240CF9C000E52C2410F8E7F60908E74F
:104E3C00F6D000E52C2406F98703098704C0078BFC
:104E4C00068C071BBBFF011CE52C241EF9C3E79E37
:104E5C0009E79FD0074003024F093019067D307EC9
:104E6C000080047D207E00C007C004C003C002C0C7
:104E7C0000C023E52C24FBF9E7C0E009E7C0E009FA
:104E8C00E7C0E0124E94800DA92C09E7C0E009E7B9
:104E9C00C0E08D8222158115811581D023D000D0E0
:104EAC0002D003D004D007E52C2410F907B7000278
:104EBC0009078089E52C2406F9C000E52C241EF88E
:104ECC00C3E69708E60997D0005027E52C2406F98D
:104EDC00C000E52C241EF8E7C396C0E009E708964D
:104EEC00C0E0E52C240FF9D0E0F719D0E0F7D000A2
:104EFC008029E52C240EF9E4F709F7801EE52C2413
:104F0C0010F9C000E52C240CF8E7F60908E7F6D0F8
:104F1C0000E52C240EF9A70309A7048F01C000E5B6
:104F2C002C240CF88604088607E52C241EF8C001F6
:104F3C00E52C2410F9E6F70809E6F7D001D000C0FB
:104F4C0000E52C2410F88603088606E52C2410F8BE
:104F5C0016B6FF020816D000EB4E7003024FF3B2E8
:104F6C001D201D1009E7C4540FFEC000A802A606A0
:104F7C00D000800C8706740F5EC000A802F6D0002B
:104F8C00C000E52C2404F886008606D000C007C0BB
:104F9C0004C002C001C000C0238500F0E52C24FB36
:104FAC00F8E6C0E008E6C0E008E6C0E0A8F085003E
:104FBC00F0A82C08E6C0E008E6C0E0A8F08500F0F8
:104FCC00E52C2413F8E6C0E08E82123EFAE581242B
:104FDC00FAF581D023D000D001D002D004D0070C38
:104FEC00BC00010F024F4BE52C240CF9A70409A7B8
:104FFC000720180302406CE52C2419F9A70409A713
:10500C0007E52C240EF987040987058C038D071CF2
:10501C00BCFF011DEB4F700302406CC005C004C007
:10502C0002C000E52C24FBF9E7C0E009E7C0E00969
:10503C00E7C0E0125044800EA92C09E7C0E009E754
:10504C00C0E075822022158115811581D000D00217
:10505C00D004D005E52C2419F907B700020907E59F
:10506C002C2419F9C000E52C240CF8E7F60908E704
:10507C00F6D0008096C002C000E52C24FBF9E7C0F6
:10508C00E009E7C0E009E7C0E012509A800DA92CB6
:10509C0009E7C0E009E7C0E08E8222158115811571
:1050AC0081D000D002E52C240CF907B700020907C7
:1050BC0002406CE52C240CF88682088683852C81B2
