:040000000200413287
:03000B00020B14D1
:03001300020B07D6
:01001B0032B2
:0100230032AA
:01002B0032A2
:01003300329A
:03003B00020AFCBA
:03028D0002003E2E
:03003E000202902B
:100290001209C6121A2A7E007F00C3EE9408EF648A
:1002A00080948050F1EE2EFCEF33FDEC24A0F5821B
:1002B000ED3451F583E493FAA3E493FBEC24A0FC22
:1002C000ED3451F97D80C007C006C003C0021202A0
:1002D000D3800BC002C0038C8289838DF022D002B0
:0D02E000D003D006D0070EBE00B00F80ADD9
:1051A0008010BC103A14EE15581691132613B2193C
:1002ED0022AF82C2C4C2C6D2C575A0FFD2C485A03A
:1002FD0082C0071202EDAE82D0075306807D00C288
:10030D00C4EE4D70E4C2C5D2C68F821202ED858255
:10031D00A0D2C4C2C422AF82C2C4C2C6D2C575A007
:10032D00FFD2C485A082C0071202EDAE82D0075362
:10033D0006807D00C2C4EE4D70E4C2C58F821202EC
:10034D00ED8582A0D2C4C2C422C2C4C2C6D2C575B4
:10035D00A0FFD2C485A0821202EDAF82530780C2E6
:10036D00C4EF70EBD2C6D2C485A0821202EDC2C416
:10037D0022C2C4C2C6D2C575A0FFD2C485A0821246
:10038D0002EDC2C422AE82AF83C3E49E74808FF0AF
:10039D0063F08095F0501C7C207D0300EC24FFFA67
:1003AD00ED34FFFB8A048B05EA4B70EF1EBEFF0197
:1003BD001F80D6227F058F061FEE6040C0071203F7
:1003CD007EAE828E047D00C006C004C00574B7C029
:1003DD00E07451C0E07480C0E0123CD6E58124FB8E
:1003ED00F581D006D007BE80028003BE5102D32214
:1003FD00900064C007120392D00780BAC322120383
:10040D00C1400122C2C4C2C6C2C57DB07E517F802B
:10041D007C008D828E838FF0123E04FBA3AD82AEE5
:10042D00838B82C007C006C005C0041202ED858211
:10043D00A0D2C4900004120392D004D005D006D0EF
:10044D0007C2C40CBC040040C98D828E838FF0128C
:10045D003E04FC0DBD00010E8C82C007C006C00518
:10046D00120323D005D006D0078D828E838FF01214
:10047D003E04FC0DBD00010E8C82C007C006C005F8
:10048D00120323D005D006D0078D828E838FF012F4
:10049D003E04F582120323D322C02C85812C0581C5
:1004AD0005810581AD82AE83AFF0C007C006C005E2
:1004BD0012037E758280120323D005D006D0078DDE
:1004CD00028E038F04A82C08A60508A60608A60709
:1004DD007F108F061FEE6059A82C08868208868330
:1004ED000886F0123E04FEBE0A070ABA00430B80CE
:1004FD0040EE7010A82C0886820886830886F0745A
:10050D002012380EA82C0886820886830886F012E1
:10051D003E04FEA31818A68208A6838E82C0071279
:10052D0002EED007A82C08860208860308860480F0
:10053D00A17582C0C004C003C002120323D002D033
:10054D0003D0048A058B068C077C108C031CEB6092
:10055D003C8D828E838FF0123E04700B8D828E83C4
:10056D008FF0742012380E8D828E838FF0123E0420
:10057D00FBA3AD82AE838B82C007C006C005C0044D
:10058D001202EED004D005D006D00780BE852C8196
:10059D00D02C22E582FF30E72475820FC0071203AD
:1005AD0023D00753071FBF1000500A8F0674802EEB
:1005BD00F58202032374B02FF58202032375820C9A
:0305CD0002032303
:1051B0003030303801060C6C636473747372642091
:0651C000253032780A00E0
:10009A007801E4F27802F208F27804F208F208F23F
:1000AA0008F27808F208F2780AF208F2780CF27884
:0400BA000DF208F249
:1005D000AF82C218EF30E706C3E49FFFD218BF080E
:1005E000027F0CBF09027F16C3EF64809488500815
:1005F000EF75F00AA4FE04FFEF3395E0FEC007C0DC
:1006000006C023740AC0E0E4C0E08F828E83123EED
:1006100090AC8215811581D023D006D007EC75F0FF
:100620000CA4FCC004C023740AC0E0E4C0E08F82C4
:100630008E83123ECDAE8215811581D023D004EE7B
:100640002EFF1F1FEF2CFFC3EE6480948440011F18
:070650003018010F8F822218
:1051C6001B1F5C1DB61B281AB0184E17FF15C314FB
:1051D60098137F1275117A108E0FAE0EDB0D140D1B
:1051E600580CA70BFF0A610ACC093F09BB083D080A
:1051F600C7075707EE068A062C06D3058005310534
:10520600E604A0045D041F04E303AB037703450330
:105216001603EA02C0029802730250022F020F021E
:105226000505060605050808070700000505060624
:10523600050509090808000005053434202008087A
:105246000707060600002A2A202008080909080878
:10525600000000007F0000000000000000000000C9
:105266000000000000000000000000000000000038
:105276000000000000000000000000000000000028
:105286000000000000000000000000000000000018
:105296000000000000000000000000000000000008
:1052A60000000000000000000000000000000000F8
:1052B60000000000000000000000000000000000E8
:1052C60000000000000000000000000000000000D8
:1052D60000000000000000000000000000000000C8
:1052E600000000000000000005067C08080806080B
:1052F6000808080808030807070706070707070737
:1053060007060302020203050505050602023C0123
:1053160001030506030505030506030505323C01E1
:1053260001010503030302030303030303323C01E4
:105336000101050202020102020202030506060637
:1053460006060603050101010302463C3C00020273
:10535600030202463C32323232323205060C0C0C63
:10536600060C0C0C0C0C0C200C070707060707078D
:1053760007070706030202020307070706050505D6
:1053860005050505060C0C0C060C0C0C0C0C0C206B
:105396000C070707060707070707070603020202A7
:1053A60003050505050002023C7A01010101010120
:1053B60005067B0101010101010603020202030544
:1053C6000505050002023C01010101010101010080
:1053D60000020202023C3C0101010101010101013E
:1053E600010000000000007F7C0305050820201650
:1053F6000C06060606060606060204040507070648
:10540600050303030303030303050606082A2A20EC
:105416000816161616161616160606161608070681
:1054260005080808080808080808080808080808F9
:1054360008030505082020160C06060606060606BD
:105446000602040405070706050303030303030313
:1054560003050606082A2A20081616161616161614
:105466001606161608077E08077D060705050505B4
:105476000505050503050508202016080606060687
:1054860006060606020404050707060503030303CA
:105496000303030303050606082A2A200809090947
:1054A600090909060607090908077E08077D060790
:1054B6000505050505050505030505082020090858
:1054C600060606060606060602040405070706057E
:1054D600030303030303030303050606082A2A201E
:1054E600087A090909090909060607090908077E4C
:1054F60008077D060508080808080808087B090942
:10550600090909090909090606070606050508081D
:10551600080808080808080800000000000003053D
:1055260005082020160C06060606060606060204D0
:105536000405070706050303030303030303050620
:1055460006082A2A20080909090909090909060974
:1055560009080707060508080808080808080808CB
:105566000808080808087F01010404050508087FE3
:105576007E32323C3C7C010101010101020203033F
:1055860003463C4632323C3C3C3C3C3C3C3C3C3C8E
:105596003C3C01010202030303030303050506065F
:1055A60001010203040403030303030303030303C8
:1055B6000303030305050606060606060505060695
:1055C60006063C3C03030202020202020101020239
:1055D6000202030303033232323232323C3C464685
:1055E600030303033C3C3C3C0101010101010101B1
:1055F600010101010101000005050505060608086F
:105606000707070706050606060606060606060631
:105616000606060606060000050505050606080830
:10562600070707070605030303030303030303032F
:10563600030332323C3C0101010101010202030372
:1056460003463C4632323C3C3C3C3C3C3C3C3C3CCD
:105656003C3C01010202030303030303050506069E
:105666000101020304040303030303030303030307
:1056760003030303050506060606060605050606D4
:1056860006063C3C03030202020202020101020278
:105696000202030303033232323232323C3C4646C4
:1056A600030303033C3C7A3C3C0101010101010177
:1056B600010101010101010101010132323C3C7B82
:1056C6003C3C01010101010101010101010101014E
:1056D60001010101030303033232323232323C3C10
:1056E6004646030303033C3C3C3C01010101010126
:1056F600010101010101010146464646464646466C
:10570600030303033C3C3C3C3C3C01010101010119
:105716000101010101010101010101010101010173
:1057260001010101000000007D7F08070807080746
:1057360008077F7E08070605040302017D7F08002F
:105746000000080000000800000008000000080033
:105756000000080000000800000008000000080023
:105766000000080000000800000008000000080013
:105776000000080000007F7E3C4601020304057D10
:105786007C0606060605050302010102040303035F
:1057960003000203013C3C323C010101010101010D
:1057A60001050505030605030201013C01323232FB
:1057B600323C3C3C3C323201020303030303030345
:1057C60003050505030605030201013C01323232D9
:1057D600320505057E05067D0503027E03027D0171
:1057E600010101010101010202020103030202019A
:1057F600010203050505050606060603030506055B
:105806000505050505050506060606050503020048
:1058160001020403030101000203013C3C323C7A0D
:1058260001010101017E3C4601020304057D7B0165
:105836000101010101010105050503060503020138
:10584600013C01323232323C3C3C3C3232010203F2
:10585600030303030303030505050306050302010A
:10586600013C013232323205050506050503020107
:10587600010101010101017B010101010606060684
:1058860005050302000102040303010100020301EE
:105896003C3C323C01010101010101010101000012
:1058A6003232323205050506050503020101010102
:0758B6000101010101017F66
:1000BE00E4F524F525F526F527F528F529F52AF595
:1000CE002BC2017832746FF2087420F2783474C542
:0400DE00F208E4F24E
:10065700AE82AF838FC38EC475C78275C50175C659
:100667005A75C6A5C006C00774BDC0E07458C0E07F
:100677007480C0E0123CD6E58124FBF581AFC2ADA2
:10068700C77E008F037C00C007C005C006C003C03B
:100697000474C7C0E07458C0E07480C0E0123CD650
:1006A700E58124F9F581D0078F8222C02C85812C22
:1006B700AE82AF83E52C24FDF886C28FC38EC47546
:1006C700C78275C50275C65A75C6A5E52C24FDF8FF
:1006D70086047D00C004C005C006C00774DDC0E005
:1006E7007458C0E07480C0E0123CD6E58124F9F567
:1006F70081D3D02C22AE82AF838FC38EC475C782BD
:1007070075C50375C65A75C6A5C006C00774EDC082
:10071700E07458C0E07480C0E0123CD6E58124FB49
:10072700F581D322C02C85812C05810581AE82AF4E
:1007370083E52C24FCF8A92C09E6F70809E6F78ECF
:10074700828F83C007C006120657AD82D006D00736
:10075700BDFF02800F8E828F83C007C0061206FC82
:10076700D006D0078E828F83A3C007C00612065714
:10077700AD82D006D007BDFF0280108E828F83A383
:10078700C007C0061206FCD006D007AD2C0D7C00B2
:100797007B408D828C838BF0123E04FAC007C00623
:1007A700C005C004C003C0028E828F831206B21533
:1007B70081D003D004D005D006D0070DBD00010CB1
:1007C7008D828C838BF0123E04FD8E828F83A3C0B3
:1007D700051206B21581D3852C81D02C22C02C8519
:1007E700812C05810581AE82AF83AD2C0D7C007B0A
:1007F700408E828F83C007C006C005C004C00312A5
:100807000657AA82D003D004D005D006D0078D8220
:100817008C838BF0EA12380E0DBD00010C8E828F8F
:1008270083A3C005C004C003120657AF82D003D00C
:1008370004D0058D828C838BF0EF12380EA82C081C
:100847008682088683852C81D02C227E007F0074C7
:10085700FC2F4059EE54077021C007C006C006C0E0
:100867000774FAC0E07458C0E07480C0E0123CD648
:10087700E58124FBF581D006D0078E828F83C007E0
:10088700C006120657AD827C00C005C0047402C0C2
:10089700E07459C0E07480C0E0123CD6E58124FBC7
:1008A700F581D006D0070EBE00A50F80A222AE822A
:1008B700AF838E048F051EBEFF011FEC4D70F32220
:1008C700AE82AF838E048F051EBEFF011FEC4D6005
:1008D700109004FFC007C0061208B5D006D00780E5
:1008E700E3229000041207E4AE82AF83BEFF05BF88
:1008F700FF0280077832EEF208EFF2900006120747
:10090700E4AE82AF83BEFF04BFFF01227834EEF26C
:1009170008EFF222C02C85812CAE82AF83900004B1
:10092700C007C0061206FCD006D007C006C0079055
:10093700000412072B15811581E52C24FCF8E6C06D
:10094700E008E6C0E090000612072B15811581D05C
:100957002C2275C13F22758780759850758922753D
:100967008DFD758BFDD28ED299758C05759CD775CB
:100977008E15D28CD2AAD28AD2AFD2A922AE82AF9A
:100987008310990280FB8E998E828F832275D98C72
:1009970075D80075E90075F90075EA5575FA05759A
:1009A700DA4922AE875306107F00EE4FB40100925A
:1009B7000022A294B322A218B3929422B29422D214
:1009C700F085F0231209BDD2F085F023120ADAD29E
:1009D700F085F023120AE01209AA12095D75BB70AF
:1009E70012040B920150337420C0E0E4C0E0740895
:1009F700C0E07459C0E07480C0E090001175F060E9
:100A0700123AC8E58124FBF58190001175F0601258
:100A170004A69001F41208C780157429C0E0745920
:100A2700C0E07480C0E0123CD61581158115817530
:100A370094101209941208E9020959C29322E58019
:100A470054E0FFE5B054044FF582227836E25404AF
:100A5700B40100227836E25480B40100227836E2ED
:100A67005440B40100227836E25420B40100221227
:100A77000A45E5827836F2227836E2B4E402D322D8
:100A8700C32243BC809000011208B5439D0475BC86
:100A9700829000011208B575BD0043BC0822E5BC71
:100AA700A2E42253BCE7AEBD7F00EE2EFEEF33FF7C
:100AB700EE2EFEEF33FFACBE7D00EE4204EF4205A3
:100AC7008C828D83539DFB53BC7F22A280B322A2CD
:100AD70081B322A218B3928022A218B3928122A2D4
:100AE7001892DE201802D28422AE82AF838EEA8F5C
:100AF700FA22A2B322C2D875F90075E900B284328E
:100B070085242885252985262A85272B32C0E0C0FC
:100B1700D075D008AC24AD25AE26AF2774012CF5CF
:100B270024E43DF525E43EF526E43FF527D0D0D073
:020B3700E032AA
:1058BD00722025303478203D200025303278206943
:1058CD0061705F636F6E747220253032780D0A003F
:1058DD00772025303478203D20253032780D0A0090
:1058ED00657261736520253034780D0A000D0A2527
:1058FD003034783A0020253032780030313233346C
:10590D0035363738396162636465667E40232425F8
:10591D005E262A28295F2B7C2D3D5C004C434420BC
:10592D006465746563746564206661696C65642182
:03593D000D0A0050
:1000E200C202C203C204C205C206C207C208C209D2
:1000F200C20AC20BC20CC20DC20EC20FC210783E9F
:10010200E4F208F27840F27841F208F27843F278A9
:1001120044F278457438F2087401F27847E4F20840
:10012200F27849F208F2784BF208F208F2784EF2CD
:1001320008F27850F208F27852F208F208F278697E
:08014200F208F2786BF208F2FA
:100B3900C02C85812CC082C083C0F0E581240DF5CD
:100B490081A82C08740326FAE40836FB0886048A6F
:100B5900828B838CF0E52C2409F8123E04F6A3124B
:100B69003E0408F6A3123E0408F6A3123E0408F652
:100B7900C004C003C002E52C2409F8E6C0E008E679
:100B8900C0E008E6C0E008E6C0E090FF0075F07F2D
:100B99007447123829AF82E58124FCF581D002D04F
:100BA90003D004EF6037A82C08868208868308865C
:100BB900F0123E04FDA3123E04FEA3123E04FF748C
:100BC90040C0E07459C0E07480C0E08D828E838F8C
:100BD900F0123687158115811581020F9BC002C05D
:100BE90003C004E52C2409F886820886830886F068
:100BF90008E6C004C003C002123AB1AE82AF83D086
:100C090002D003D004A82C0886820886830886F0BF
:100C1900123E04FBA3123E04FCA3123E04FDC007CE
:100C2900C006C004C003C002C006C0077443C0E0C8
:100C39007459C0E07480C0E0C003C004C005123913
:100C4900ECE58124F8F581D002D003D004A82C0862
:100C590086820886830886F0123E04FBA3123E04AE
:100C6900FCA3123E04FD8B828C838DF0C003C0026D
:100C7900123D29AC82D002D003D006D007E52C243E
:100C890009F8A604A82C08E52C2404F9740726F70A
:100C9900E4083609F70809E6F7E52C2404F8868202
:100CA9000886830886F0123E04FDE52C2409F8C362
:100CB900E69DD004D003D0024003020DADC002C0AE
:100CC90003C004E52C2407F8A605087600A82C081B
:100CD90086820886830886F0123E04FAA3123E042F
:100CE900FBA3123E04FDC007C006C004C003C00236
:100CF900E52C2407F8E6C0E008E6C0E07430C0E05F
:100D09008A828B838DF0123B5B158115811581D009
:100D190002D003D004D006D007A82C088682088602
:100D2900830886F0123E04FBA3123E04FCA3123E84
:100D390004FDE52C2404F886820886830886F012CF
:100D49003E04FAE52C2404F8EA2BF6E43C08F608FC
:100D5900A605E52C2409F886027D00E52C2404F873
:100D6900E6C39AFA08E69DFD088604C007C006C0D6
:100D790004C003C002C006C0077443C0E07459C070
:100D8900E07480C0E0C002C005C0041239ECE581FE
:100D990024F8F581D002D003D004D006D007D004BE
:100DA900D003D0028A828B838CF0E52C2409F812B7
:100DB9003E04F6A3123E0408F6A3123E0408F6A365
:100DC900123E0408F68E828F83123ABCAC82AD8340
:100DD900AEF0FFC004C005C006C007E52C2409F821
:100DE90086820886830886F008E612364BAC82AD07
:100DF90083AEF0FFE58124FCF581E4C0E0C0E07436
:100E090080C0E0743FC0E08C828D838EF0EF123891
:100E19007BAC82AD83AEF0FFE58124FCF581E52C46
:100E2900240DF8A60408A60508A60608A607A82CF6
:100E390008740826FAE40836FB0886078A828B8339
:100E49008FF0123E04FF8F061FEE6042C007E52CAB
:100E5900240DF8E6C0E008E6C0E008E6C0E008E6D0
:100E6900C0E090000075F02074411236F3AC82ADF9
:100E790083AEF0FBE58124FCF581D007E52C240D38
:100E8900F8A60408A60508A60608A60380B8E52C56
:100E9900240DF886820886830886F008E6123AB19E
:100EA900AE82AF83A82C0886820886830886F01252
:100EB9003E04FBA3123E04FCA3123E04FD8B828C6C
:100EC900838DF0C007C006123D29AC82D006D00739
:100ED900A82C0886820886830886F0123E04FAA3A5
:100EE900123E04FBA3123E04FDEC2AFAE43BFBC0CC
:100EF90004C006C0077443C0E07459C0E07480C0E0
:100F0900E0C002C003C0051239ECE58124F8F5817F
:100F1900D004A82C0886820886830886F0123E042D
:100F2900FDA3123E04FEA3123E04FFEC2DFCE43E99
:100F3900FB8F028C828B838AF0742E12380EA82CB8
:100F490008740926FDE40836FE0886078D828E831B
:100F59008FF0123E04FDA3123E04FEA3123E04FFCD
:100F6900ED4E602EA82C0886820886830886F0122A
:100F79003E04FAA3123E04FBA3123E04FCC005C0C2
:100F890006C0078A828B838CF0123BC515811581B7
:100F99001581852C81D02C22C02C85812CC082C042
:100FA90083C0F0058105817410C0E0740EC0E0E5CE
:100FB9002C24FCF88682088683123656AB82AC83D1
:100FC90015811581C004C003C003C004900E10121E
:100FD9003859AA82AF8315811581D003D004E52C35
:100FE90024FCF8E6C39AFA08E69FFFC007C004C0CC
:100FF90003C002743CC0E0E4C0E08A828F831236E9
:1010090056AD82AE8315811581E52C2404F8A60519
:1010190008A606E52C2404F8E6C0E008E6C0E0903E
:10102900003C123859AD82AE8315811581D002D0AA
:1010390003D004D007EAC39DFAEF9EFFC002C007A0
:10104900E52C2404F8E6C0E008E6C0E0C003C004CB
:101059007446C0E07459C0E07480C0E0A82C08E66A
:10106900C0E008E6C0E008E6C0E01239ECE58124FA
:10107900F4852C81D02C227881E22405F9E3FE093C
:10108900E3FF7881E2FB7C007D60C007C006121097
:101099009C800BC006C0078B828C838DF022D00602
:1010A900D00722A2189210B218A21892F085F02344
:1010B9000209BD120A76120A7F40157869E4F2081E
:1010C900F2786BF208F2C2F085F0231210AC805965
:1010D9003006567869E22401F208E23400F2301051
:1010E9000B786BE22401F208E23400F27869C3E27A
:1010F900F5F0741495F008E2F5F0E495F0500B2042
:101109001008D2F085F0231210AC7869C3E2F5F02B
:10111900746495F008E2F5F0E495F0500C783DE23E
:101129004440F27869E4F208F2120A525019785DE3
:10113900C3E294FF08E294FF504C785DE22401F287
:1011490008E23400F2803F7865E2B4FF0050067887
:1011590065E22401F27865C3E2F5F074A095F050D8
:10116900251008028018D20C785DE2FE08E2FF78AB
:1011790055EEF208EFF2783DE24401F28002C20C2A
:10118900785DE4F208F2785DC3E2F5F074A095F0B9
:1011990008E2F5F0E495F0500B20080A7865E4F2CE
:1011A900D2088002C208120A5B5019785FC3E29420
:1011B900FF08E294FF504C785FE22401F208E23420
:1011C90000F2803F7866E2B4FF0050067866E224B8
:1011D90001F27866C3E2F5F074A095F05025100984
:1011E900028018D20D785FE2FE08E2FF7857EEF22E
:1011F90008EFF2783DE24402F28002C20D785FE422
:10120900F208F2785FC3E2F5F074A095F008E2F510
:10121900F0E495F0500B20090A7866E4F2D20980CF
:1012290002C209120A6450197861C3E294FF08E204
:1012390094FF504C7861E22401F208E23400F28014
:101249003F7867E2B4FF0050067867E22401F2783C
:1012590067C3E2F5F074A095F05025100A028018D2
:10126900D20E7861E2FE08E2FF7859EEF208EFF259
:10127900783DE24404F28002C20E7861E4F208F299
:101289007861C3E2F5F074A095F008E2F5F0E49511
:10129900F0500B200A0A7867E4F2D20A8002C20AE7
:1012A900120A6D50197863C3E294FF08E294FF5063
:1012B9004C7863E22401F208E23400F2803F786856
:1012C900E2B4FF0050067868E22401F27868C3E2CC
:1012D900F5F074A095F05025100B028018D20F7804
:1012E90063E2FE08E2FF785BEEF208EFF2783DE296
:1012F9004408F28002C20F7863E4F208F27863C30B
:10130900E2F5F074A095F008E2F5F0E495F0500AE2
:10131900200B097868E4F2D20B22C20B2230106745
:101329001209B95031786BC3E2F5F0740295F008EF
:10133900E2F5F0E495F0504F7455C0E07459C0E0FF
:101349007480C0E0123CD6158115811581786BE453
:10135900F208F20209C3786BC3E2F5F0741495F050
:1013690008E2F5F0E495F0501E745CC0E07459C0D1
:10137900E07480C0E0123CD6158115811581786B27
:10138900E4F208F20209C3227881E2240DF9E3FFAD
:10139900BF200040012220020A20060122120A89E8
:1013A900D20222120AA5400122120AAA123ABCACA0
:1013B90082AD83AEF0FFC004C005C006C00790CC63
:1013C900CD75F01C7445123D41AC82AD83AEF0FF82
:1013D900E58124FCF5817837ECF208EDF208EEF2AC
:1013E90008EFF27881E2240DF9E32411FF7E007DF4
:1013F900607873EFF208EEF208EDF278767937E368
:10140900F20809E3F20809E3F20809E3F2787A74C9
:1014190001F2787B04F2787C7463F2087459F2085B
:101429007480F290007375F060120B39C202D21108
:1014390022C02CE581F52C2404F581C2067832E21C
:10144900FC08E2FD7E007F00C004C005C006C0079D
:101459008524828525838526F0E527123A44AC82C6
:10146900AD83E58124FCF5817841ECF208EDF2C009
:1014790005C004C004C0057832E2F58208E2F583AC
:10148900123859AE82AF83158115817B007A00A885
:101499002C08E524C39EF6E5259F08F6E5269B085A
:1014A900F6E5279A08F67832E22432F58208E23422
:1014B90000F5837464C0E0E4C0E0123656AE82AF32
:1014C90083158115817B007A00C006C007C003C05F
:1014D90002A82C0886820886830886F008E6123A54
:1014E90044AA82AB83AEF0FFE58124FCF581D004E8
:1014F900D0057843EAF2C2077840E2B502028002D9
:10150900D207783EE2B5040808E2B505030215D40E
:10151900D206783BE2F5F008E245F070030215D4F3
:101529007881E2FF240BF9E3FE20E4030215D430AD
:10153900051C783BE224FFF208E234FFF2783BE233
:10154900F5F008E245F07006783DE24410F2E3FE5A
:1015590030E078EE30E209783BE2FC08E2FD801BDE
:1015690074092FF9E3FA09E3FB783BD3E29AF4B360
:10157900FAB308E29BF4FB8A048B05EE30E12D7483
:101589000C2FF9E32411FE7B007A60C004C00574B6
:1015990043C0E07459C0E07480C0E0C006C003C015
:1015A900021239ECE58124F8F581801D740C2FF9BC
:1015B900E32411FF7E007B60C004C0058F828E8307
:1015C9008BF0120FA115811581D2117841E2FE0825
:1015D900E2FF783EEEF208EFF27843E27840F285D6
:1015E9002C81D02C2230011630111390001175F086
:1015F900601204A67844E2F5821205A0C21122788D
:1016090001E4F27804F208F208F208F27802F2082A
:10161900F2227802E2FE08E24EB4010022C02C85D3
:10162900812CAF827802E2FD08E24D701E7801EF4D
:10163900F27804E4F208F208F208F27802E52C24C0
:10164900FCF9E7F20809E7F2D38001C3D02C22C0E4
:101659002CE581F52C2408F5817808E2FE08E2FFE3
:101669004E7003021797780CE2FFBF010280030254
:10167900179712161B4003021797B204A20492F09F
:1016890085F023120ADAA204B3921892F085F023A6
:10169900120AE07808E2FE08E2FF780AE2FC08E2B2
:1016A900FD74012CFAE43DFB780AEAF208EBF2EC4E
:1016B9002EF582ED3FF583E493FFBF7F41780C74EB
:1016C90003F2783DE24420F2C2F085F023120ADAEF
:1016D900C2F085F023120AE07465C0E07459C0E0D5
:1016E9007480C0E0123CD6158115811581C2F08540
:1016F900F023120AE69001381218D6021797BF7E16
:10170900157845E2F5F008E2C313C5F01318F2C5E0
:10171900F008F2021797BF7D0D7845E225E0F2083F
:10172900E233F2021797BF7A1F780DE2FD08E2FE55
:10173900BDFF05BEFF028056780AEDF208EEF27889
:101749000D74FFF208F28046BF7B1E780AE2FD089D
:10175900E2FE780DEDF208EEF2780FE2FD08E2FE06
:10176900780AEDF208EEF28025BF7C10780AE2FDD6
:1017790008E2FE780FEDF208EEF280127845E2C039
:10178900E008E2C0E08F82121626158115817802E1
:10179900E2FE08E2FF4E70030218C87804E2FA0874
:1017A900E2FB08E2FC08E2FDEA4B4C4D7058780474
:1017B900E524F208E525F208E526F208E527F2789E
:1017C90001E2FF700BC2F085F023120AE60218D07D
:1017D9008F821205D0E58275F002A424C6F58274C1
:1017E9005135F0F583E493FFA3E493FED2F0C007EB
:1017F900C00685F023120AE6D006D0078F828E83B1
:10180900120AF00218D0E52C2405F8E524C39AF64B
:10181900E5259B08F6E5269C08F6E5279D08F6A828
:101829002C08A60608A6070876000876007832E292
:101839002432F58208E23400F5837464C0E0E4C020
:10184900E0123656AA82AB83158115817E007F008E
:10185900C002C003C006C007A82C08868208868378
:101869000886F008E6123E20AC82AD83AEF0FFE5B3
:101879008124FCF581740AC0E0E4C0E0C0E0C0E066
:101889008C828D838EF0EF123A44AC82AD83AEF038
:10189900FFE58124FCF581E52C2405F8C3E69C08C5
:1018A900E69D08E69E08E69F401D7802E4F208F2EC
:1018B9001218E24012C2F085F023120AE68008C22B
:1018C900F085F023120AE6852C81D02C22AE82AF56
:1018D900837845EEF208EFF222780CE2FFBF0102AD
:1018E900D322C322780CE2FFBF010DC2F085F02399
:1018F900120AE6780C7402F222780CE2FFBF0205A4
:10190900780C7401F222C02C85812CAE82AF8378C9
:1019190008EEF208EFF2780AE4F208F2780C04F221
:10192900780D74FFF208F2780FE4F208F2E52C243E
:10193900FCF8E60846700AE52C24FCF876380876A7
:1019490001E52C24FCF886820886831218D6D02C4F
:1019590022C02C85812CAE82AF837D00C3ED6480CB
:1019690094825042ED75F007A4FC2447F9E3FA0983
:10197900E3FB19EA4B702CE52C24FCF8E6F3090883
:10198900E6F3EC2447FC2402F9EEF309EFF37404BF
:101999002CF9E52C24F9F8E6F30908E6F30908E639
:1019A900F380030D80B6D02C22200303120959308D
:1019B900076E7F00C3EF648094825064EF75F0076F
:1019C900A42447F92402F8E2FD08E2FE18ED4E606E
:1019D9004C1DBDFF011EEDF208EEF218ED4E703DF3
:1019E900E3FD09E3FE19ED4E6033740429F8E2FAC8
:1019F90008E2FB08E2FC1818C007C006C005C001D0
:101A0900121A0E800BC005C0068A828B838CF022C5
:101A1900D001D005D006D007E4F309F3190F80945B
:011A2900229A
:105940006F6F00257500253032753A253032753A73
:1059500025303275006C63645F0D0A006C63645E11
:105960000D0A005600706C617920656E640D0A00A6
:10014A00C211C212C2137871E4F2787204F2787F93
:10015A00743CF208E4F27881F27882F208F208F24A
:10016A0008F27886F208F208F208F2788AF208F2BF
:10017A0008F208F2789CF2789DF208F2789FF278F9
:10018A00A0F208F278A2F208F208F208F278BDF2B8
:10019A0008F208F290350F93FDA3E493FEA3E493CB
:1001AA00FF78C0EDF208EEF208EFF2903526E493FC
:1001BA00FDA3E493FEA3E493FF78C3EDF208EEF205
:1001CA0008EFF290353DE493FDA3E493FEA3E49394
:1001DA00FF78C6EDF208EEF208EFF2903554E49398
:1001EA00FDA3E493FEA3E493FF78C9EDF208EEF2CF
:1001FA0008EFF290356BE493FDA3E493FEA3E49336
:10020A00FF78CCEDF208EEF208EFF2903582E49333
:10021A00FDA3E493FEA3E493FF78CFEDF208EEF298
:10022A0008EFF2903599E493FDA3E493FEA3E493D7
:10023A00FF78D2EDF208EEF208EFF29035B0E493CF
:10024A00FDA3E493FEA3E493FF78D5EDF208EEF262
:10025A0008EFF29035C7E493FDA3E493FEA3E49379
:10026A00FF78D8EDF208EEF208EFF29035DEE4936B
:10027A00FDA3E493FEA3E493FF78DBEDF208EEF22C
:03028A0008EFF288
:101A2A007417C0E0E4C0E074F8C0E07434C0E07435
:101A3A0080C0E09000A675F060123AC8E58124FBE8
:101A4A00F581788174A6F278A9E2FE08E2FF78812E
:101A5A00E2FB7C007D60C007C006121A69800BC0D9
:101A6A0006C0078B828C838DF022D006D00722C055
:101A7A002C85812C058105810581AD82AE83AFF06D
:101A8A00A82C08A60508A60608A607A82C08740B01
:101A9A0026FAE40836FB0886048A828B838CF012C5
:101AAA003E0430E504C2058002D2058A828B838C0B
:101ABA00F0123E0430E310787FE2FE08E2FF783B42
:101ACA00EEF208EFF28020A82C08740926FDE4083B
:101ADA0036FE0886078D828E838FF0783B123E048D
:101AEA00F2A3123E0408F2D213783BE2C0E008E205
:101AFA00C0E07470C0E07459C0E07480C0E0123C69
:101B0A00D6E58124FBF581783DE4F27421C0E0E456
:101B1A00C0E0C0E090001175F060123B5B158115C2
:101B2A00811581D2117869E4F208F2C2F085F023B6
:101B3A00120ADAC2F085F023120AE0852C81D02C31
:101B4A0022AF827881E22407F9E3FD09E3FE4D60C2
:101B5A00247881E2FA7B007C60C007C006C00512C7
:101B6A001B6E800BC005C0068A828B838CF022D044
:101B7A0005D006D0077871E27872F27871EFF278C0
:101B8A0071C2D575F017E230E704B2D5F404A43077
:101B9A00D50AF42401C5F0F43400C5F024F8FD7424
:101BAA003435F0FE7C80C0077417C0E0E4C0E0C0A2
:101BBA0005C006C0049000A675F060123AC8E58117
:101BCA0024FBF581D007788174A6F278A9E2FD0892
:101BDA00E2FE4D60247881E2FA7B007C60C007C097
:101BEA0006C005121BF2800BC005C0068A828B83D1
:101BFA008CF022D005D006D0077E007872E2FCE293
:101C0A003395E0FDC007C006C004C005748CC0E06F
:101C1A007459C0E07480C0E0123CD6E58124F9F51D
:101C2A008122C2F085F023020ADAC2F085F023028B
:101C3A000AE0C02C85812CAF82BF012CD2F085F03E
:101C4A0023120ADAE4C0E0C0E0C0E0742CC0E074F9
:101C5A001CC0E0E52C24FCF8868208868312195AF7
:101C6A00E58124FBF581802AD2F085F023120AE06F
:101C7A00E4C0E0C0E0C0E07434C0E0741CC0E0E539
:101C8A002C24FCF8868208868312195AE58124FBE3
:101C9A00F581D02C22C02CE581F52C2416F581ADD6
:101CAA0082AE83AFF0E52C2413F8A60508A6060831
:101CBA00A607783DE260721218E2406D300D117489
:101CCA0032C0E0E4C0E07582321216261581158111
:101CDA00300F117432C0E0E4C0E075820512162696
:101CEA0015811581200C03300E117432C0E0E4C056
:101CFA00E075820112162615811581E52C2413F848
:101D0A00740B26FAE40836FB0886048A828B838CD5
:101D1A00F0123E04FA20E6117405C0E0E4C0E07552
:101D2A008202121C3C158115817C00E52C2413F8D3
:101D3A00E52C2404F9740E26F7E4083609F7080995
:101D4A00E6F7E52C2404F8E52C240AF9E6F7080955
:101D5A00E6F70809E6F7E52C2413F8E52C2407F939
:101D6A00740B26F7E4083609F70809E6F7E52C2488
:101D7A0013F8E52C2410F9740926F7E4083609F754
:101D8A000809E6F7E52C2404F8A92C09E6F708095E
:101D9A00E6F70809E6F7E52C2413F8E52C240DF9F3
:101DAA00741526F7E4083609F70809E6F77B00C335
:101DBA00EB648094874003021EF28BF005F0E52C59
:101DCA002416F87401800225E0D5F0FBF6783DE58B
:101DDA002C2416F9E2577003021EECC004E52C24E9
:101DEA0004F8EB26FAE40836FC0886078A828C8314
:101DFA008FF0123E04FAD00420E727E52C2413F8CA
:101E0A00740E26FDE40836FE088607EC2DFDE43E36
:101E1A00FE8D828E838FF0123E04F582121B4B02D6
:101E2A001F12E52C240AF8EB26FDE40836FE088684
:101E3A00078D828E838FF0123E04FDBDFE187872E4
:101E4A007971E2F5F0E3B5F002800B7872E2F5827F
:101E5A00121B4B021F12A82C08EB26FDE40836FEC3
:101E6A000886078D828E838FF0123E04FDBDFD3DEC
:101E7A00E52C2407F886820886830886F0123E0439
:101E8A00FF30E310787FE2FE08E2FF783BEEF208CB
:101E9A00EFF28019E52C2410F886820886830886DA
:101EAA00F0793B123E04F3A3123E0409F3E52C2415
:101EBA0016F8B6102DE52C240DF8868208868308BC
:101ECA0086F0123E04FEA3123E04FF4E6014C003C5
:101EDA00E4C0E0C0E08E828F8312190F158115814C
:101EEA00D0030B8B04021DB93013191218E24014E7
:101EFA003006117405C0E0E4C0E0758201121C3C92
:101F0A0015811581783DE4F2852C81D02C22121A94
:101F1A007974A2C0E07459C0E07480C0E0749DC0B6
:101F2A00E07459C0E07480C0E07498C0E07459C08D
:101F3A00E07480C0E07411C0E07400C0E07460C056
:101F4A00E01239ECE58124F4F58174B4C0E07459E7
:101F5A00C0E07480C0E074B1C0E07459C0E074801D
:101F6A00C0E07421C0E07400C0E07460C0E01239BF
:101F7A00ECE58124F7F58174BDC0E07459C0E074C2
:101F8A0080C0E074B1C0E07459C0E07480C0E074ED
:101F9A0026C0E07400C0E07460C0E01239ECE5814C
:101FAA0024F7F581D21122021C9F123E04F5820207
:101FBA001B4BAD82AE83AFF08D028E038F04789CEB
:101FCA007401F28D828E838FF0C004C003C00212A6
:101FDA001A797420C0E0E4C0E0C0E090001175F006
:101FEA0060123B5B158115811581789CE2FE7F00AA
:101FFA00C006C00774C9C0E07459C0E07480C0E06C
:10200A00741DC0E07400C0E07460C0E01239ECE5F1
:10201A008124F8F581D002D003D00474092AFDE4A2
:10202A003BFE8C078D828E838FF0123E04FDA31235
:10203A003E04FEC004C003C002C005C006900011E1
:10204A0075F060120FA115811581D002D003D0045A
:10205A00D21174152AFAE43BFB8A828B838CF01224
:10206A003E04FAA3123E04FBE4C0E0C0E08A828B7D
:10207A008312190F1581158122AD82AE83AFF08DBF
:10208A00028E038F04783DE25410605674092AFACE
:10209A00E43BFB8A828B838CF0783B123E04F2A3EA
:1020AA00123E0408F2789CE22401F2789CE2FB7C5E
:1020BA0000C007C006C005C003C00474C9C0E074EC
:1020CA0059C0E07480C0E0741DC0E07400C0E074C0
:1020DA0060C0E01239ECE58124F8F581D005D0061C
:1020EA00D007783DE254206037789CE2B404317816
:1020FA009C7409F2C007C006C005749CC0E0740055
:10210A00C0E07460C0E074B4C0E0741FC0E0900323
:10211A00E812195AE58124FBF581D005D006D007CB
:10212A008D828E838FF0021C9F787FE2C0E008E2E6
:10213A00C0E074C9C0E07459C0E07480C0E0742182
:10214A00C0E07400C0E07460C0E01239ECE581249C
:10215A00F8F581787FE2C0E008E2C0E090001175EE
:10216A00F060120FA115811581D21122121A797805
:10217A009B7402F2D21274CCC0E07459C0E074802D
:10218A00C0E0741AC0E07400C0E07460C0E01239A4
:10219A00ECE58124FAF581789D7401F208E4F2787D
:1021AA00447487F27892743CF208E4F2789404F268
:1021BA0008E4F278967410F208740EF278987403B0
:1021CA00F2789903F2789A7487F2022133121A7913
:1021DA00787FE2C0E008E2C0E090001175F060127A
:1021EA000FA115811581D211220218EDAD82AE839D
:1021FA00AFF08D028E038F04300E14B20574142AC8
:10220A00FAE43BFB8A828B838CF074FF12380E8DC2
:10221A00828E838FF0021C9F7844E4F22230185891
:10222A007896E2FE08E2FF789DE2B5060708E2B575
:10223A000702800280117894799DE2F308E209F39B
:10224A00789A7944E2F3227892E2FE08E2FFC00625
:10225A00C007789DE2F58208E2F583123859AE820A
:10226A00AF8315811581789DEEF208EFF27898E236
:10227A00FF7844E2C39FF2227894E2FE08E2FF78F4
:10228A009DE2B5060708E2B507028002801178963A
:10229A00799DE2F308E209F378997944E2F3227826
:1022AA0092E2FE08E2FFC006C007789DE2F58208C6
:1022BA00E2F583123656AE82AF8315811581789D79
:1022CA00EEF208EFF27898E2FF7844E22FF222ADBC
:1022DA0082AE83AFF03018468D828E838FF0123E25
:1022EA0004FBA3123E04FCC005C006C00774FFC36A
:1022FA009BFA74FF9CFF789DC3E29A08E29FD0077D
:10230A00D006D005504E789DE22BFB08E23CFC8DAE
:10231A00828E838FF0EB12380EA3EC02380E8D8278
:10232A008E838FF0123E04FBA3123E04FC789DC3F9
:10233A00E29B08E29C501D789DD3E29BF4B3FBB369
:10234A0008E29CF4FC8D828E838FF0EB12380EA388
:10235A00EC02380E22AD82AE83AFF0C218789BE24F
:10236A00FC6008BC0102800302241F300C5278551D
:10237A00C3E294A008E2940F5046C007C006C00505
:10238A00785DE2C0E008E2C0E074D4C0E07459C0ED
:10239A00E07480C0E0123CD6E58124FBF581D005CB
:1023AA00D006D007C2F0C007C006C00585F0238D4D
:1023BA00828E838FF01222D9D005D006D007D21888
:1023CA00300E527859C3E294A008E2940F5046C0E6
:1023DA0007C006C0057861E2C0E008E2C0E074E325
:1023EA00C0E07459C0E07480C0E0123CD6E5812494
:1023FA00FBF581D005D006D007D2F0C007C006C0D1
:10240A000585F0238D828E838FF01222D9D005D0D4
:10241A0006D007D218789BE2FC600FBC01030224A5
:10242A00E0BC020302252B02263430081C300A19AC
:10243A00300616D2F0C007C006C00585F023122266
:10244A0027D005D006D007D2187843E2FB7C00C01B
:10245A0007C006C005C023740AC0E0E4C0E08B824E
:10246A008C83123E90AB82AC8315811581D023D028
:10247A0005D006D007EB4C6003022634785DC3E230
:10248A00F5F074A095F008E2F5F0740F95F0501C81
:10249A00C2F0C007C006C00585F0238D828E838FE7
:1024AA00F01222D9D005D006D007D2187861C3E23B
:1024BA00F5F074A095F008E2F5F0740F95F040037A
:1024CA00022634D2F085F0238D828E838FF0122279
:1024DA00D9D218022634785DC3E2F5F074A095F0DB
:1024EA0008E2F5F0740F95F0500D30060AD2F08527
:1024FA00F023122227D2187861C3E2F5F074A0956E
:10250A00F008E2F5F0740F95F04003022634200635
:10251A0003022634C2F085F023122227D21802269B
:10252A0034300C377855C3E294A008E2940F502B4C
:10253A00C007C006C00574F2C0E07459C0E07480D8
:10254A00C0E0123CD6158115811581D2F085F023A1
:10255A00122227D005D006D007D218300E3FC00766
:10256A00C006C00574FEC0E07459C0E07480C0E0C3
:10257A00123CD6158115811581D005D006D007A247
:10258A001292F0C007C006C00585F0238D828E83A3
:10259A008FF01222D9D005D006D007D218785DC3A1
:1025AA00E2F5F074A095F008E2F5F0740F95F0509A
:1025BA0023300620B212A21292F0C007C006C0054C
:1025CA0085F0238D828E838FF01222D9D005D00612
:1025DA00D007D2187861C3E2F5F074A095F008E24A
:1025EA00F5F0740F95F050427843E2FB7C00C00787
:1025FA00C006C005C023740AC0E0E4C0E08B828C28
:10260A0083123E90AB82AC8315811581D023D0050D
:10261A00D006D007EB4C7012A21292F085F0238DEF
:10262A00828E838FF01222D9D218A21822AD82AEDE
:10263A0083AFF090007F75F060C007C006C0051236
:10264A00235FD005D006D007500FC007C006C005CB
:10265A00122133D005D006D0078D828E838FF002E7
:10266A001C9F7821799CE2F378737411F208740044
:10267A00F2087460F278767982E3F20809E3F208E4
:10268A0009E3F20809E3F2787A7402F2787B14F229
:10269A00787C740AF208745AF2087480F290007313
:1026AA0075F060120B39E4C0E07424C0E07474C0A1
:1026BA00E07449C0E07886E2F58208E2F58308E230
:1026CA00F5F008E2123829AF82E58124FCF581EFA2
:1026DA0060697873741BF2087400F2087460F2E49B
:1026EA00C0E0C0E0747AC0E07444C0E07886E2F5E5
:1026FA008208E2F58308E2F5F008E2123D41AC8275
:10270A00AD83AEF0FFE58124FCF5817876ECF20822
:10271A00EDF208EEF208EFF2787A7403F2787B743D
:10272A0001F2787C740FF208745AF2087480F290FD
:10273A00007375F060120B390228437480C0E0748C
:10274A0096C0E07418C0E0744BC0E07886E2F58267
:10275A0008E2F58308E2F5F008E2123829AF82E5CB
:10276A008124FCF581EF60697873741BF2087400A8
:10277A00F2087460F2E4C0E07424C0E07474C0E04B
:10278A007449C0E07886E2F58208E2F58308E2F54A
:10279A00F008E2123D41AC82AD83AEF0FFE5812440
:1027AA00FCF5817876ECF208EDF208EEF208EFF229
:1027BA00787A7401F2787B04F2787C7411F20874E6
:1027CA005AF2087480F290007375F060120B398027
:1027DA00687873741BF2087400F2087460F2E4C03B
:1027EA00E07424C0E07474C0E07449C0E07886E202
:1027FA00F58208E2F58308E2F5F008E2123D41AC01
:10280A0082AD83AEF0FFE58124FCF5817876ECF2A7
:10281A0008EDF208EEF208EFF2787A7403F2787BA8
:10282A007401F2787C7411F208745AF2087480F216
:10283A0090007375F060120B397821799CE3F222CB
:10284A00C02C85812CAC82AD83AEF0FFE5812408D3
:10285A00F581788AA92C09D3E29CF4B3F7B308E28C
:10286A009DF4B309F7B308E29EF4B309F7B308E29B
:10287A009FF409F7A82C0879A2E6F30809E6F308F9
:10288A0009E6F30809E6F37834E2F58208E2F5830B
:10289A00123ABCAA82AB83AEF0FFC002C003C006E4
:1028AA00C007900FD075F0C974401236F3C8E52CF2
:1028BA002405C8A68208A68308A6F008F6E581249E
:1028CA00FCF5817832E2F58208E2F583123ABCAA75
:1028DA0082AB83AEF0FFC002C003C006C007E52C7E
:1028EA002405F886820886830886F008E61236F3FD
:1028FA00AC82AD83AEF0FFE58124FCF581E4C0E053
:10290A00C0E0747AC0E07444C0E08C828D838EF09B
:10291A00EF123D41C8E52C2405C8A68208A6830803
:10292A00A6F008F6E58124FCF581A82C0886820821
:10293A0086830886F008E61237F7AA82AB83AEF0E0
:10294A00FFC002C003C006C007E52C2405F8868232
:10295A000886830886F008E6123D41AC82AD83AE54
:10296A00F0FFE58124FCF581C004C005C006C0075C
:10297A0090000075F06174451236F3AC82AD83AEF7
:10298A00F0FFE58124FCF581E4C0E0C0E0747AC080
:10299A00E07444C0E08C828D838EF0EF123D41AC2E
:1029AA0082AD83AEF0FFE58124FCF5817882ECF2FA
:1029BA0008EDF208EEF208EFF2852C81D02C2212F3
:1029CA001A797882E4F208F208F208F27886F208B4
:1029DA00F208F208F212266CD21122C02C85812C40
:1029EA00C082C083C0F0788AE2B5281208E2B5290D
:1029FA000D08E2B52A0808E2B52B03022B28788ACB
:102A0A00E2F5F008E242F008E242F008E245F0702E
:102A1A0003022AF6852882852983852AF0E52B1266
:102A2A00284AE4C0E0C0E074C8C0E07442C0E0785C
:102A3A0082E2F58208E2F58308E2F5F008E212384C
:102A4A0029AC82E58124FCF581EC7003022B157810
:102A5A0082E2FA08E2FB08E2FC08E2FF786DEAF299
:102A6A0008EBF208ECF208EFF27834E2F58208E2B9
:102A7A00F583123ABCAC82AD83AEF0FFC004C00548
:102A8A00C006C007900FD075F0C974401236F3AC77
:102A9A0082AD83AEF0FFE58124FCF581C004C00558
:102AAA00C006C0077886E2F58208E2F58308E2F5F7
:102ABA00F008E212387BAC82AD83AEF0FFE58124E8
:102ACA00FCF5817886ECF208EDF208EEF208EFF2F6
:102ADA0012266CD211AC28AD29AE2AAF2B788AEC1B
:102AEA00F208EDF208EEF208EFF2801FE528452918
:102AFA00452A452B6015AA28AB29AC2AAF2B788A20
:102B0A00EAF208EBF208ECF208EFF27405C0E0E42E
:102B1A00C0E0758202121C3C15811581805E300668
:102B2A005B8524828525838526F0E52712284A7845
:102B3A006DE2C0E008E2C0E008E2C0E008E2C0E0FE
:102B4A007882E2F58208E2F58308E2F5F008E212FB
:102B5A003829AF82E58124FCF581EF601F12266CCB
:102B6A00D2117882E2FC08E2FD08E2FE08E2FF7870
:102B7A006DECF208EDF208EEF208EFF2A82C0886E6
:102B8A00820886830886F0121C9F852C81D02C220D
:102B9A00C02C85812CAD82AE83AFF0E52C24FDF8E4
:102BAA00E624F85007E52C24FDF876077C00E52C8E
:102BBA0024FDF8C3EC96500AEC2411F8745FF20C69
:102BCA0080ECE52C24FDF8E62411F87420F2E52CBB
:102BDA0024FCF8E6FC14FB24F950027B06E52C24BD
:102BEA00FCF8E624F6506AC005C006C007EB2411BB
:102BFA00F9E52C24FCF886027F00C007C003C00256
:102C0A00C001740AC0E0E4C0E08A828F83123ECD1C
:102C1A00AD8215811581D001D002D003D00774305E
:102C2A002DF38B06EE042411F9C005C001740AC005
:102C3A00E0E4C0E08A828F83123E90AE821581154D
:102C4A0081D001D00574302EF3D007D006D005808C
:102C5A0008EB2411F974302CF3C007C006C00574C0
:102C6A0010C0E0E4C0E0C0E090002175F060123BC3
:102C7A005B158115811581D005D006D007E52C2476
:102C8A00FCF886037C001BBBFF011CC007C006C002
:102C9A0005C003C004900003123859AB82AC8315F7
:102CAA00811581D005D006D007EB2DFDEC3EFE8DB7
:102CBA00828E838FF0123E04FDA3123E04FEA312FD
:102CCA003E04FFC005C006C00774B1C0E07459C015
:102CDA00E07480C0E07421C0E07400C0E07460C099
:102CEA00E01239ECE58124F7F581D211D02C22C00B
:102CFA002C85812CAD82AE83AFF0300C58789CC302
:102D0A00E2F5F0740195F0502B789CE214F2C007BA
:102D1A00C006C005789CE2C0E0E52C24FDF8E6C0B8
:102D2A00E08D828E838FF0122B9A15811581D00542
:102D3A00D006D007C007C006C00574F2C0E07459B7
:102D4A00C0E07480C0E0123CD6158115811581D08F
:102D5A0005D006D007300E41789CE52C24FDF9C336
:102D6A00E2975020789CE22401F2789CE2C0E0E5E8
:102D7A002C24FDF8E6C0E08D828E838FF0122B9A08
:102D8A001581158174FEC0E07459C0E07480C0E0FA
:102D9A00123CD6158115811581D02C22AD82AE83C5
:102DAA00AFF01000028006758208021B4B8D828EDE
:102DBA00838FF0121A797872E2FF789CF2C0077456
:102DCA000AC0E09000C075F060122B9A1581158137
:102DDA0022121C9F740AC0E09000C075F060122C89
:102DEA00F91581300F1D789CE2F582121B4B741481
:102DFA00C0E0745AC0E07480C0E0123CD615811558
:102E0A0081158122121A79789B7401F2789CF278E2
:102E1A009FE4F27832E2FE08E2FF788EEEF208EFE3
:102E2A00F27834E2FE08E2FF7890EEF208EFF278E8
:102E3A0092740AF208E4F2789404F208E4F27896BA
:102E4A007410F2087427F278987401F27899749BD6
:102E5A00F2789A749FF2789CE2C0E07402C0E09023
:102E6A0035F575F080122B9A1581158122AD82AE47
:102E7A0083AFF0789FE26003022FF3C007C006C059
:102E8A00057402C0E09035F575F080122CF91581B1
:102E9A00D005D006D007200D03022F4B788E793249
:102EAA00E2F5F0E3B5F00B08E2F5F009E3B5F0025C
:102EBA008002801678907934E2F5F0E3B5F00B08D9
:102ECA00E2F5F009E3B5F0028042789F7402F2C09D
:102EDA0007C006C0057420C0E0745AC0E07480C000
:102EEA00E074B1C0E07459C0E07480C0E0742CC0D2
:102EFA00E07400C0E07460C0E01239ECE58124F7A8
:102F0A00F581D005D006D007D21180147872E2F587
:102F1A0082C007C006C005121B4BD005D006D007D9
:102F2A00C007C006C0057426C0E0745AC0E07480A9
:102F3A00C0E0123CD6158115811581D005D006D086
:102F4A0007200F030231AA789F7401F2789CE2B439
:102F5A00010E78BD748EF208E4F2087460F2800CF7
:102F6A0078BD7490F208E4F2087460F278BDE2FA6F
:102F7A0008E2FB08E2FC8A828B838CF0123E04FA98
:102F8A00A3123E04FBC007C006C005C002C00374FA
:102F9A0032C0E0745AC0E07480C0E0742CC0E0749F
:102FAA0000C0E07460C0E01239ECE58124F8F581D4
:102FBA00D005D006D0077844749FF2D211789D7458
:102FCA0001F208E4F2C007C006C0057414C0E07438
:102FDA005AC0E07480C0E0123CD615811581158173
:102FEA00D005D006D0070231AA789FE2B401028048
:102FFA00030230F878BDE2F58208E2F58308E2F5CB
:10300A00F0C007C006C00512235FD005D006D0075E
:10301A00504C78BDE2FA08E2FB08E2FC8A828B8314
:10302A008CF0123E04FAA3123E04FBC007C006C08D
:10303A0005C002C0037432C0E0745AC0E07480C094
:10304A00E0742CC0E07400C0E07460C0E01239EC97
:10305A00E58124F8F581D005D006D007D211300DCC
:10306A0054789FE4F2789CE2B401107832E2FB08CB
:10307A00E2FC788EEBF208ECF2800E7834E2FB0880
:10308A00E2FC7890EBF208ECF2C007C006C00574C7
:10309A0005C0E0E4C0E07420C0E090002C75F06048
:1030AA00123B5B158115811581D005D006D007D258
:1030BA00117844E4F2200F030231AA789FE4F2C0A7
:1030CA0007C006C0057405C0E0E4C0E07420C0E093
:1030DA0090002C75F060123B5B158115811581D02B
:1030EA0005D006D007D2117844E4F20231AA789FBB
:1030FA00E2B4020280030231AA200F03023193C014
:10310A0007C006C0057890E2C0E008E2C0E0788E09
:10311A00E2F58208E2F58312091B15811581788E82
:10312A00E2FB08E2FC7832EBF208ECF27890E2FB80
:10313A0008E2FC7834EBF208ECF2789FE4F2789C2F
:10314A00E2C0E07402C0E09035F575F080122B9A67
:10315A00158115817437C0E0745AC0E07480C0E0EC
:10316A0074B1C0E07459C0E07480C0E0742CC0E04F
:10317A007400C0E07460C0E01239ECE58124F7F510
:10318A0081D005D006D007D211300D147872E2F53D
:10319A0082C007C006C005121B4BD005D006D00757
:1031AA008D828E838FF0021C9F121A79789C74018B
:1031BA00F2789FE4F204C0E07405C0E09035FB7534
:1031CA00F080122B9A1581158122AD82AE83E4C05C
:1031DA00E0C0E08D828E8312190F1581158122AD10
:1031EA0082AE83AFF0C007C006C0057405C0E09088
:1031FA0035FB75F080122CF91581D005D006D00761
:10320A00300D55C007C006C0051218E2D005D00619
:10321A00D0075011C007C006C0051218EDD005D05E
:10322A0006D0078012758200C007C006C005121BAF
:10323A004BD005D006D007C007C006C0057426C00B
:10324A00E0745AC0E07480C0E0123CD61581158142
:10325A001581D005D006D007300F62789CE2FC1C9D
:10326A00C2D575F002EC30E704B2D5F404A430D527
:10327A000AF42401C5F0F43400C5F0240AF5827476
:10328A003635F0F583E493FBA3E493FCC007C0064C
:10329A00C005E4C0E0C0E08B828C8312190F15814F
:1032AA0015817414C0E0745AC0E07480C0E0123C06
:1032BA00D6158115811581D005D006D007783DE253
:1032CA005420700302335D789CE2B4050040030287
:1032DA00335D789CE22401F2C007C006C005789CE1
:1032EA00E2C0E07405C0E09035FB75F080122B9ABD
:1032FA0015811581D005D006D007789CE2FC1CC246
:10330A00D575F002EC30E704B2D5F404A430D50A3E
:10331A00F42401C5F0F43400C5F0240AF5827436A9
:10332A0035F0F583E493FBA3E493FC7A80C007C0ED
:10333A0006C005C003C004C00274D4C0E07431C022
:10334A00E090012C12195AE58124FBF581D005D0B1
:10335A0006D007C007C006C0051218E2D005D0067D
:10336A00D00750067869E4F208F28D828E838FF0D6
:10337A00021C9F121A79743DC0E0745AC0E074802E
:10338A00C0E090001175F06012368715811581151D
:10339A00817447C0E0745AC0E07480C0E090002194
:1033AA0075F060123687158115811581D21122AD0B
:1033BA0082AE83AFF0300F23D203C007C006C00528
:1033CA007450C0E0745AC0E07480C0E0123CD61554
:1033DA008115811581D005D006D0078D828E838F05
:1033EA00F0021C9F121A797467C0E0745AC0E07424
:1033FA0080C0E090001175F0601236871581158142
:10340A001581D21122AD82AE83AFF0783DE254200D
:10341A00600FC007C006C005120A42D005D006D008
:10342A0007300D0FC007C006C0051218EDD005D031
:10343A0006D00730061DC007C006C0057464C0E088
:10344A00E4C0E075820812162615811581D005D0D0
:10345A0006D0078D828E838FF0021C9F121A79780C
:10346A009C7401F2C0E0740BC0E090361475F080D1
:10347A00122B9A1581158122AD82AE83AFF0C00757
:10348A00C006C005740BC0E090361475F080122C8B
:10349A00F91581D005D006D007300D12758200C00B
:1034AA0007C006C005121B4BD005D006D007300F47
:1034BA0034789CE2FC1CC2D575F002EC30E704B209
:1034CA00D5F404A430D50AF42401C5F0F43400C5B7
:1034DA00F02435F582743635F0F583787FE493F27B
:0E34EA00A3E49308F28D828E838FF0021C9F64
:10597000637572207461736B2074696D6563742D37
:105980002D2D696E69742025780D0A007569202512
:10599000752D3E25750D0A002573257300322E33B3
:1059A00030005F3937663962313020636C65616E73
:1059B0000025730031313A34343A3433004665629D
:1059C00020313620323032310025750054696D6542
:1059D0006F7574006B6579204131207570202575D5
:1059E0000D0A006B65792041332075702025750DF7
:1059F0000A006B65792041312075700D0A006B65D6
:105A0000792041332075700D0A006B6D2F68006D91
:045A1000006B6D00BA
:1034F800775A80A62DDB2D0000000000210AFFFF6F
:10350800FFFFFFFF0900007C5A80BC1F83200000DA
:103518002C0115101BFF00FFFFFFFFFF6D55835A9D
:1035280080663482340000000000210AFF00FF0496
:10353800FFFF090000945A807621372622220000D6
:1035480000211BFF00FF0402FF090000A05A80D7DA
:1035580021F621F32100003D101BFFFEFFFFFFFEB7
:1035680009EE53A65A80C929E5290000FF7F5110AA
:103578001BFF00FFFFFFFFFF0000AA5A80B331E9DD
:10358800310000000000210AFFFFFFFFFFFF0900D4
:1035980000B05A800E2E772E0000000000210AFF8E
:1035A800FFFFFFFFFF090000BA5A807D33B93300DF
:1035B80000010010211BFF00FFFFFFFD093057C964
:1035C8005A80EE330F3400000A0017101BFFFEFF6D
:1035D800FFFFFFFF3957D35A80181FB11F000000A3
:1035E80000000021FF00FFFFFFFF090000DB5A80F9
:0335F800E55A8011
:105A14006B65792041342075700D0A0053617665F9
:105A24003F006B65792041322075700D0A002530E6
:095A3400357500536176656400CC
:1035FB00EF5A80FA5A80045B80125B801C5B80EE72
:09360B0052EE53265276557D570C
:105A3D00576174636820446F67005761726E696EB9
:105A4D006721007465737420776174636820646FD7
:105A5D00672072657365740D0A005077724F666624
:0A5A6D00436F756E74446F776E008E
:103614002B5B80325B80395B80405B80435B8047FF
:103624005B804D5B80535B80595B80605B80675B34
:10363400808403100E080705001E003C0078002C4F
:07364400015802B004201C34
:105A77004D656E750035206D696E730050726564F3
:105A87006566696E65642074696D65720053657437
:105A97002074696D656F75740054696D6572004C8B
:105AA700434A004D757369630043616C6920646103
:105AB700746100576174636820446F67205761728F
:105AC7006E00506F776572204F6666005665727379
:105AD700696F6E0074696D65722063616C00776829
:105AE70065656C2063616C005368616F4C696E5328
:105AF7006869005869616E674C69616E004861703A
:105B070070794269727468446179005869596F7590
:105B17004A695F3100596F754A69616E43687569F3
:105B270059616E003135206D696E003120686F75DF
:105B370072003330206D696E0035730033307300A7
:105B470031206D696E0032206D696E0035206D69F8
:105B57006E003130206D696E003230206D696E0045
:075B67003220686F75720027
:0D00410075812C12380AE582600302003E32
:10364B00A8811818C6B2E7C602387BE58124FEF8BC
:10365B00E6F918E6F87A10E4FBFCE58225E0F58242
:10366B00E58333F583EB33FBEC33FCEB98F5F0ECB4
:10367B00994006FCABF0438201DADF22C02C858136
:10368B002CC082C083C0F0058105810581E52C2407
:10369B00FBF88602088603088604A82C08E52C2470
:1036AB0004F9E6F70809E6F70809E6F78A828B833F
:1036BB008CF0123E04FFA3AA82AB83E52C2404F802
:1036CB0086820886830886F0EF12380EA31818A698
:1036DB008208A683EF70D5A82C08868208868308FB
:1036EB0086F0852C81D02C22123796BC0003023C2D
:1036FB006AEF60FA30D502B2D1E583B4FF03023C26
:10370B0080E582B4FF03023C80258340072482407E
:10371B000B023C6A2483145003023C80F582EA8D31
:10372B00F0A4A8F0EA8EF0A428F8E435F0F9EB8DBC
:10373B00F0A428E935F0F9E433CA8FF0A429F9EAAB
:10374B0035F0FAEBF88EF0A429F9EA35F0FAE43308
:10375B00FBEC8DF0A429F9EA35F0FAE43BFBE88F9A
:10376B00F0A42AFAEB35F0FBE433CCFD8EF0A42A5F
:10377B00FAEB35F0FBE43CFCED8FF0A42BFBEC35C6
:10378B00F0FC20E7031237C4023C49AA82AB83A2A8
:10379B00F73392D1F5826002D2F7ACF0E58124F9D0
:1037AB00F8E6FD08E6FE0886F008E6A2F73392D5A8
:0937BB00F5836002D2F7AFF022A1
:06007000E478FFF6D8FD64
:1037C4007804EC7011E58224F8500AF582E4C9CA41
:1037D400CBFCD8EF22EC7820058220E713D58201B8
:1037E40022C3E933F9EA33FAEB33FBEC33FCD8EACE
:0337F40015822219
:10004E007900E94400601B7A00905B79780175A015
:10005E0000E493F2A308B8000205A0D9F4DAF27511
:02006E00A0FFF1
:1037F700FCABF0AA83A982749EC2D1F5821237C4AA
:10380700023C497582002220F71130F6138883A8FD
:103817008220F509F6A8837583002280FEF280F5E1
:10382700F022FFA88118181238F2D2D133E64007E8
:1038370030E70B7582002220E70675820122C2D18C
:103847001238D4E97003F5822220D101B3E433F5AD
:10385700822274FE2581F8E68582F0A4C0E0858285
:10386700F018E6A4F582D0E025F0C58386F0A425FC
:1038770083F583221237967900E583B58202800D9E
:103887005003123D0FE583C39582123F0AE5D0C46A
:1038970065D020E117EA2DFAEB3EFBEC3FFC50091F
:1038A7007401123F0AEC4480FC023C49C3EA9DFACA
:1038B700EB9EFBEC9FFC500FC3E499F9E49AFAE402
:0D38C7009BFBE49CFCB2D11237C4023C49CB
:1000760078DDE84400600A790175A000E4F309D848
:10008600FC7800E84400600C7900900001E4F0A3DD
:04009600D8FCD9FABF
:1038D4007901AA82E68F82B5821318E6B5F00E1834
:1038E400E6B5830918E68A82B58202790022B4809B
:1038F4000FE5F0700AE5837006E58270027F00EF41
:10390400B6801518B6001018B6000B18B6000608D5
:10391400080876002208080822C02C85812CC08261
:10392400058105810581E52C24FBF8A92C0909E60C
:10393400F70809E6F70809E6F7A82C0808868208BC
:1039440086830886F0123E04FAA3123E04FBA312F7
:103954003E04FF74012AFCE43BFD8F06A82C0808F2
:1039640086820886830886F0EC12380EA3ED12389E
:103974000EA3EE12380E8A828B838FF0A82C08E6F1
:1039840012380E852C81D02C22C02C85812CC0822B
:10399400C083C0F0AF2C0F7E007D40E52C24FAF8E4
:1039A400E6C0E0E52C24FBF8E6C0E008E6C0E00849
:1039B400E6C0E0C007C006C00590391D1240BFAE86
:1039C40082AF83E58124F9F581A82C088603088653
:1039D400040886058B828C838DF0E412380E8E8267
:1039E4008F83852C81D02C22C02CE581F52C24F8E2
:1039F400FFE52C24FBFE7D007C40C007E52C24F869
:103A0400F8E6C0E008E6C0E008E6C0E0C006C0058D
:103A1400C00490391D1240BFAE82AF83E58124F902
:103A2400F581E52C24FBF886030886040886058BBB
:103A3400828C838DF0E412380E8E828F83D02C22F8
:103A4400FBE58124FBF8E6F9087A20E4FCFDFEFF9F
:103A5400E5822582F582E58333F583E5F033F5F0DD
:103A6400EB33FB4017DAE98042E5822582F582E5F3
:103A74008333F583E5F033F5F0EB33FBEC33FCED06
:103A840033FDEE33FEEF33FFEC99ED96EE0896EF3F
:103A9400089618184013EC99FCED96FDEE0896FE76
:103AA400EF0896FF1818438201DABEEB227F8E12CC
:103AB4005169F58385F08222E4AC83AB82FAF97410
:103AC4008E023800C02CE581F52C2408F581AD82E6
:103AD400AE83AFF0E52C2406F8A60508A60608A6D2
:103AE40007E52C24FBF8A92C09E6F70809E6F708F2
:103AF40009E6F7E52C24F9F8E52C2404F9E6F7089F
:103B040009E6F7E52C2404F88603088604E52C244A
:103B140004F816B6FF020816EB4C6028A82C088699
:103B2400820886830886F0123E04FCA31818A68235
:103B340008A6838D828E838FF0EC12380EA3AD829B
:103B4400AE8380BFE52C2406F88682088683088627
:103B5400F0852C81D02C22C02C85812CC082C0837E
:103B6400C0F005810581A82C088602088603088612
:103B740004E52C24FBF8E52C2404F9E6F70809E60F
:103B8400F7E52C2404F88606088607E52C2404F8B7
:103B940016B6FF020816EE4F60168A828B838CF0ED
:103BA400E52C24FDF8E612380EA3AA82AB8380D15B
:103BB400A82C0886820886830886F0852C81D02C60
:103BC40022C02C85812CC082C083C0F00581058170
:103BD4000581A82C0886020886030886048A828B3D
:103BE400838CF0123E0460070ABA00F10B80EEE504
:103BF4002C24FBF88605088606088607E52C240491
:103C0400F8A60208A60308A6048D828E838FF012FC
:103C14003E04FCA3AD82AE83E52C2404F88682081E
:103C240086830886F0EC12380EA31818A68208A61C
:103C340083EC70D5A82C0886820886830886F085D4
:103C44002C81D02C22B98003EA13B34010EA24015A
:103C5400FAE43BFBE43CFC50047C800582BC000E8F
:103C6400BB000BBA0008E4F5F0F583F58222A2D17B
:103C7400E582138CF092F78B838A8222E4F583F534
:103C84008275F080F4A2D11322E4F583F58275F0F5
:103C9400C0747F22C02C85812C7E008E83120984FF
:103CA400D02C22C02C85812CAD82AE83AFF0E52CC4
:103CB40024FDF8E6C0E0C005C006C007E4C0E0C0CB
:103CC400E0C0E0903C981240BFE58124F9F581D032
:103CD4002C22C02CE581F52C24FBFFC007E52C2405
:103CE400FBF8E6C0E008E6C0E008E6C0E0E4C0E0B7
:103CF400C0E0C0E0903C981240BFAE82AF83E58143
:103D040024F9F5818E828F83D02C22E582C583F538
:103D140082A2D133A2D592D11392D5ECCFFCEBCEB3
:103D2400FBEACDFA22AA82AB83123E046003A3808D
:103D3400F8C3E5829AF582E5839BF58322123796D0
:103D440030D502B2D1BF0009BC0003023C8D023C55
:103D540080BC0003023C6AE583B4FF0BE582B4FF38
:103D640003023C8D023C6AE582B4FF03023C80C33B
:103D740095835007247F400B023C6A24801450032F
:103D8400023C80F582C3ED9AEE9BEF9C40111582B4
:103D9400C3EA33F9EB33FAEC33FBE433FC8005E498
:103DA400CCCBCAF9C08275F019C3E99DEA9EEB9F9A
:103DB400EC9400D5F002802D400EE99DF9EA9EFABC
:103DC400EB9FFBEC9400FCC3B3E833F8E58233F5D6
:103DD40082E58333F583C3E933F9EA33FAEB33FB42
:103DE400EC33FC80C4B3E4F938FAE43582FBE435FF
:103DF40083FCD082500405827C801237C4023C616B
:103E040020F71430F6148883A88220F507E6A883E7
:103E140075830022E280F7E49322E022AAF0FB7487
:103E2400FB2581F8E58286F0A9F008A4FCADF0E555
:103E34008389F0A42DFDE435F0FEE58286F0A42DFF
:103E4400FDE5F03EFEE433FFEA89F0A42EFEE5F042
:103E54003FFFE58386F0A42EFEE5F03FFFE58208F0
:103E640086F0A42EFEE5F03FFFEB89F0A42FFFE5DA
:103E74008386F0A42FFFEA1886F0A42FFFE58208BA
:103E84000886F0A42F8EF08D838C8222C2D5E58320
:103E940030E70DD2D5E4C39582F582E49583F583AA
:103EA400E58124FEF8E630E70918E4C396F6E40851
:103EB40096F68601188600123F5730D50BE4C39559
:103EC40082F582E49583F58322C2D5E58330E70D3C
:103ED400D2D5E4C39582F582E49583F583E5812404
:103EE400FEF8E630E70AB2D518E4C396F6E408967D
:103EF400F918E6F812366030D50BE4C39582F582E2
:103F0400E49583F583226040F82582500274FFF51E
:103F140082E824F8501ECCCBCAF9E4CC24F850141F
:103F2400CBCAF9E4CB24F8500BCAF9E4CA24F850FC
:103F34000379002224086010F8C3EC13FCEB13FB94
:103F4400EA13FAE913F9D8F122E58124FEF886018F
:103F5400188600E84960367A01E825E0F8E933403C
:103F64000EF9E58298E5839940030A80ECC3E913CE
:103F7400F9E813F8C3E58298F5F0E583994005F56F
:103F84008385F082C3E913F9E813F8DAE722C02C39
:103F940085812CAF8274302FFF24C6501074072FF4
:103FA400FFE52C24FDF8E6600474202FFFE52C24A3
:103FB400F8F8E6C0E008E6C0E008E6C0E0123FC654
:103FC400800FE52C24FBF8E6C0E008E6C0E08F8211
:103FD40022158115811581D02C22C02C85812CE5D8
:103FE40082FFC4540FFEC007E52C24F8F8E6C0E0B5
:103FF40008E6C0E008E6C0E0E52C24FBF8E6C0E0F3
:1040040008E6C0E0E52C24FDF8E6C0E08E82123F0D
:1040140092E58124FAF581D00753070FE52C24F8A3
:10402400F8E6C0E008E6C0E008E6C0E0E52C24FBC2
:10403400F8E6C0E008E6C0E0E52C24FDF8E6C0E0C0
:104044008F82123F92E58124FAF581D02C22C02C74
:1040540085812CA9828704098705098706098707B2
:10406400191919740429F87B20C003E626FAEF23F2
:104074005401FBEA4203A603EC2CFCED33FDEE33C2
:10408400FEEF33FFC000E52C24FDF8C3EB96D0000F
:10409400D00340148602C000E52C24FDF8EAC39640
:1040A400FAD000A602430401EB14FB70BCA7040978
:1040B400A70509A70609A707D02C22C02C85812CA7
:1040C400C082C083E5812423F581E52C240CF8E427
:1040D400F608F6E52C2405F8E52C2414F6E52C2442
:1040E40020C8E52C2412C82405F6E52C2414F82451
:1040F40004FAE52C2403F9A702E52C2404F9A70209
:10410400E52C24F8F987060987050987048E828D32
:10411400838CF0123E04FFE52C24F8F974012EF789
:10412400E43D09F709A704EFFE7003025157BE25C9
:10413400028003025119C218C219C21AC21BC21C3E
:10414400C21DC21EC21FE52C241BF97700E52C24D6
:1041540006F9E4F709F7E52C241CF977FF0977FF42
:10416400E52C24F8F9C000E52C2408F8E7F6090842
:10417400E7F60908E7F6D000E52C2408F987820958
:1041840087830987F0C000E52C240BF8123E04F65F
:10419400A31919A78209A783E52C2408F9E52C247F
:1041A400F8F8E7F60908E7F60908E7F6D000E52C81
:1041B400240BF9B72543C002C000E52C24FBF9E722
:1041C400C0E009E7C0E009E7C0E01241D38012A9CA
:1041D4002C09E7C0E009E7C0E0E52C240BF987824D
:1041E40022158115811581D000D002E52C240CF90B
:1041F40007B700020907024104E52C240BF9B73084
:104204000050030242BEE52C240BF9E724C65003F8
:104214000242BEE52C241CF9B7FF5909B7FF55C06B
:1042240002C000C023E52C2406F9E7C0E009E7C07A
:10423400E090000A123859AB82AF8315811581D002
:1042440023D000D002E52C240BF987057E00ED2B4A
:10425400FBEE3FFFE52C2406F9EB24D0F7EF34FF07
:1042640009F7E52C2406F9E70947600302417CD2EB
:104274001902417CC002C000C023E52C241CF9E7CC
:10428400C0E009E7C0E090000A123859AE82AF835B
:1042940015811581D023D000D002E52C240BF98799
:1042A400047D00EC2EFEED3FFFE52C241CF9EE24EA
:1042B400D0F7EF34FF09F702417CE52C240BF9B762
:1042C4002E1DE52C241CF9B7FF0609B7FF02800355
:1042D40002417CE52C241CF9E4F709F702417CE552
:1042E4002C240BF9B76100401CE52C240BF9E724BE
:1042F400854012E52C240BF9E754DFF7E52C241351
:10430400F977018007E52C2413F97700E52C240BB9
:10431400F9B720030243E2E52C240BF9B72B03027F
:1043240043DDE52C240BF9B72D030243D8E52C24F7
:104334000BF9B742030243E7E52C240BF9B7430317
:104344000243F1E52C240BF9B7440302495DE52C43
:10435400240BF9B74603024984E52C240BF9B7482A
:104364000302417CE52C240BF9B7490302495DE5BE
:104374002C240BF9B74A0302417CE52C240BF9B732
:104384004C028064E52C240BF9B74F03024969E51C
:104394002C240BF9B7500302472FE52C240BF9B753
:1043A4005303024461E52C240BF9B7540302417C06
:1043B400E52C240BF9B75503024972E52C240BF9BB
:1043C400B7580302497BE52C240BF9B75A03024181
:1043D4007C024988D21802417CD21A02417CD21B49
:1043E40002417CD21D02417CD21E02417C301D1749
:1043F400C000E52C24F7F8E614F9E52C24F7F8A618
:1044040001D00087068014E52C24F7F9E724FEFD8B
:10441400E52C24F7F9A7058D018706C002C000C06A
:1044240023E52C24FBF9E7C0E009E7C0E009E7C075
:10443400E012443A800DA92C09E7C0E009E7C0E086
:104444008E8222158115811581D023D000D002E5FA
:104454002C240CF907B7000209070249ECE52C24C7
:1044640014F9C000E52C24F7F8E624FDFEE52C241D
:10447400F7F8A606A8068604088605088606D0006E
:10448400A70409A70509A70619198C828D838EF044
:10449400C002C001C000C023123D29C000C8E52CE1
:1044A4002410C8A68208A683D000D023D000D0014F
:1044B400D002C000E52C241CF8B6FF0608B6FF02A3
:1044C4008004D0008016E52C2410F8C001E52C24CB
:1044D4001CF9E6F70809E6F7D001D000301803020A
:1044E40045B8C000E52C2410F8C001E52C2406F9D9
:1044F400C3E69708E60997D001D00040030245B807
:10450400C000E52C2406F8C001E52C2410F9E6C30C
:1045140097FE08E60997FDE52C240CF8E52C240EFB
:10452400F9E6F70809E6F7D001D0008E048D071EDE
:10453400BEFF011DEC4F605AC006C005C002C00199
:10454400C000C0238500F0E52C24FBF8E6C0E00899
:10455400E6C0E008E6C0E0A8F012456280118500DC
:10456400F0A82C08E6C0E008E6C0E0758220221519
:104574008115811581D023D000D001D002D005D07F
:1045840006C000E52C240EF806B600020806D0008A
:104594008099C000E52C240EF8C001E52C240CF908
:1045A400E6F70809E6F7D001E52C2406F8A6060884
:1045B400A605D000C000E52C241CF8860408860754
:1045C400E52C240CF8C001E52C240EF9E6F70809C3
:1045D400E6F7D001D0008703098705098706191972
:1045E4008B828D838EF0123E04FBFE700302467AAA
:1045F400C3E49C74808FF063F08095F050781CBC09
:10460400FF011FC007C004C002C001C000C0238551
:1046140000F0E52C24FBF8E6C0E008E6C0E008E67C
:10462400C0E0A8F012462D80108500F0A82C08E602
:10463400C0E008E6C0E08E8222158115811581D084
:1046440023D000D001D002D004D007C000E52C2430
:104654000EF806B600020806D0008703098705098C
:10466400870619190BBB00010DA70309A70509A7A4
:104674000619190245DAE52C240EF9C000E52C24AC
:104684000CF8E7F60908E7F6D0002018030249EC15
:10469400E52C2410F9C000E52C2406F8C3E796099C
:1046A400E70896D00040030249ECE52C2406F9C043
:1046B40000E52C2410F8E7C396FE09E70896FFE509
:1046C4002C240EF9E52C2419F8E7F60908E7F6D0AE
:1046D400008E048F051EBEFF011FEC4D70030249BE
:1046E400CEC007C006C002C000C023E52C24FBF9DD
:1046F400E7C0E009E7C0E009E7C0E0124704800E24
:10470400A92C09E7C0E009E7C0E0758220221581E1
:1047140015811581D023D000D002D006D007E52C16
:104724002419F907B70002090780A6E52C2414F917
:10473400C000E52C24F7F8E624FDFDE52C24F7F869
:10474400A605A8058603088604088605D000A703E5
:1047540009A70409A7051919E52C2414FE2402F954
:104764008707BF800040047D438014BF600040047D
:104774007D50800BBF400040047D4980027D58C0BD
:1047840006C005C002C000C023E52C24FBF9E7C025
:10479400E009E7C0E009E7C0E01247A2800DA92CB8
:1047A40009E7C0E009E7C0E08D8222158115811573
:1047B40081D023D000D002D005D006E52C240CF9FA
:1047C400740127FCE40937FBC006C005C004C0031C
:1047D400C002C000C023E52C24FBF9E7C0E009E7D0
:1047E400C0E009E7C0E01247EF800EA92C09E7C03A
:1047F400E009E7C0E075823A22158115811581D060
:1048040023D000D002D003D004D005D0060CBC00C5
:10481400010BC006C005C004C003C002C000C02311
:10482400E52C24FBF9E7C0E009E7C0E009E7C0E0B4
:10483400124839800EA92C09E7C0E009E7C0E075E9
:10484400823022158115811581D023D000D002D069
:1048540003D004D005D0060CBC00010BC006C00573
:10486400C004C003C002C000C023E52C24FBF9E748
:10487400C0E009E7C0E009E7C0E0124883800EA960
:104884002C09E7C0E009E7C0E0758278221581159C
:10489400811581D023D000D002D003D004D005D01C
:1048A4000674012CFCE43BFFBD49028052BD50025A
:1048B400804DEE04F98705C007C004C002C000C0E3
:1048C40023E52C24FBF9E7C0E009E7C0E009E7C0D1
:1048D400E0A92C09E7C0E009E7C0E0E52C2413F9BE
:1048E400E7C0E08D82123FDEE58124FAF581D02312
:1048F400D000D002D004D00774022CFCE43FFFE5C2
:104904002C2405F987018705C007C004C002C00034
:10491400C023E52C24FBF9E7C0E009E7C0E009E780
:10492400C0E0A92C09E7C0E009E7C0E0E52C2413A6
:10493400F9E7C0E08D82123FDEE58124FAF581D0EB
:1049440023D000D002D004D007E52C240CF9740243
:104954002CF7E43F09F70249ECD21CE52C241BF99F
:10496400770A0249ECE52C241BF97708807AE52CB8
:10497400241BF9770A8071E52C241BF977108068D1
:10498400D21F8064C002C000C023E52C24FBF9E7D9
:10499400C0E009E7C0E009E7C0E01249A38012A91A
:1049A4002C09E7C0E009E7C0E0E52C240BF9878275
:1049B40022158115811581D023D000D002E52C2445
:1049C4000CF907B700020907801EE52C2419F9C069
:1049D40000E52C240CF8E7F60908E7F6D000E52CEE
:1049E4002406F9A70609A707201F03024AE0E52CBD
:1049F4002414F9C000E52C24F7F8E624FCFFE52C88
:104A040024F7F8A607A8078604088605088606087A
:104A14008607A70409A70509A70609A707191919ED
:104A2400E52C2414F9776E09775B0977801919E569
:104A34002C240CF88604088603D000C000E52C243E
:104A440008F8E7F609E708F609E708F61919E52C66
:104A54002408F8740126FDE40836FE088607A70535
:104A640009A70609A7071919E52C2408F88682085E
:104A740086830886F0123E04FFD000EFFE70030226
:104A84004104C004C003C002C001C0008500F0E5B9
:104A94002C24FBF8E6C0E008E6C0E008E6C0E0A885
:104AA400F0124AAA80108500F0A82C08E6C0E0089D
:104AB400E6C0E08E8222158115811581D000D001D7
:104AC400D002D003D0040CBC00010BC000E52C24A0
:104AD4000CF8A60408A603D000024A3FE52C241BC8
:104AE400F9E77003024104E52C2412F98707301D0D
:104AF40065C007E52C2414F9C000E52C24F7F8E67A
:104B040014FEE52C24F7F8A606A8068606D0008E27
:104B1400047D007E007F00A70409A70509A70609F4
:104B2400A707191919D007301C03024BF7C00787D0
:104B3400040987050987060987071919197D007E65
:104B4400007F00A70409A70509A70609A7071919E3
:104B540019D007024BF7301E3AC007E52C2414F98C
:104B6400C000E52C24F7F8E624FCFEE52C24F7F835
:104B7400A606A8068604088605088606088607D0C1
:104B840000A70409A70509A70609A707191919D039
:104B9400078060C007E52C2414F9C000E52C24F735
:104BA400F8E624FEFEE52C24F7F8A606A8068605FA
:104BB400088606D000EEFC3395E0FEFFA70509A7A2
:104BC4000409A70609A707191919D007201C24C02E
:104BD4000787040987050987060987071919197EB4
:104BE400007F00A70409A70509A70609A707191943
:104BF40019D007301C4CC007E52C2414F98704098C
:104C04008705098706098707191919EFD00730E7BF
:104C14002FC007870409870509870609870719191B
:104C240019C3E49CFCE49DFDE49EFEE49FFFA704FD
:104C340009A70509A70609A707191919D0078002AA
:104C4400C21CD21D8F01C000E52C2410F8E4F60824
:104C5400F6D000E52C24142404C000F87600D0001B
:104C64008805C002C001C000C0238500F0E52C24E3
:104C74001BF8E6C0E08D821240521581D023D0008B
:104C8400D001D002201D19C000E52C2403F88600B1
:104C94008605D000EDC4FDE7FC4205A70519800A8E
:104CA400C000A8028605D000A705C000E52C24108A
:104CB400F806B600020806D000B21D860308860472
:104CC400088605088607181818EB4C4D4F70848920
:104CD40007E52C2410F9C000E52C241EF8E7F6099A
:104CE40008E7F6D000E52C2406F9E70947700AE541
:104CF4002C2406F97701097700301903024DB530E9
:104D04001803024DB5E52C240CF98704098703E543
:104D14002C2406F9C000E52C2410F8E7F60908E76E
:104D2400F6D000C007E52C241EF987070F8F067FF5
:104D340000E52C2410F9C3EE97EF0997D0075053E0
:104D4400C007C004C003C002C000C023E52C24FB7C
:104D5400F9E7C0E009E7C0E009E7C0E0124D65806B
:104D64000EA92C09E7C0E009E7C0E07582202215EE
:104D74008115811581D023D000D002D003D004D076
:104D8400070CBC00010BE52C2410F917B7FF02092E
:104D9400178090E52C240CF9A70409A703E52C241B
:104DA40010F9C000E52C2406F8E7F60908E7F6D068
:104DB40000301C52C007C002C000C023E52C24FBF5
:104DC400F9E7C0E009E7C0E009E7C0E0124DD5808B
:104DD4000EA92C09E7C0E009E7C0E075822D221571
:104DE4008115811581D023D000D002D007E52C2471
:104DF4000CF907B700020907E52C2406F917B7FFD9
:104E0400020917024EBDE52C241EF9E70947700379
:104E1400024EBD301A51C007C002C000C023E52CA9
:104E240024FBF9E7C0E009E7C0E009E7C0E0124E5F
:104E340037800EA92C09E7C0E009E7C0E075822B92
:104E440022158115811581D023D000D002D007E529
:104E54002C240CF907B700020907E52C2406F917DE
:104E6400B7FF0209178052301B4FC007C002C000B1
:104E7400C023E52C24FBF9E7C0E009E7C0E009E71B
:104E8400C0E0124E8B800EA92C09E7C0E009E7C0F0
:104E9400E075822022158115811581D023D000D0A0
:104EA40002D007E52C240CF907B700020907E52C0A
:104EB4002406F917B7FF020917301803024F58E503
:104EC4002C240CF9C000E52C2410F8E7F60908E7B7
:104ED400F6D000E52C2406F98703098704C0078B64
:104EE400068C071BBBFF011CE52C241EF9C3E79E9F
:104EF40009E79FD0074003024FA13019067D307E99
:104F04000080047D207E00C007C004C003C002C02E
:104F140000C023E52C24FBF9E7C0E009E7C0E00961
:104F2400E7C0E0124F2C800DA92C09E7C0E009E787
:104F3400C0E08D8222158115811581D023D000D047
:104F440002D003D004D007E52C2410F907B70002DF
:104F540009078089E52C2406F9C000E52C241EF8F5
:104F6400C3E69708E60997D0005027E52C2406F9F4
:104F7400C000E52C241EF8E7C396C0E009E70896B4
:104F8400C0E0E52C240FF9D0E0F719D0E0F7D00009
:104F94008029E52C240EF9E4F709F7801EE52C247A
:104FA40010F9C000E52C240CF8E7F60908E7F6D060
:104FB40000E52C240EF9A70309A7048F01C000E51E
:104FC4002C240CF88604088607E52C241EF8C0015E
:104FD400E52C2410F9E6F70809E6F7D001D000C063
:104FE40000E52C2410F88603088606E52C2410F826
:104FF40016B6FF020816D000EB4E700302508BB2B7
:105004001D201D1009E7C4540FFEC000A802A60607
:10501400D000800C8706740F5EC000A802F6D00092
:10502400C000E52C2404F886008606D000C007C022
:1050340004C002C001C000C0238500F0E52C24FB9D
:10504400F8E6C0E008E6C0E008E6C0E0A8F08500A5
:10505400F0A82C08E6C0E008E6C0E0A8F08500F05F
:10506400E52C2413F8E6C0E08E82123F92E58124F9
:10507400FAF581D023D000D001D002D004D0070C9F
:10508400BC00010F024FE3E52C240CF9A70409A787
:1050940007201803024104E52C2419F9A70409A7E1
:1050A40007E52C240EF987040987058C038D071C5A
:1050B400BCFF011DEB4F7003024104C005C004C0D6
:1050C40002C000E52C24FBF9E7C0E009E7C0E009D1
