:040000000200413287
:03000B00020CDB09
:03001300020CCE0E
:01001B0032B2
:0100230032AA
:01002B0032A2
:01003300329A
:03003B00020CC3F1
:03014E0002003E6E
:03003E000201516B
:10015100120AA31216DD7E007F00C3EE9406EF643F
:1001610080948050F1EE2EFCEF33FDEC248DF5826E
:10017100ED3441F583E493FAA3E493FBEC248DFC85
:10018100ED3441F97D80C007C006C003C0021201F1
:1001910094800BC002C0038C8289838DF022D0022F
:0D01A100D003D006D0070EBE00B00F80AD19
:0C418D004712781230133F1556157B12B4
:1001AE0022AF82C2C4C2C6D2C575A0FFD2C485A07A
:1001BE0082C0071201AEAE82D0075306807D00C208
:1001CE00C4EE4D70E4C2C5D2C68F821201AE8582D6
:1001DE00A0D2C4C2C422AF82C2C4C2C6D2C575A048
:1001EE00FFD2C485A082C0071201AEAE82D00753E3
:1001FE0006807D00C2C4EE4D70E4C2C58F8212012E
:10020E00AE8582A0D2C4C2C422C2C4C2C6D2C57533
:10021E00A0FFD2C485A0821201AEAF82530780C266
:10022E00C4EF70EBD2C6D2C485A0821201AEC2C496
:10023E0022C2C4C2C6D2C575A0FFD2C485A0821286
:10024E0001AEC2C422AE82AF83C3E49E74808FF02F
:10025E0063F08095F0501C7C207D0300EC24FFFAA7
:10026E00ED34FFFB8A048B05EA4B70EF1EBEFF01D7
:10027E001F80D622C2C4C2C6C2C57D997E417F8070
:10028E007C008D828E838FF0122E61FBA3AD82AE29
:10029E00838B82C007C006C005C0041201AE8582E2
:1002AE00A0D2C4900004120253D004D005D006D0C0
:1002BE0007C2C40CBC040040C98D828E838FF0121D
:1002CE002E61FC0DBD00010E8C82C007C006C0055C
:1002DE001201E4D005D006D0078D828E838FF012E6
:1002EE002E61FC0DBD00010E8C82C007C006C0053C
:1002FE001201E4D005D006D0078D828E838FF012C6
:10030E002E61F5820201E4C02D85812D05810581C6
:10031E000581AD82AE83AFF0C007C006C0051202E4
:10032E003F7582801201E4D005D006D0078D028E73
:10033E00038F04A82D08A60508A60608A6077F1099
:10034E008F061FEE6059A82D0886820886830886C0
:10035E00F0122E61FEBE0A070ABA00430B8040EE71
:10036E007010A82D0886820886830886F0742012E5
:10037E00286BA82D0886820886830886F0122E61C7
:10038E00FEA31818A68208A6838E82C0071201AF9C
:10039E00D007A82D08860208860308860480A1755A
:1003AE0082C0C004C003C0021201E4D002D003D048
:1003BE00048A058B068C077C108C031CEB603C8D2D
:1003CE00828E838FF0122E61700B8D828E838FF052
:1003DE00742012286B8D828E838FF0122E61FBA3F8
:1003EE00AD82AE838B82C007C006C005C004120169
:1003FE00AFD004D005D006D00780BE852D81D02D7C
:10040E0022E582FF30E72475820FC0071201E4D087
:10041E000753071FBF1000500A8F0674802EF582F7
:10042E000201E474B02FF5820201E475820C020120
:01043E00E4D9
:074199003030303801060C44
:10009A007801E4F208F27803F208F27805F208F23D
:0700AA0008F208F27809F2E8
:10043F00AF82C210EFFD3395E0FEC007C022C005AA
:10044F00C0067400C0E07442C0E07480C0E0122D9A
:10045F0033E58124FBF581D022D007EF30E706C3C7
:10046F00E49FFFD210BF08027F0CBF09027F16C3A3
:10047F00EF648094885008EF75F00AA4FE04FFEF34
:10048F003395E0FEC007C006C022740AC0E0E4C086
:10049F00E08F828E83122E7DAC8215811581D02242
:1004AF00D006D007EC75F00CA4FCC004C022740A6F
:1004BF00C0E0E4C0E08F828E83122EBAAE82158127
:1004CF001581D022D004EE2EFF1F1FEF2CFFC3EE9D
:1004DF006480948440011F3010010F8F057E00C08F
:1004EF0007C005C006740BC0E07442C0E07480C042
:0F04FF00E0122D33E58124FBF581D0078F822297
:1041A0001B1F5C1DB61B281AB0184E17FF15C31431
:1041B00098137F1275117A108E0FAE0EDB0D140D51
:1041C000580CA70BFF0A610ACC093F09BB083D0840
:1041D000C7075707EE068A062C06D305800531056A
:1041E000E604A0045D041F04E303AB037703450367
:1041F0001603EA02C0029802730250022F020F0255
:10420000696E7075742025640D0A006F7574707581
:07421000742025750D0A0062
:10050E000505060605050808070700000505060689
:10051E0005050909080800000505343420200808DF
:10052E000707060600002A2A2020080809090808DD
:10053E00000000007F00000000000000000000002E
:10054E00000000000000000000000000000000009D
:10055E00000000000000000000000000000000008D
:10056E00000000000000000000000000000000007D
:10057E00000000000000000000000000000000006D
:10058E00000000000000000000000000000000005D
:10059E00000000000000000000000000000000004D
:1005AE00000000000000000000000000000000003D
:1005BE00000000000000000000000000000000002D
:1005CE0000000000000000000506080808060808E4
:1005DE00080808080308070707060707070707079D
:1005EE00060302020203050505050602023C01018F
:1005FE00030506030505030506030505323C010147
:10060E00010503030302030303030303323C010149
:10061E000105020202010202020203050606060697
:10062E00060603050101010302463C3C00020203DB
:10063E000202463C32323232323205060C0C0C06C5
:10064E000C0C0C0C0C0C200C0707070607070707F1
:10065E00070706030202020307070706050505053D
:10066E00050505060C0C0C060C0C0C0C0C0C200CC9
:10067E000707070607070707070706030202020315
:10068E00050505050002023C0101010101010506F7
:10069E000101010101010603020202030505050520
:1006AE000002023C010101010101010100000202F0
:1006BE0002023C3C010101010101010101017F0324
:1006CE000505082020160C06060606060606060276
:1006DE0004040507070605030303030303030305C9
:1006EE000606082A2A2008161616161616161606B6
:1006FE001616080708060705050505050505050371
:10070E000505082020160806060606060606060239
:10071E00040405070706050303030303030303038A
:10072E00050606082A2A20080909090909090606E4
:10073E000709090807080607050505050505050546
:10074E000305050820200908060606060606060605
:10075E00020404050707060503030303030303034B
:10076E0003050606082A2A200809090909090906A7
:10077E0006070909080708060508080808080808F2
:10078E0008050606082A2A2008090909090909097F
:10079E0009090606070606050508080808080808D8
:1007AE000808087F01010404050508087F010203FB
:0607BE0004050607087F98
:1000B100E4F523F524F525F526F527F528F529F5A9
:1000C1002AC200C201C202C203C204C205C206C2E0
:1000D10007C208C209782B746FF2087420F2782DD8
:0600E10074C5F208E4F210
:1007C400AE82AF838FC38EC475C78275C50175C6EB
:1007D4005A75C6A5C006C0077417C0E07442C0E0CD
:1007E4007480C0E0122D33E58124FBF581AFC2ADE6
:1007F400C77E008F037C00C007C005C006C003C0CD
:10080400047421C0E07442C0E07480C0E0122D334F
:10081400E58124F9F581D0078F8222C02D85812DB1
:10082400AE82AF83E52D24FDF886C28FC38EC475D6
:10083400C78275C50275C65A75C6A5E52D24FDF88F
:1008440086047D00C004C005C006C0077437C0E03C
:100854007442C0E07480C0E0122D33E58124F9F5C0
:1008640081D3D02D22AE82AF838FC38EC475C7824D
:1008740075C50375C65A75C6A5C006C0077447C0BA
:10088400E07442C0E07480C0E0122D33E58124FBA3
:10089400F581D322C02D85812D05810581AE82AFDE
:1008A40083E52D24FCF8A92D09E6F70809E6F78E5F
:1008B400828F83C007C0061207C4AD82D006D0075A
:1008C400BDFF02800F8E828F83C007C006120869A5
:1008D400D006D0078E828F83A3C007C0061207C438
:1008E400AD82D006D007BDFF0280108E828F83A315
:1008F400C007C006120869D006D007AD2D0D7C00D4
:100904007B408D828C838BF0122E61FAC007C00667
:10091400C005C004C003C0028E828F8312081F1555
:1009240081D003D004D005D006D0070DBD00010C42
:100934008D828C838BF0122E61FD8E828F83A3C0F7
:100944000512081F1581D3852D81D02D22C02D8538
:10095400812D05810581AE82AF83AD2D0D7C007B99
:10096400408E828F83C007C006C005C004C0031236
:1009740007C4AA82D003D004D005D006D0078D8244
:100984008C838BF0EA12286B0DBD00010C8E828FD4
:1009940083A3C005C004C0031207C4AF82D003D030
:1009A40004D0058D828C838BF0EF12286BA82D0860
:1009B4008682088683852D81D02D227E007F007457
:1009C400FC2F4059EE54077021C007C006C006C072
:1009D400077454C0E07442C0E07480C0E0122D3348
:1009E400E58124FBF581D006D0078E828F83C00772
:1009F400C0061207C4AD827C00C005C004745CC08C
:100A0400E07442C0E07480C0E0122D33E58124FB21
:100A1400F581D006D0070EBE00A50F80A222AE82BB
:100A2400AF838E048F051EBEFF011FEC4D70F322B1
:100A3400AE82AF838E048F051EBEFF011FEC4D6096
:100A4400109004FFC007C006120A22D006D0078007
:100A5400E322758780759850758922758DFD758B95
:100A6400FDD28ED299758C05759CD7758E15D28C56
:100A7400D2AAD28AD2AFD2A922AE82AF831099026F
:100A840080FB8E998E828F832275D98C75D80075E0
:100A9400E90075F90075EA5575FA0575DA49221207
:100AA4000A5675BB701202827420C0E0E4C0E07480
:100AB40062C0E07442C0E07480C0E090000A75F047
:100AC40060122B25E58124FBF58190000A75F06006
:100AD4001203159003E8120A34759410120A8D90CB
:100AE4000004120951AE82AF83BEFF05BFFF02802E
:100AF40007782BEEF208EFF2900006120951AE824D
:100B0400AF83BEFF04BFFF0122782DEEF208EFF29F
:100B140022E58054E0FFE5B054044FF58222120B25
:100B240015E582FF20E219782FC3E294FF08E294CE
:100B3400FF5024782FE22401F208E23400F28017F7
:100B4400782FE4F208F2100202800AD2067839E221
:100B54004401F28002C206782FC3E2F5F074A09536
:100B6400F008E2F5F0E495F05004D2028002C202EB
:100B7400EF20E7197831C3E294FF08E294FF502490
:100B84007831E22401F208E23400F280177831E48B
:100B9400F208F2100302800AD2077839E24402F222
:100BA4008002C2077831C3E2F5F074A095F008E240
:100BB400F5F0E495F05004D2038002C203EF20E67E
:100BC400197833C3E294FF08E294FF50247833E2A7
:100BD4002401F208E23400F280177833E4F208F2D8
:100BE400100402800AD2087839E24404F28002C276
:100BF400087833C3E2F5F074A095F008E2F5F0E468
:100C040095F05004D2048002C204EF20E51978352F
:100C1400C3E294FF08E294FF50247835E22401F201
:100C240008E23400F280177835E4F208F210050285
:100C3400800AD2097839E24408F28002C209783580
:100C4400C3E2F5F074A095F008E2F5F0E495F050F5
:100C540003D20522C2052243BC80900001120A225D
:100C6400439D0475BC82900001120A2275BD0043A5
:100C7400BC0822E5BCA2E42253BCE7AEBD7F00EE73
:100C84002EFEEF33FFEE2EFEEF33FFACBE7D00EE03
:100C94004204EF42058C828D83539DFB53BC7F221B
:100CA400B280A280B3928122A21092DE22AE82AFE1
:100CB400838EEA8FFA2230B303D28022C28022C20A
:100CC400D875F90075E900B2843285232785242874
:100CD40085252985262A32C0E0C0D075D008AC23EA
:100CE400AD24AE25AF2674012CF523E43DF524E4B0
:0C0CF4003EF525E43FF526D0D0D0E032DC
:10421700722025303478203D2000253032782069FF
:1042270061705F636F6E747220253032780D0A00FB
:10423700772025303478203D20253032780D0A004C
:10424700657261736520253034780D0A000D0A25E3
:104257003034783A00202530327800303132333428
:1042670035363738396162636465667E40232425B5
:0C4277005E262A28295F2B7C2D3D5C0070
:1000E700C20A783AE4F208F2783CF2783DF208F274
:0600F700783FF27840F2B0
:100D0000C02D85812DC082C083C0F0E581240DF502
:100D100081A82D08740326FAE40836FB0886048AA5
:100D2000828B838CF0E52D2404F8122E61F6A31239
:100D30002E6108F6A3122E6108F6A3122E6108F6A2
:100D4000C004C003C002E52D2404F8E6C0E008E6B4
:100D5000C0E008E6C0E008E6C0E090FF0075F07F64
:100D60007447122886AF82E58124FCF581D002D039
:100D700003D004EF6037A82D088682088683088692
:100D8000F0122E61FDA3122E61FEA3122E61FF74DC
:100D900083C0E07442C0E07480C0E08D828E838F97
:100DA000F01226E4158115811581021162C002C07E
:100DB00003C004E52D2404F886820886830886F0A3
:100DC00008E6C004C003C002122B0EAE82AF83D06F
:100DD00002D003D004A82D0886820886830886F0F6
:100DE000122E61FBA3122E61FCA3122E61FDC0071F
:100DF000C006C004C003C002C006C0077486C0E0BD
:100E00007442C0E07480C0E0C003C004C005122A70
:100E100049E58124F8F581D002D003D004A82D083B
:100E200086820886830886F0122E61FBA3122E614B
:100E3000FCA3122E61FD8B828C838DF0C003C00257
:100E4000122D86AC82D002D003D006D007E52D2427
:100E500004F8A604A82D08E52D2408F9740726F740
:100E6000E4083609F70809E6F7E52D2408F8868234
:100E70000886830886F0122E61FDE52D2404F8C350
:100E8000E69DD004D003D0024003020F74C002C01C
:100E900003C004E52D240BF8A605087600A82D084C
:100EA00086820886830886F0122E61FAA3122E61CC
:100EB000FBA3122E61FDC007C006C004C003C00220
:100EC000E52D240BF8E6C0E008E6C0E07430C0E091
:100ED0008A828B838DF0122BB8158115811581D0F4
:100EE00002D003D004D006D007A82D088682088639
:100EF000830886F0122E61FBA3122E61FCA3122E32
:100F000061FDE52D2408F886820886830886F012A4
:100F10002E61FAE52D2408F8EA2BF6E43C08F608E1
:100F2000A605E52D2404F886027D00E52D2408F8A9
:100F3000E6C39AFA08E69DFD088604C007C006C00D
:100F400004C003C002C006C0077486C0E07442C07B
:100F5000E07480C0E0C002C005C004122A49E581E7
:100F600024F8F581D002D003D004D006D007D004F5
:100F7000D003D0028A828B838CF0E52D2404F812F2
:100F80002E61F6A3122E6108F6A3122E6108F6A3B5
:100F9000122E6108F68E828F83122B19AC82AD83DC
:100FA000AEF0FFC004C005C006C007E52D2404F85C
:100FB00086820886830886F008E61226A8AC82ADF1
:100FC00083AEF0FFE58124FCF581E4C0E0C0E0746D
:100FD00080C0E0743FC0E08C828D838EF0EF1228D9
:100FE000D8AC82AD83AEF0FFE58124FCF581E52D20
:100FF000240DF8A60408A60508A60608A607A82D2D
:1010000008740826FAE40836FB0886078A828B8370
:101010008FF0122E61FF8F061FEE6042C007E52D94
:10102000240DF8E6C0E008E6C0E008E6C0E008E607
:10103000C0E090000075F0207441122750AC82ADE2
:1010400083AEF0FBE58124FCF581D007E52D240D6E
:10105000F8A60408A60508A60608A60380B8E52D8C
:10106000240DF886820886830886F008E6122B0E87
:10107000AE82AF83A82D0886820886830886F01288
:101080002E61FBA3122E61FCA3122E61FD8B828CBC
:10109000838DF0C007C006122D86AC82D006D00723
:1010A000A82D0886820886830886F0122E61FAA38E
:1010B000122E61FBA3122E61FDEC2AFAE43BFBC069
:1010C00004C006C0077486C0E07442C0E07480C0EB
:1010D000E0C002C003C005122A49E58124F8F58169
:1010E000D004A82D0886820886830886F0122E6117
:1010F000FDA3122E61FEA3122E61FFEC2DFCE43E37
:10110000FB8F028C828B838AF0742E12286BA82DA1
:1011100008740926FDE40836FE0886078D828E8352
:101120008FF0122E61FDA3122E61FEA3122E61FF1D
:10113000ED4E602EA82D0886820886830886F01260
:101140002E61FAA3122E61FBA3122E61FCC005C012
:1011500006C0078A828B838CF0122C2215811581A0
:101160001581852D81D02D22C02D85812DC082C075
:1011700083C0F0058105817410C0E0740EC0E0E505
:101180002D24FCF886820886831226B3AB82AC83BA
:1011900015811581C004C003C003C004900E101255
:1011A00028B6AA82AF8315811581D003D004E52D1E
:1011B00024FCF8E6C39AFA08E69FFFC007C004C003
:1011C00003C002743CC0E0E4C0E08A828F83122630
:1011D000B3AD82AE8315811581E52D2404F8A605F3
:1011E00008A606E52D2404F8E6C0E008E6C0E09075
:1011F000003C1228B6AD82AE8315811581D002D095
:1012000003D004D007EAC39DFAEF9EFFC002C007D7
:10121000E52D2404F8E6C0E008E6C0E0C003C00401
:101220007489C0E07442C0E07480C0E0A82D08E674
:10123000C0E008E6C0E008E6C0E0122A49E58124E3
:10124000F4852D81D02D22852B82852C83A3A3A309
:10125000A3A3E493FEA3E493FFAB2BAC2C7D80C04F
:1012600007C006121268800BC006C0078B828C83F1
:101270008DF022D006D00722020B22740D252BF50B
:1012800082E4352CF583E493FFBF20004001222047
:101290000A0A200C0122120C5BD20A22120C77409F
:1012A0000122120C7C122B19AC82AD83AEF0FFC070
:1012B00004C005C006C00790CCCD75F01C74451263
:1012C0002D9EAC82AD83AEF0FFE58124FCF58178E4
:1012D00047ECF208EDF208EEF208EFF2740D252B60
:1012E000F582E4352CF583E493240AFF7E007D60CB
:1012F000784BEFF208EEF208EDF2784E7947E3F220
:101300000809E3F20809E3F20809E3F278527401EC
:10131000F2785304F278547498F2087442F2087424
:1013200080F290004B75F060120D00C20AD20B22C1
:10133000C02DE581F52D2404F581C20C782BE2FC4B
:1013400008E2FD7E007F00C004C005C006C007851E
:1013500023828524838525F0E526122AA1AC82AD5F
:1013600083E58124FCF581783DECF208EDF2C005BF
:10137000C004C004C005782BE2F58208E2F58312B0
:1013800028B6AE82AF83158115817B007A00A82D27
:1013900008E523C39EF6E5249F08F6E5259B08F69D
:1013A000E5269A08F6782BE22432F58208E234002A
:1013B000F5837464C0E0E4C0E01226B3AE82AF836C
:1013C000158115817B007A00C006C007C003C002EA
:1013D000A82D0886820886830886F008E6122AA1CE
:1013E000AA82AB83AEF0FFE58124FCF581D004D066
:1013F00005783FEAF2C20D783CE2B502028002D2E3
:101400000D783AE2B5040808E2B50503021525D2C5
:101410000C7837E2C0E008E2C0E0749AC0E07442A1
:10142000C0E07480C0E0122D33E58124FBF58178A3
:1014300037C3E2F5F0E495F008E2F5F0748063F06C
:101440008095F040030215257837E224FFF208E288
:1014500034FFF27837E2F5F008E245F070067839AB
:10146000E24410F2740B252BF582E4352CF583E46D
:1014700093FF20E003021525740B252BF582E4353C
:101480002CF583E49330E2097837E2FE08E2FF802E
:1014900028852B82852C83A3A3A3A3A3A3A3A3A303
:1014A000E493FCA3E493FD7837D3E29CF4B3FCB35C
:1014B00008E29DF4FD8C068D07740B252BF582E464
:1014C000352CF583E49330E135740C252BF582E45B
:1014D000352CF583E493240AFD7C007B60C006C0B4
:1014E000077486C0E07442C0E07480C0E0C005C0EC
:1014F00004C003122A49E58124F8F5818025740C83
:10150000252BF582E4352CF583E493240AFD7C0039
:101510007B60C006C0078D828C838BF0121168152A
:10152000811581D20B783DE2FE08E2FF783AEEF2B7
:1015300008EFF2783FE2783CF2852D81D02D223001
:101540000B1390000A75F0601203157840E2F582E3
:1015500012040FC20B22C02DE581F52D2404F58164
:101560007801E2FE08E2FF4E60717809E2FFBF01F8
:101570006A7805E2FC08E2FD08E2FE08E2FFA82D19
:1015800008E523C39CF6E5249D08F6E5259E08F6AC
:10159000E5269F08F6782BE22432F58208E2340033
:1015A000F5837464C0E0E4C0E01226B3AA82AB8382
:1015B00015811581C002C0039000191228B6AA82B5
:1015C000AB83158115817E007F00A82D08C3E69AA4
:1015D00008E69B08E69E08E69F5003021686120C5A
:1015E000A47801E2FE08E2FF7803E2FC08E2FD7461
:1015F000012CFAE43DFB7803EAF208EBF2EC2EF55D
:1016000082ED3FF583E493FF7805E523F208E524B6
:10161000F208E525F208E526F2BF7F2A780974036F
:10162000F27839E24420F274ABC0E07442C0E07456
:1016300080C0E0122D33158115811581C2F085F02F
:1016400022120CAC8040EF700AC2F085F022120C1E
:10165000AC80338F8212043FE58275F002A424A08F
:10166000F582744135F0F583E493FEA3E493FFD251
:10167000F0C007C00685F022120CACD006D0078E51
:10168000828F83120CB1852D81D02D227809E2FF43
:10169000BF010DC2F085F022120CAC78097402F281
:1016A00022AE82AF837809E2FDBD0206780974019B
:1016B000F222BD010D78097402F2C2F085F0220217
:1016C0000CAC7801EEF208EFF27803E4F208F2785D
:1016D00005F208F208F208F2780904F222752B24C8
:1016E000752C26852B82852C83A3A3A3E493FEA3CC
:1016F000E493FFAB2BAC2C7D80C007C00612170211
:10170000800BC006C0078B828C838DF022D006D060
:021710000722AE
:104283006F6F00257500253032753A253032753A47
:10429300253032750056007461736B2074696D6547
:1042A30063742025750D0A00706C617920656E6456
:0342B3000D0A00F1
:1000FD00E4F52BF52CC20BC20CC20D7845E4F27859
:10010D00467402F27857E4F27858F208F2785AF20F
:10011D00785BF208F2785DF208F208F208F2786185
:10012D00743CF208E4F27863F208F208F208F2780F
:10013D0067F208F208F208F2786BF208F208F2089A
:01014D00F2BF
:10171200AE82AD83AFF074092EFEE43DFD8E828D64
:10172200838FF0122E61FEA3122E61FFBEFE13BF45
:10173200FF107861E2FC08E2FD7837ECF208EDF286
:1017420080077837EEF208EFF27837E2C0E008E27D
:10175200C0E074B6C0E07442C0E07480C0E0122DF4
:1017620033E58124FBF5817839E4F27421C0E0E4A9
:10177200C0E0C0E090000A75F060122BB815811528
:10178200811581D20B22AF82852B82852C83A3A364
:10179200A3A3A3A3A3E493FDA3E4934D6036852BF7
:1017A20082852C83A3A3A3A3A3A3A3E493FDA3E411
:1017B20093FEAA2BAB2C7C80C007C006C005121773
:1017C200C5800BC005C0068A828B838CF022D005AF
:1017D200D006D0077845E27846F27845EFF27845B0
:1017E200C2D575F016E230E704B2D5F404A430D5C0
:1017F2000AF42401C5F0F43400C5F02424F52B7456
:101802002635F0F52C852B82852C83A3A3A3E493A4
:10181200FDA3E4934D6032852B82852C83A3A3A381
:10182200E493FDA3E493FEAA2BAB2C7C80C007C0FB
:1018320006C00512183A800BC005C0068A828B8347
:101842008CF022D005D006D0077E007846E2FCE27A
:101852003395E0FDC007C006C004C00574D2C0E0E5
:101862007442C0E07480C0E0122D33E58124F9F5A2
:101872008122C02DE581F52D240CF581AD82AE8348
:10188200AFF0E52D240AF8A60508A60608A6077CEF
:1018920000E52D240AF8A92D09740E26F7E408366E
:1018A20009F70809E6F7A82D08E52D2404F9E6F75B
:1018B2000809E6F70809E6F7E52D240AF8E52D24DC
:1018C20007F9741426F7E4083609F70809E6F77BE6
:1018D20000C3EB6480948640030219C88BF005F0C4
:1018E2007401800225E0D5F0FBFA7839E25A7003E0
:1018F2000219C2C004A82D08EB26FCE40836FE0833
:1019020086078C828E838FF0122E61D00420E72707
:10191200E52D240AF8740E26FDE40836FE08860733
:10192200EC2DFDE43EFE8D828E838FF0122E61F54A
:10193200821217880219CCE52D2404F8EB26FDE467
:101942000836FE0886078D828E838FF0122E61FD87
:10195200BDFE1ABA021778467945E2F5F0E3B5F012
:1019620002800A7846E2F582121788805D8A067F35
:1019720000C003C0027404C0E0E4C0E0C006C007B7
:1019820074DEC0E07442C0E07480C0E0122D33E522
:101992008124F9F581D002D003BA1024E52D240761
:1019A200F886820886830886F0122E61FEA3122E24
:1019B20061FF4E600B8E828F83C0031216A1D0038B
:1019C2000B8B040218D37839E4F2852D81D02D22B5
:1019D20012171274FDC0E07442C0E07480C0E0745B
:1019E200F9C0E07442C0E07480C0E074F4C0E074F6
:1019F20042C0E07480C0E0740AC0E07400C0E074C9
:101A020060C0E0122A49E58124F4F581740FC0E038
:101A12007443C0E07480C0E0740CC0E07443C0E062
:101A22007480C0E0741AC0E07400C0E07460C0E06A
:101A3200122A49E58124F7F5817418C0E07443C085
:101A4200E07480C0E0740CC0E07443C0E07480C0F5
:101A5200E0741FC0E07400C0E07460C0E0122A4964
:101A6200E58124F7F581D20B22AD82AE83AFF0304F
:101A72000632C007C006C0057424C0E07443C0E04B
:101A82007480C0E0122D331581158115817837E2FB
:101A92002409F208E23400F29006CD1216A1D00514
:101AA200D006D007300724C007C006C00512168C26
:101AB2007430C0E07443C0E07480C0E0122D33156E
:101AC2008115811581D005D006D007300821C007C5
:101AD200C006C005743CC0E07443C0E07480C0E03E
:101AE200122D33158115811581D005D006D007300E
:101AF2000921C007C006C0057448C0E07443C0E0B5
:101B02007480C0E0122D33158115811581D005D066
:101B120006D0078D828E838FF0021874AD82AE8359
:101B2200AFF08D028E038F0478577401F28D828E8E
:101B3200838FF0C004C003C0021217127420C0E0E9
:101B4200E4C0E0C0E090000A75F060122BB8158185
:101B5200158115817857E2FE7F00C006C0077454D4
:101B6200C0E07443C0E07480C0E07416C0E074004A
:101B7200C0E07460C0E0122A49E58124F8F581D002
:101B820002D003D00474092AFDE43BFE8C078D8247
:101B92008E838FF0122E61FDA3122E61FEC004C04F
:101BA20003C002C005C00690000A75F060121168F9
:101BB20015811581D002D003D004D20B74142AFAF5
:101BC200E43BFB8A828B838CF0122E61FAA3122EE5
:101BD20061FB8A828B830216A1AD82AE83AFF08D48
:101BE200028E038F04300633C007C006C005C0044E
:101BF200C003C0027424C0E07443C0E07480C0E03B
:101C0200122D3315811581158190050E1216A1D062
:101C120002D003D004D005D006D00730092DC0076A
:101C2200C006C005C004C003C0027448C0E07443CB
:101C3200C0E07480C0E0122D33158115811581D06A
:101C420002D003D004D005D006D0077839E2541070
:101C5200605674092AFAE43BFB8A828B838CF07803
:101C620037122E61F2A3122E6108F27857E2240194
:101C7200F27857E2FB7C00C007C006C005C003C073
:101C8200047454C0E07443C0E07480C0E07416C0B1
:101C9200E07400C0E07460C0E0122A49E58124F8D3
:101CA200F581D005D006D0078D828E838FF0021881
:101CB200747861E2C0E008E2C0E07457C0E07443A7
:101CC200C0E07480C0E0741AC0E07400C0E07460C8
:101CD200C0E0122A49E58124F8F5817861E2C0E08A
:101CE20008E2C0E090000A75F060121168158115D3
:101CF20081D20B22121712745AC0E07443C0E074EE
:101D020080C0E07413C0E07400C0E07460C0E012F0
:101D12002A49E58124FAF581121CB3785B7401F239
:101D220008E4F278407487F222AD82AE83AFF0C04D
:101D320007C006C0057420C0E0E4C0E0C0E0900027
:101D42000A75F060122BB81581158115817861E250
:101D5200C0E008E2C0E090000A75F0601211681558
:101D6200811581D005D006D007D20B74142DFDE465
:101D72003EFE8D828E838FF0122E61FDA3122E61A4
:101D8200FE8D828E830216A102168C7840E4F22226
:101D9200AE82AF83C3EE94A0EF940F500490000183
:101DA20022C3EE9410EF9427500490000A22C3EE4F
:101DB2009450EF94C35004900064229003E822C030
:101DC2002DE581F52D2404F581AD82AE83AFF0308F
:101DD2000668C007C006C005782FE2C0E008E2C06E
:101DE200E07462C0E07443C0E07480C0E0122D333E
:101DF200E58124FBF581D005D006D0077861795BB7
:101E0200C3E2F5F0E395F008E2F5F009E3648063DC
:101E1200F08095F050157861795BE3F5F0C3E295B7
:101E2200F0F209E3F5F008E295F0F2C007C006C04F
:101E320005121CB3D005D006D007200803021EE30A
:101E4200C005C006C007C007C006C0057833E2C09F
:101E5200E008E2C0E07471C0E07443C0E07480C086
:101E6200E0122D33E58124FBF581D005D006D007A1
:101E72007861E2FA08E2FBE23395E0FCFFA82D0864
:101E820074FFC39AF6747F9B08F6E49C08F6E49FFD
:101E920008F6785BE2FC08E2FDE23395E0FEFFA87B
:101EA2002D08C3EC96ED0896EE0896EF648008863E
:101EB200F063F08095F0D007D006D0055014786119
:101EC200795BE3C5F0E225F0F209E3C5F008E235FB
:101ED200F0F2C007C006C005121CB3D005D006D070
:101EE20007782FC3E2F5F0748895F008E2F5F074F4
:101EF2001395F05054300C51785BE2B4100708E2AD
:101F0200B40E028002800F785B7401F208E4F2786A
:101F1200407487F28033C007C006C005785BE2C018
:101F2200E008E2C0E090003C1228B6AB82AC831518
:101F3200811581D005D006D007785BEBF208ECF270
:101F42007840E2FC784024FDF27833C3E2F5F07485
:101F52008895F008E2F5F0741395F05057300C5460
:101F6200785BE2B4010408E260028010785B7410CE
:101F7200F208740EF278407481F28038C007C0060D
:101F8200C005743CC0E0E4C0E0785BE2F58208E2A0
:101F9200F583122EBAAB82AC8315811581D005D0A0
:101FA20006D007785BEBF208ECF27840E2FC78406E
:101FB20074032CF28D828E838FF0121874852D811A
:101FC200D02D22781A7957E2F3784B740AF208740A
:101FD20000F2087460F2784E7963E3F20809E3F2E2
:101FE2000809E3F20809E3F278527402F278531412
:101FF200F278547480F2087443F2087480F290000C
:102002004B75F060120D00E4C0E07424C0E07474FB
:10201200C0E07449C0E07867E2F58208E2F583081F
:10202200E2F5F008E2122886AF82E58124FCF58110
:10203200EF6069784B7414F2087400F2087460F26D
:10204200E4C0E0C0E0747AC0E07444C0E07867E2C3
:10205200F58208E2F58308E2F5F008E2122D9EAC63
:1020620082AD83AEF0FFE58124FCF581784EECF27F
:1020720008EDF208EEF208EFF278527403F27853A8
:102082007401F278547485F2087443F2087480F291
:1020920090004B75F060120D0002219C7480C0E02C
:1020A2007496C0E07418C0E0744BC0E07867E2F543
:1020B2008208E2F58308E2F5F008E2122886AF8290
:1020C200E58124FCF581EF6069784B7414F20874A1
:1020D20000F2087460F2E4C0E07424C0E07474C0DA
:1020E200E07449C0E07867E2F58208E2F58308E22D
:1020F200F5F008E2122D9EAC82AD83AEF0FFE581D1
:1021020024FCF581784EECF208EDF208EEF208EFCD
:10211200F278527401F2785304F278547487F20818
:102122007443F2087480F290004B75F060120D0057
:102132008068784B7414F2087400F2087460F2E458
:10214200C0E07424C0E07474C0E07449C0E07867F1
:10215200E2F58208E2F58308E2F5F008E2122D9E2C
:10216200AC82AD83AEF0FFE58124FCF581784EECC4
:10217200F208EDF208EEF208EFF278527403F27808
:10218200537401F278547487F2087443F20874802D
:10219200F290004B75F060120D00781A7957E3F255
:1021A20022C02D85812DAC82AD83AEF0FFE5812466
:1021B20008F581786BA92D09D3E29CF4B3F7B30833
:1021C200E29DF4B309F7B308E29EF4B309F7B3084A
:1021D200E29FF409F7A82D08795DE6F30809E6F312
:1021E2000809E6F30809E6F3782DE2F58208E2F53C
:1021F20083122B19AA82AB83AEF0FFC002C003C0C8
:1022020006C007900FD075F0C97440122750C8E578
:102212002D2405C8A68208A68308A6F008F6E58143
:1022220024FCF581782BE2F58208E2F583122B1962
:10223200AA82AB83AEF0FFC002C003C006C007E5AE
:102242002D2405F886820886830886F008E6122780
:1022520050AC82AD83AEF0FFE58124FCF581E4C091
:10226200E0C0E0747AC0E07444C0E08C828D838E5A
:10227200F0EF122D9EC8E52D2405C8A68208A6837C
:1022820008A6F008F6E58124FCF581A82D088682CF
:102292000886830886F008E6122854AA82AB83AE29
:1022A200F0FFC002C003C006C007E52D2405F88672
:1022B200820886830886F008E6122D9EAC82AD83E2
:1022C200AEF0FFE58124FCF581C004C005C006C064
:1022D2000790000075F0617445122750AC82AD83FF
:1022E200AEF0FFE58124FCF581E4C0E0C0E0747A41
:1022F200C0E07444C0E08C828D838EF0EF122D9E7C
:10230200AC82AD83AEF0FFE58124FCF5817863EC0D
:10231200F208EDF208EEF208EFF2852D81D02D22BF
:102322001217127863E4F208F208F208F27867F200
:1023320008F208F208F2121FC5D20B22C02D8581C5
:102342002DC082C083C0F0786BE2B5271208E2B5D7
:10235200280D08E2B5290808E2B52A03022471789B
:102362006BE2F5F008E242F008E242F008E245F0E2
:1023720070030224508527828528838529F0E52A67
:102382001221A3E4C0E0C0E074C8C0E07442C0E01F
:102392007863E2F58208E2F58308E2F5F008E212DA
:1023A2002886AC82E58124FCF581EC70030224CFFF
:1023B2007863E2FA08E2FB08E2FC08E2FF7841EA0D
:1023C200F208EBF208ECF208EFF2782DE2F582085F
:1023D200E2F583122B19AC82AD83AEF0FFC004C0CC
:1023E20005C006C007900FD075F0C974401227507F
:1023F200AC82AD83AEF0FFE58124FCF581C004C060
:1024020005C006C0077867E2F58208E2F58308E2B4
:10241200F5F008E21228D8AC82AD83AEF0FFE58178
:1024220024FCF5817867ECF208EDF208EEF208EF91
:10243200F2121FC5D20BAC27AD28AE29AF2A786B9A
:10244200ECF208EDF208EEF208EFF20224CFE527F3
:1024520045284529452A6075AA27AB28AC29AF2A09
:10246200786BEAF208EBF208ECF208EFF2805E30E9
:102472000C5B8523828524838525F0E5261221A322
:102482007841E2C0E008E2C0E008E2C0E008E2C051
:10249200E07863E2F58208E2F58308E2F5F008E20B
:1024A200122886AC82E58124FCF581EC601F121FA4
:1024B200C5D20B7863E2FA08E2FB08E2FC08E2FF0D
:1024C2007841EAF208EBF208ECF208EFF2120CBAE9
:1024D200A82D0886820886830886F0121874852D36
:1024E20081D02D22AF827E00BE05005025EE240A47
:1024F200F9745FF38F047D001CBCFF011D8E027B0B
:1025020000EAB5040AEBB505068F0574302DF30E0B
:1025120080D6C0077410C0E0E4C0E0C0E090001AAA
:1025220075F060122BB8158115811581D007EF75F2
:10253200F016A42424F582742635F0F583E493FD85
:10254200A3E493FEA3E493FFC005C006C007740C86
:10255200C0E07443C0E07480C0E0741AC0E074004C
:10256200C0E07460C0E0122A49E58124F7F581D207
:102572000B221217127846E2FF7857F28F8202245A
:10258200E612187430062E7857C3E2F5F0740195FE
:10259200F0500D7857E214F27857E2F5821224E6F1
:1025A2007424C0E07443C0E07480C0E0122D33157F
:1025B200811581158130071B7582021217887430CC
:1025C200C0E07443C0E07480C0E0122D3315811561
:1025D20081158130082B7857E2B40500500E7857E8
:1025E200E22401F27857E2F5821224E6743CC0E05C
:1025F2007443C0E07480C0E0122D3315811581153B
:102602008130091D7857E2F5821217887448C0E0BC
:102612007443C0E07480C0E0122D3315811581151A
:02262200812213
:1042B600637572207461736B2074696D6563742D08
:1042C6002D2D696E69742025780D0A0075692025E3
:1042D600752D3E25750D0A00657620666C61672092
:1042E600257820455655544F2025780D0A0025730C
:1042F600257300302E31005F3338646330656520E6
:10430600636C65616E0025730030393A30303A349B
:1043160033004170722032352032303230006B6506
:10432600792041312075700D0A006B657920413284
:104336002075700D0A006B65792041332075700D6C
:104346000A006B65792041342075700D0A002575C9
:104356000025640054696D656F7574006B6579207E
:1043660041312075702025750D0A006B6579204155
:10437600332075702025750D0A006B6D2F68006D52
:04438600006B6D005B
:102624008A4380742583250000FFFF00210AFFFFF1
:10263400FFFFFFFF00008F4380D2196B1A0000FFD9
:10264400FF000021FFFEFF0302FF00009743801EEE
:102654001BDB1B00002C0105101BFFFEFFFFFFFF0F
:10266400B2079E4380F61CC11D8D1DFFFF00211B78
:10267400FF00FF0402FF0000AA4380121774188AA7
:102684001DFEFF05101BFFFEFFFFFF03CD06B04339
:102694008022233E230000FF7F01101BFFFEFFFF6B
:0426A400FFFF000034
:10438A004D656E750056657273696F6E0035206DE6
:10439A00696E73005365742074696D656F75740076
:0A43AA0054696D6572004C434A002F
:0D00410075812D122867E582600302003EE4
:1026A800A8811818C6B2E7C60228D8E58124FEF822
:1026B800E6F918E6F87A10E4FBFCE58225E0F582F5
:1026C800E58333F583EB33FBEC33FCEB98F5F0EC67
:1026D800994006FCABF0438201DADF22C02D8581E8
:1026E8002DC082C083C0F0058105810581E52D24B8
:1026F800FBF88602088603088604A82D08E52D2421
:1027080004F9E6F70809E6F70809E6F78A828B83F1
:102718008CF0122E61FFA3AA82AB83E52D2404F866
:1027280086820886830886F0EF12286BA31818A6FD
:102738008208A683EF70D5A82D08868208868308AC
:1027480086F0852D81D02D221227F3BC0003022CA0
:10275800C7EF60FA30D502B2D1E583B4FF03022C8B
:10276800DDE582B4FF03022CDD2583400724824087
:102778000B022CC72483145003022CDDF582EA8D4A
:10278800F0A4A8F0EA8EF0A428F8E435F0F9EB8D6F
:10279800F0A428E935F0F9E433CA8FF0A429F9EA5E
:1027A80035F0FAEBF88EF0A429F9EA35F0FAE433BB
:1027B800FBEC8DF0A429F9EA35F0FAE43BFBE88F4D
:1027C800F0A42AFAEB35F0FBE433CCFD8EF0A42A12
:1027D800FAEB35F0FBE43CFCED8FF0A42BFBEC3579
:1027E800F0FC20E703122821022CA6AA82AB83A2C0
:1027F800F73392D1F5826002D2F7ACF0E58124F983
:10280800F8E6FD08E6FE0886F008E6A2F73392D55A
:09281800F5836002D2F7AFF02253
:06007000E478FFF6D8FD64
:102821007804EC7011E58224F8500AF582E4C9CAF3
:10283100CBFCD8EF22EC7820058220E713D582016A
:1028410022C3E933F9EA33FAEB33FBEC33FCD8EA80
:03285100158222CB
:10004E007900E94400601B7A009043BF780175A0E7
:10005E0000E493F2A308B8000205A0D9F4DAF27511
:02006E00A0FFF1
:10285400FCABF0AA83A982749EC2D1F5821228210E
:10286400022CA67582002220F71130F6138883A863
:102874008220F509F6A8837583002280FEF280F594
:10288400F022FFA881181812294FD2D133E640074D
:1028940030E70B7582002220E70675820122C2D13F
:1028A400122931E97003F5822220D101B3E433F512
:1028B400822274FE2581F8E68582F0A4C0E0858238
:1028C400F018E6A4F582D0E025F0C58386F0A425AF
:1028D40083F583221227F37900E583B58202800D04
:1028E4005003122D6CE583C39582122EF7E5D0C4F4
:1028F40065D020E117EA2DFAEB3EFBEC3FFC5009D2
:102904007401122EF7EC4480FC022CA6C3EA9DFA53
:10291400EB9EFBEC9FFC500FC3E499F9E49AFAE4B4
:0D2924009BFBE49CFCB2D1122821022CA6E2
:10007600786EE84400600A790175A000E4F309D8B7
:10008600FC7800E84400600C7900900001E4F0A3DD
:04009600D8FCD9FABF
:102931007901AA82E68F82B5821318E6B5F00E18E6
:10294100E6B5830918E68A82B58202790022B4804D
:102951000FE5F0700AE5837006E58270027F00EFF3
:10296100B6801518B6001018B6000B18B600060888
:10297100080876002208080822C02D85812DC08212
:10298100058105810581E52D24FBF8A92D0909E6BD
:10299100F70809E6F70809E6F7A82D08088682086E
:1029A10086830886F0122E61FAA3122E61FBA31210
:1029B1002E61FF74012AFCE43BFD8F06A82D080857
:1029C10086820886830886F0EC12286BA3ED122814
:1029D1006BA3EE12286B8A828B838FF0A82D08E6F9
:1029E10012286B852D81D02D22C02D85812DC0828D
:1029F100C083C0F0AF2D0F7E007D40E52D24FAF895
:102A0100E6C0E0E52D24FBF8E6C0E008E6C0E008FA
:102A1100E6C0E0C007C006C00590297A1230ACAE0E
:102A210082AF83E58124F9F581A82D088603088604
:102A3100040886058B828C838DF0E412286B8E82CC
:102A41008F83852D81D02D22C02DE581F52D24F890
:102A5100FFE52D24FBFE7D007C40C007E52D24F819
:102A6100F8E6C0E008E6C0E008E6C0E0C006C00540
:102A7100C00490297A1230ACAE82AF83E58124F98B
:102A8100F581E52D24FBF886030886040886058B6D
:102A9100828C838DF0E412286B8E828F83D02D225D
:102AA100FBE58124FBF8E6F9087A20E4FCFDFEFF52
:102AB100E5822582F582E58333F583E5F033F5F090
:102AC100EB33FB4017DAE98042E5822582F582E5A6
:102AD1008333F583E5F033F5F0EB33FBEC33FCEDB9
:102AE10033FDEE33FEEF33FFEC99ED96EE0896EFF2
:102AF100089618184013EC99FCED96FDEE0896FE29
:102B0100EF0896FF1818438201DABEEB227F8E127E
:102B11004156F58385F08222E4AC83AB82FAF974E5
:102B21008E02285DC02DE581F52D2408F581AD8249
:102B3100AE83AFF0E52D2406F8A60508A60608A683
:102B410007E52D24FBF8A92D09E6F70809E6F708A2
:102B510009E6F7E52D24F9F8E52D2404F9E6F7084F
:102B610009E6F7E52D2404F88603088604E52D24FB
:102B710004F816B6FF020816EB4C6028A82D08864B
:102B8100820886830886F0122E61FCA31818A6829B
:102B910008A6838D828E838FF0EC12286BA3AD8201
:102BA100AE8380BFE52D2406F886820886830886D9
:102BB100F0852D81D02D22C02D85812DC082C0832D
:102BC100C0F005810581A82D0886020886030886C4
:102BD10004E52D24FBF8E52D2404F9E6F70809E6C0
:102BE100F7E52D2404F88606088607E52D2404F868
:102BF10016B6FF020816EE4F60168A828B838CF0A0
:102C0100E52D24FDF8E612286BA3AA82AB8380D1BF
:102C1100A82D0886820886830886F0852D81D02D0F
:102C210022C02D85812DC082C083C0F00581058120
:102C31000581A82D0886020886030886048A828BEE
:102C4100838CF0122E6160070ABA00F10B80EEE569
:102C51002D24FBF88605088606088607E52D240441
:102C6100F8A60208A60308A6048D828E838FF012AF
:102C71002E61FCA3AD82AE83E52D2404F886820883
:102C810086830886F0EC12286BA31818A68208A682
:102C910083EC70D5A82D0886820886830886F08586
:102CA1002D81D02D22B98003EA13B34010EA24010B
:102CB100FAE43BFBE43CFC50047C800582BC000E42
:102CC100BB000BBA0008E4F5F0F583F58222A2D12E
:102CD100E582138CF092F78B838A8222E4F583F5E7
:102CE1008275F080F4A2D11322E4F583F58275F0A8
:102CF100C0747F22C02D85812D7E008E83120A7DB6
:102D0100D02D22C02D85812DAD82AE83AFF0E52D72
:102D110024FDF8E6C0E0C005C006C007E4C0E0C07D
:102D2100E0C0E0902CF51230ACE58124F9F581D0BA
:102D31002D22C02DE581F52D24FBFFC007E52D24B3
:102D4100FBF8E6C0E008E6C0E008E6C0E0E4C0E069
:102D5100C0E0C0E0902CF51230ACAE82AF83E581CB
:102D610024F9F5818E828F83D02D22E582C583F5EA
:102D710082A2D133A2D592D11392D5ECCFFCEBCE66
:102D8100FBEACDFA22AA82AB83122E616003A380F3
:102D9100F8C3E5829AF582E5839BF583221227F336
:102DA10030D502B2D1BF0009BC0003022CEA022CCB
:102DB100DDBC0003022CC7E583B4FF0BE582B4FF41
:102DC10003022CEA022CC7E582B4FF03022CDDC307
:102DD10095835007247F400B022CC7248014500395
:102DE100022CDDF582C3ED9AEE9BEF9C401115821A
:102DF100C3EA33F9EB33FAEC33FBE433FC8005E44B
:102E0100CCCBCAF9C08275F019C3E99DEA9EEB9F4C
:102E1100EC9400D5F002802D400EE99DF9EA9EFA6E
:102E2100EB9FFBEC9400FCC3B3E833F8E58233F588
:102E310082E58333F583C3E933F9EA33FAEB33FBF4
:102E4100EC33FC80C4B3E4F938FAE43582FBE435B1
:102E510083FCD082500405827C80122821022CBE82
:102E610020F71430F6148883A88220F507E6A8839A
:102E710075830022E280F7E49322E022C2D5E58344
:102E810030E70DD2D5E4C39582F582E49583F583CD
:102E9100E58124FEF8E630E70918E4C396F6E40874
:102EA10096F68601188600122F4430D50BE4C3959F
:102EB10082F582E49583F58322C2D5E58330E70D5F
:102EC100D2D5E4C39582F582E49583F583E5812427
:102ED100FEF8E630E70AB2D518E4C396F6E40896A0
:102EE100F918E6F81226BD30D50BE4C39582F582B8
:102EF100E49583F583226040F82582500274FFF542
:102F010082E824F8501ECCCBCAF9E4CC24F8501442
:102F1100CBCAF9E4CB24F8500BCAF9E4CA24F8501F
:102F21000379002224086010F8C3EC13FCEB13FBB7
:102F3100EA13FAE913F9D8F122E58124FEF88601B2
:102F4100188600E84960367A01E825E0F8E933405F
:102F51000EF9E58298E5839940030A80ECC3E913F1
:102F6100F9E813F8C3E58298F5F0E583994005F592
:102F71008385F082C3E913F9E813F8DAE722C02D5B
:102F810085812DAF8274302FFF24C6501074072F16
:102F9100FFE52D24FDF8E6600474202FFFE52D24C4
:102FA100F8F8E6C0E008E6C0E008E6C0E0122FB39A
:102FB100800FE52D24FBF8E6C0E008E6C0E08F8233
:102FC10022158115811581D02D22C02D85812DE5F8
:102FD10082FFC4540FFEC007E52D24F8F8E6C0E0D7
:102FE10008E6C0E008E6C0E0E52D24FBF8E6C0E015
:102FF10008E6C0E0E52D24FDF8E6C0E08E82122F40
:103001007FE58124FAF581D00753070FE52D24F8D8
:10301100F8E6C0E008E6C0E008E6C0E0E52D24FBE4
:10302100F8E6C0E008E6C0E0E52D24FDF8E6C0E0E2
:103031008F82122F7FE58124FAF581D02D22C02DB8
:1030410085812DA9828704098705098706098707D4
:10305100191919740429F87B20C003E626FAEF2315
:103061005401FBEA4203A603EC2CFCED33FDEE33E5
:10307100FEEF33FFC000E52D24FDF8C3EB96D00031
:10308100D00340148602C000E52D24FDF8EAC39662
:10309100FAD000A602430401EB14FB70BCA704099B
:1030A100A70509A70609A707D02D22C02D85812DC7
:1030B100C082C083E5812423F581E52D240CF8E449
:1030C100F608F6E52D2405F8E52D2414F6E52D2462
:1030D10020C8E52D2412C82405F6E52D2414F82472
:1030E10004FAE52D2403F9A702E52D2404F9A7022A
:1030F100E52D24F8F987060987050987048E828D55
:10310100838CF0122E61FFE52D24F8F974012EF75E
:10311100E43D09F709A704EFFE7003024144BE250F
:10312100028003024106C210C211C212C213C214AC
:10313100C215C216C217E52D241BF97700E52D240F
:1031410006F9E4F709F7E52D241CF977FF0977FF64
:10315100E52D24F8F9C000E52D2408F8E7F6090863
:10316100E7F60908E7F6D000E52D2408F98782097A
:1031710087830987F0C000E52D240BF8122E61F634
:10318100A31919A78209A783E52D2408F9E52D24A0
:10319100F8F8E7F60908E7F60908E7F6D000E52DA3
:1031A100240BF9B72543C002C000E52D24FBF9E744
:1031B100C0E009E7C0E009E7C0E01231C08012A910
:1031C1002D09E7C0E009E7C0E0E52D240BF987826E
:1031D10022158115811581D000D002E52D240CF92D
:1031E10007B7000209070230F1E52D240BF9B730CA
:1031F1000050030232ABE52D240BF9E724C650033E
:103201000232ABE52D241CF9B7FF5909B7FF55C0B0
:1032110002C000C022E52D2406F9E7C0E009E7C09D
:10322100E090000A1228B6AB82AF8315811581D0D8
:1032310022D000D002E52D240BF987057E00ED2B6D
:10324100FBEE3FFFE52D2406F9EB24D0F7EF34FF29
:1032510009F7E52D2406F9E709476003023169D230
:1032610011023169C002C000C022E52D241CF9E71A
:10327100C0E009E7C0E090000A1228B6AE82AF8331
:1032810015811581D022D000D002E52D240BF987BC
:10329100047D00EC2EFEED3FFFE52D241CF9EE240C
:1032A100D0F7EF34FF09F7023169E52D240BF9B7A7
:1032B1002E1DE52D241CF9B7FF0609B7FF02800377
:1032C100023169E52D241CF9E4F709F7023169E5BA
:1032D1002D240BF9B76100401CE52D240BF9E724DF
:1032E100854012E52D240BF9E754DFF7E52D241372
:1032F100F977018007E52D2413F97700E52D240BDB
:10330100F9B720030233CFE52D240BF9B72B0302C4
:1033110033CAE52D240BF9B72D030233C5E52D245E
:103321000BF9B742030233D4E52D240BF9B743035C
:103331000233DEE52D240BF9B7440302394AE52DAA
:10334100240BF9B74603023971E52D240BF9B7486F
:1033510003023169E52D240BF9B7490302394AE526
:103361002D240BF9B74A03023169E52D240BF9B776
:103371004C028064E52D240BF9B74F03023956E561
:103381002D240BF9B7500302371CE52D240BF9B797
:10339100530302344EE52D240BF9B754030231696E
:1033A100E52D240BF9B7550302395FE52D240BF9FF
:1033B100B75803023968E52D240BF9B75A030231D6
:1033C10069023975D210023169D212023169D21300
:1033D100023169D215023169D216023169301517ED
:1033E100C000E52D24F7F8E614F9E52D24F7F8A639
:1033F10001D00087068014E52D24F7F9E724FEFDAE
:10340100E52D24F7F9A7058D018706C002C000C08C
:1034110022E52D24FBF9E7C0E009E7C0E009E7C098
:10342100E0123427800DA92D09E7C0E009E7C0E0CB
:103431008E8222158115811581D022D000D002E51E
:103441002D240CF907B7000209070239D9E52D240B
:1034510014F9C000E52D24F7F8E624FDFEE52D243E
:10346100F7F8A606A8068604088605088606D00091
:10347100A70409A70509A70619198C828D838EF067
:10348100C002C001C000C022122D86C000C8E52DB7
:103491002410C8A68208A683D000D022D000D00173
:1034A100D002C000E52D241CF8B6FF0608B6FF02C5
:1034B1008004D0008016E52D2410F8C001E52D24EC
:1034C1001CF9E6F70809E6F7D001D0003010030235
:1034D10035A5C000E52D2410F8C001E52D2406F91D
:1034E100C3E69708E60997D001D00040030235A54D
:1034F100C000E52D2406F8C001E52D2410F9E6C32E
:1035010097FE08E60997FDE52D240CF8E52D240E1C
:10351100F9E6F70809E6F7D001D0008E048D071E01
:10352100BEFF011DEC4F605AC006C005C002C001BC
:10353100C000C0228500F0E52D24FBF8E6C0E008BC
:10354100E6C0E008E6C0E0A8F012354F8011850022
:10355100F0A82D08E6C0E008E6C0E075822022153B
:103561008115811581D022D000D001D002D005D0A3
:1035710006C000E52D240EF806B600020806D000AC
:103581008099C000E52D240EF8C001E52D240CF929
:10359100E6F70809E6F7D001E52D2406F8A60608A6
:1035A100A605D000C000E52D241CF8860408860776
:1035B100E52D240CF8C001E52D240EF9E6F70809E4
:1035C100E6F7D001D0008703098705098706191995
:1035D1008B828D838EF0122E61FBFE7003023667A3
:1035E100C3E49C74808FF063F08095F050781CBC2C
:1035F100FF011FC007C004C002C001C000C0228576
:1036010000F0E52D24FBF8E6C0E008E6C0E008E69E
:10361100C0E0A8F012361A80108500F0A82D08E647
:10362100C0E008E6C0E08E8222158115811581D0A7
:1036310022D000D001D002D004D007C000E52D2453
:103641000EF806B600020806D000870309870509AF
:10365100870619190BBB00010DA70309A70509A7C7
:103661000619190235C7E52D240EF9C000E52D24F0
:103671000CF8E7F60908E7F6D0002010030239D963
:10368100E52D2410F9C000E52D2406F8C3E79609BD
:10369100E70896D00040030239D9E52D2406F9C088
:1036A10000E52D2410F8E7C396FE09E70896FFE52B
:1036B1002D240EF9E52D2419F8E7F60908E7F6D0CF
:1036C100008E048F051EBEFF011FEC4D70030239F1
:1036D100BBC007C006C002C000C022E52D24FBF913
:1036E100E7C0E009E7C0E009E7C0E01236F1800E6B
:1036F100A92D09E7C0E009E7C0E075822022158104
:1037010015811581D022D000D002D006D007E52D39
:103711002419F907B70002090780A6E52D2414F939
:10372100C000E52D24F7F8E624FDFDE52D24F7F88A
:10373100A605A8058603088604088605D000A70308
:1037410009A70409A7051919E52D2414FE2402F976
:103751008707BF800040047D438014BF60004004A0
:103761007D50800BBF400040047D4980027D58C0E0
:1037710006C005C002C000C022E52D24FBF9E7C048
:10378100E009E7C0E009E7C0E012378F800DA92DFD
:1037910009E7C0E009E7C0E08D8222158115811596
:1037A10081D022D000D002D005D006E52D240CF91D
:1037B100740127FCE40937FBC006C005C004C0033F
:1037C100C002C000C022E52D24FBF9E7C0E009E7F3
:1037D100C0E009E7C0E01237DC800EA92D09E7C07F
:1037E100E009E7C0E075823A22158115811581D083
:1037F10022D000D002D003D004D005D0060CBC00EA
:10380100010BC006C005C004C003C002C000C02235
:10381100E52D24FBF9E7C0E009E7C0E009E7C0E0D6
:10382100123826800EA92D09E7C0E009E7C0E0752E
:10383100823022158115811581D022D000D002D08D
:1038410003D004D005D0060CBC00010BC006C00596
:10385100C004C003C002C000C022E52D24FBF9E76B
:10386100C0E009E7C0E009E7C0E0123870800EA9A6
:103871002D09E7C0E009E7C0E075827822158115BE
:10388100811581D022D000D002D003D004D005D040
:103891000674012CFCE43BFFBD49028052BD50027D
:1038A100804DEE04F98705C007C004C002C000C006
:1038B10022E52D24FBF9E7C0E009E7C0E009E7C0F4
:1038C100E0A92D09E7C0E009E7C0E0E52D2413F9DF
:1038D100E7C0E08D82122FCBE58124FAF581D02259
:1038E100D000D002D004D00774022CFCE43FFFE5E5
:1038F1002D2405F987018705C007C004C002C00057
:10390100C022E52D24FBF9E7C0E009E7C0E009E7A3
:10391100C0E0A92D09E7C0E009E7C0E0E52D2413C7
:10392100F9E7C0E08D82122FCBE58124FAF581D031
:1039310022D000D002D004D007E52D240CF9740266
:103941002CF7E43F09F70239D9D214E52D241BF9EC
:10395100770A0239D9E52D241BF97708807AE52DFC
:10396100241BF9770A8071E52D241BF977108068F3
:10397100D2178064C002C000C022E52D24FBF9E704
:10398100C0E009E7C0E009E7C0E01239908012A960
:103991002D09E7C0E009E7C0E0E52D240BF9878296
:1039A10022158115811581D022D000D002E52D2468
:1039B1000CF907B700020907801EE52D2419F9C08B
:1039C10000E52D240CF8E7F60908E7F6D000E52D0F
:1039D1002406F9A70609A707201703023ACDE52D0A
:1039E1002414F9C000E52D24F7F8E624FCFFE52DA9
:1039F10024F7F8A607A8078604088605088606089E
:103A01008607A70409A70509A70609A70719191910
:103A1100E52D2414F977B40977430977801919E55D
:103A21002D240CF88604088603D000C000E52D245F
:103A310008F8E7F609E708F609E708F61919E52D88
:103A41002408F8740126FDE40836FE088607A70558
:103A510009A70609A7071919E52D2408F886820880
:103A610086830886F0122E61FFD000EFFE700302FC
:103A710030F1C004C003C002C001C0008500F0E500
:103A81002D24FBF8E6C0E008E6C0E008E6C0E0A8A7
:103A9100F0123A9780108500F0A82D08E6C0E008E2
:103AA100E6C0E08E8222158115811581D000D001FA
:103AB100D002D003D0040CBC00010BC000E52D24C2
:103AC1000CF8A60408A603D000023A2CE52D241B0D
:103AD100F9E770030230F1E52D2412F9870730155B
:103AE10065C007E52D2414F9C000E52D24F7F8E69B
:103AF10014FEE52D24F7F8A606A8068606D0008E4A
:103B0100047D007E007F00A70409A70509A7060917
:103B1100A707191919D007301403023BE4C007871E
:103B2100040987050987060987071919197D007E88
:103B3100007F00A70409A70509A70609A707191906
:103B410019D007023BE430163AC007E52D2414F9D9
:103B5100C000E52D24F7F8E624FCFEE52D24F7F856
:103B6100A606A8068604088605088606088607D0E4
:103B710000A70409A70509A70609A707191919D05C
:103B8100078060C007E52D2414F9C000E52D24F756
:103B9100F8E624FEFEE52D24F7F8A606A80686051C
:103BA100088606D000EEFC3395E0FEFFA70509A7C5
:103BB1000409A70609A707191919D007201424C059
:103BC1000787040987050987060987071919197ED7
:103BD100007F00A70409A70509A70609A707191966
:103BE10019D00730144CC007E52D2414F9870409B6
:103BF1008705098706098707191919EFD00730E7E3
:103C01002FC007870409870509870609870719193E
:103C110019C3E49CFCE49DFDE49EFEE49FFFA70420
:103C210009A70509A70609A707191919D0078002CD
:103C3100C214D2158F01C000E52D2410F8E4F60856
:103C4100F6D000E52D24142404C000F87600D0003D
:103C51008805C002C001C000C0228500F0E52D2406
:103C61001BF8E6C0E08D8212303F1581D022D000D2
:103C7100D001D002201519C000E52D2403F88600DB
:103C81008605D000EDC4FDE7FC4205A70519800AB1
:103C9100C000A8028605D000A705C000E52D2410AC
:103CA100F806B600020806D000B21586030886049D
:103CB100088605088607181818EB4C4D4F70848943
:103CC10007E52D2410F9C000E52D241EF8E7F609BB
:103CD10008E7F6D000E52D2406F9E70947700AE563
:103CE1002D2406F97701097700301103023DA23036
:103CF1001003023DA2E52D240CF98704098703E591
:103D01002D2406F9C000E52D2410F8E7F60908E78F
:103D1100F6D000C007E52D241EF987070F8F067F17
:103D210000E52D2410F9C3EE97EF0997D007505302
:103D3100C007C004C003C002C000C022E52D24FB9F
:103D4100F9E7C0E009E7C0E009E7C0E0123D5280B1
:103D51000EA92D09E7C0E009E7C0E0758220221510
:103D61008115811581D022D000D002D003D004D09A
:103D7100070CBC00010BE52D2410F917B7FF020950
:103D8100178090E52D240CF9A70409A703E52D243C
:103D910010F9C000E52D2406F8E7F60908E7F6D08A
:103DA10000301452C007C002C000C022E52D24FB20
:103DB100F9E7C0E009E7C0E009E7C0E0123DC280D1
:103DC1000EA92D09E7C0E009E7C0E075822D221593
:103DD1008115811581D022D000D002D007E52D2494
:103DE1000CF907B700020907E52D2406F917B7FFFB
:103DF100020917023EAAE52D241EF9E709477003BF
:103E0100023EAA301251C007C002C000C022E52DF7
:103E110024FBF9E7C0E009E7C0E009E7C0E0123E92
:103E210024800EA92D09E7C0E009E7C0E075822BC7
:103E310022158115811581D022D000D002D007E54D
:103E41002D240CF907B700020907E52D2406F917FF
:103E5100B7FF020917805230134FC007C002C000DC
:103E6100C022E52D24FBF9E7C0E009E7C0E009E73E
:103E7100C0E0123E78800EA92D09E7C0E009E7C035
:103E8100E075822022158115811581D022D000D0C4
:103E910002D007E52D240CF907B700020907E52D2B
:103EA1002406F917B7FF020917301003023F45E551
:103EB1002D240CF9C000E52D2410F8E7F60908E7D8
:103EC100F6D000E52D2406F98703098704C0078B86
:103ED100068C071BBBFF011CE52D241EF9C3E79EC1
:103EE10009E79FD0074003023F8E3011067D307EE7
:103EF1000080047D207E00C007C004C003C002C052
:103F010000C022E52D24FBF9E7C0E009E7C0E00984
:103F1100E7C0E0123F19800DA92D09E7C0E009E7CC
:103F2100C0E08D8222158115811581D022D000D06B
:103F310002D003D004D007E52D2410F907B7000201
:103F410009078089E52D2406F9C000E52D241EF816
:103F5100C3E69708E60997D0005027E52D2406F916
:103F6100C000E52D241EF8E7C396C0E009E70896D6
:103F7100C0E0E52D240FF9D0E0F719D0E0F7D0002B
:103F81008029E52D240EF9E4F709F7801EE52D249B
:103F910010F9C000E52D240CF8E7F60908E7F6D082
:103FA10000E52D240EF9A70309A7048F01C000E540
:103FB1002D240CF88604088607E52D241EF8C0017F
:103FC100E52D2410F9E6F70809E6F7D001D000C085
:103FD10000E52D2410F88603088606E52D2410F847
:103FE10016B6FF020816D000EB4E7003024078B2FD
:103FF1001520151009E7C4540FFEC000A802A6063B
:10400100D000800C8706740F5EC000A802F6D000B5
:10401100C000E52D2404F886008606D000C007C044
:1040210004C002C001C000C0228500F0E52D24FBC0
:10403100F8E6C0E008E6C0E008E6C0E0A8F08500C8
:10404100F0A82D08E6C0E008E6C0E0A8F08500F081
:10405100E52D2413F8E6C0E08E82122F7FE581243E
:10406100FAF581D022D000D001D002D004D0070CC3
:10407100BC00010F023FD0E52D240CF9A70409A7CC
:10408100072010030230F1E52D2419F9A70409A72F
:1040910007E52D240EF987040987058C038D071C7C
:1040A100BCFF011DEB4F70030230F1C005C004C01D
:1040B10002C000E52D24FBF9E7C0E009E7C0E009F3
:1040C100E7C0E01240C9800EA92D09E7C0E009E769
:1040D100C0E075822022158115811581D000D002A2
:1040E100D004D005E52D2419F907B700020907E529
:1040F1002D2419F9C000E52D240CF8E7F60908E78D
:10410100F6D0008096C002C000E52D24FBF9E7C07F
:10411100E009E7C0E009E7C0E012411F800DA92DC9
:1041210009E7C0E009E7C0E08E82221581158115FB
:1041310081D000D002E52D240CF907B70002090750
:104141000230F1E52D240CF88682088683852D81C5
:03415100D02D224C
:0B43B4003C4E4F20464C4F41543E0051
:104154007F9E12417B30D103022CC7C3EF9582505E
:104164000974FFF5F0F583F582227900122EF789A0
:10417400828A838BF0EC22AA82AB83A2F73392D19A
:09418400F5826002D2F7ACF022D2
:00000001FF
