:040000000200413287
:03000B0002283C8C
:0300130002282F91
:01001B0032B2
:0100230032AA
:01002B0032A2
:01003300329A
:03003B0002282474
:10009A00E4F536F537E4F538F539E4F522F523F5D4
:1000AA0024F525F526F527F528F529F52AF52BF562
:1000BA002CF52DF52EF52F753001F531C200C20150
:1000CA00C202D2037801E4F208F208F208F27805D3
:1000DA00F208F208F208F27809F208F27834746F3A
:1000EA00F2087420F2783674C5F208E4F202003E8F
:03003E0002146940
:1000FA00AE82AF838FC38EC475C78275C50175C6BC
:10010A005A75C6A5C006C00774E9C0E07448C0E0C5
:10011A007480C0E012348FE58124FBF581AFC2AD53
:10012A00C77E008F037C00C007C005C006C003C09D
:10013A000474F3C0E07448C0E07480C0E012348FE5
:10014A00E58124F9F581D0078F8222C03A85813A68
:10015A00AE82AF83E53A24FDF886C28FC38EC4759A
:10016A00C78275C50275C65A75C6A5E53A24FDF853
:10017A0086047D00C004C005C006C0077409C0E03B
:10018A007449C0E07480C0E012348FE58124F9F527
:10019A0081D3D03A22AE82AF838FC38EC475C78211
:1001AA0075C50375C65A75C6A5C006C0077419C0B9
:1001BA00E07449C0E07480C0E012348FE58124FB0A
:1001CA00F581D322C03A85813A05810581AE82AF95
:1001DA0083E53A24FCF8A93A09E6F70809E6F78E16
:1001EA00828F83C007C0061200FAAD82D006D007FC
:1001FA00BDFF02800F8E828F83C007C00612019F47
:10020A00D006D0078E828F83A3C007C0061200FAD9
:10021A00AD82D006D007BDFF0280108E828F83A3E5
:10022A00C007C00612019FD006D007AD3A0D7C0068
:10023A007B408D828C838BF01235BDFAC007C006D5
:10024A00C005C004C003C0028E828F8312015515F7
:10025A0081D003D004D005D006D0070DBD00010C13
:10026A008D828C838BF01235BDFD8E828F83A3C065
:10027A00051201551581D3853A81D03A22C03A85B3
:10028A00813A05810581AE82AF83AD3A0D7C007B50
:10029A00408E828F83C007C006C005C004C0031207
:1002AA0000FAAA82D003D004D005D006D0078D82E6
:1002BA008C838BF0EA122FC70DBD00010C8E828F42
:1002CA0083A3C005C004C0031200FAAF82D003D0D2
:1002DA0004D0058D828C838BF0EF122FC7A83A08C1
:1002EA008682088683853A81D03A227E007F00740E
:1002FA00FC2F4059EE54077021C007C006C006C043
:10030A00077426C0E07449C0E07480C0E012348FDC
:10031A00E58124FBF581D006D0078E828F83C00742
:10032A00C0061200FAAD827C00C005C004742EC05B
:10033A00E07449C0E07480C0E012348FE58124FB88
:10034A00F581D006D0070EBE00A50F80A222AE828C
:10035A00AF838E048F051EBEFF011FEC4D70F32282
:10036A00AE82AF838E048F051EBEFF011FEC4D6067
:10037A00109004FFC007C006120358D006D00780A9
:10038A00E322758780759850758922758DFD758B66
:10039A00FDD28ED299758C05759CD7758E15D28C27
:1003AA00D2AAD28AD2AFD2A922AE82AF8310990240
:1003BA0080FB8E998E828F832275D98C75D80075B1
:1003CA00E90075F90075EA5575FA0575DA492212D8
:1003DA00038C75BB70122C6B743DC0E07449C0E08D
:1003EA007480C0E07439C0E07449C0E07480C0E031
:1003FA007434C0E07449C0E07480C0E0740BC0E09B
:10040A007400C0E07460C0E01231A5E58124F4F5FF
:10041A0081744FC0E07449C0E07480C0E0744CC07D
:10042A00E07449C0E07480C0E0741BC0E07400C08E
:10043A00E07460C0E01231A5E58124F7F5817458B3
:10044A00C0E07449C0E07480C0E0744CC0E07449F4
:10045A00C0E07480C0E07420C0E07400C0E0746042
:10046A00C0E01231A5E58124F7F58190000B75F003
:10047A0060122CFE9003E812036A7594101203C3EB
:10048A00900004120287AE82AF83BEFF05BFFF024F
:10049A0080077834EEF208EFF2900006120287AE77
:1004AA0082AF83BEFF04BFFF01227836EEF208EF67
:1004BA00F222C03A85813A05810581AE82AF83C0B6
:1004CA0007C0067410C0E0740EC0E08E828F8312DB
:1004DA002E0FAC82AD8315811581C005C004C004FE
:1004EA00C005900E10123012AA82AB8315811581B5
:1004FA00D004D005D006D007EEC39AFEEF9BFFC00A
:10050A0007C006C005C004743CC0E0E4C0E08E82A7
:10051A008F83122E0FAA82AB8315811581A83A0800
:10052A00A60208A603A83A08E6C0E008E6C0E090DA
:10053A00003C123012AA82AB8315811581D004D0F7
:10054A0005D006D007EEC39AFEEF9BFFC006C00790
:10055A00A83A08E6C0E008E6C0E0C004C005746432
:10056A00C0E07449C0E07480C0E0741BC0E074004D
:10057A00C0E07460C0E01231A5E58124F4853A81B7
:10058A00D03A22C03AE581F53A2404F581C201C283
:10059A00007801A93A09D3E29522F4B3F7B308E245
:1005AA009523F4B309F7B308E29524F4B309F7B332
:1005BA0008E29525F409F77834E2FA08E2FB7E00AE
:1005CA007F00C002C003C006C007A83A0886820896
:1005DA0086830886F008E61231FDAC82AD83AEF060
:1005EA00FFE58124FCF5817809ECF208EDF2ECB51F
:1005FA003606EDB53702804EC004C0057473C0E0FC
:10060A007449C0E07480C0E012348FE58124FBF5A0
:10061A008130031BAE32AF337809D3E29EF4B3FEC6
:10062A00B308E29FF4FF8E828F831204BC800C7899
:10063A0009E2F58208E2F5831204BCD20190000BAC
:10064A0075F060122CFE7809E2F53608E2F5378576
:10065A003A81D03A22AF82C208EFFD3395E0FEC05C
:10066A0007C021C005C0067482C0E07449C0E074A6
:10067A0080C0E012348FE58124FBF581D021D007B8
:10068A00EF30E706C3E49FFFD208BF08027F0CBF22
:10069A0009027F16C3EF648094885008EF75F00A48
:1006AA00A4FE04FFEF3395E0FEC007C006C0217424
:1006BA000AC0E0E4C0E08F828E831235D9AC82157D
:1006CA00811581D021D006D007EC75F00CA4FCC0AE
:1006DA0004C021740AC0E0E4C0E08F828E8312361F
:1006EA0016AE8215811581D021D004EE2EFF1F1F70
:1006FA00EF2CFFC3EE6480948440011F3008010F81
:10070A008F057E00C007C005C006748DC0E074491D
:10071A00C0E07480C0E012348FE58124FBF581D0FB
:10072A00078F8222C03A85813AC082C083E581243C
:10073A0006F581C2DEE53A2407F8E4F608F67A00FF
:10074A007B00A83A08EA26FCEB0836FD8C828D83EA
:10075A00E493FF7E00C005C004C003C002C002C00B
:10076A0003C007C0067499C0E07449C0E07480C031
:10077A00E012348FE58124F9F581D002D003D00448
:10078A00D005B280B2818C828D83E493FFBF7F0350
:10079A000208AFEF7004C2DE803BD2DE8F82C00354
:1007AA00C00212065FE582D002D00375F002A424CB
:1007BA0061F582742835F0F583E53A2407F8E49365
:1007CA00F6A3E49308F6E53A2407F886EAE53A241C
:1007DA0007F80886FAAC22AD23AE24AF257805ECDB
:1007EA00F208EDF208EEF208EFF2C003C0021210AE
:1007FA0005AF82D002D003BFE40280030208B1C071
:10080A0002C003E53A2407F88682088683C003C03B
:10081A0002120358D002D0037805E53A2403F9D32B
:10082A00E29522F4B3F7B308E29523F4B309F7B3D8
:10083A0008E29524F4B309F7B308E29525F409F719
:10084A007834E22432F58208E23400F5837464C015
:10085A00E0E4C0E0122E0FAA82AB8315811581C095
:10086A0002C003900019123012AA82AB83158115B7
:10087A0081E4FEFFE53A2403F8C3E69A08E69B08FA
:10088A00E69E08E69FD003D00250030207F40ABA94
:10089A0000010BBA2C05BB0102800302074C7A0047
:1008AA007B0002074CC2DE853A81D03A2243BC80E3
:1008BA00900001120358439D0475BC8290000112F6
:1008CA00035875BD0043BC08900001120358E5BCEB
:1008DA0030E4FB53BCE7AEBD7F00EE2EFEEF33FFE4
:1008EA00EE2EFEEF33FFACBE7D00EE4204EF420572
:1008FA008C828D831232FDAC82AD83AEF0FFC004D0
:10090A00C005C006C00790CCCD75F01C74451234E2
:10091A00FAAC82AD83AEF0FFE58124FCF581C00715
:10092A00C006C005C004C004C005C006C00774A440
:10093A00C0E07449C0E07480C0E012348FE58124BD
:10094A00F9F581D004D005D006D007539DFB53BCDE
:10095A007F8C828D838EF0EF22C03A85813AC082E5
:10096A00C083C0F0E581240DF581A83A08740326F6
:10097A00FAE40836FB0886048A828B838CF0E53A0F
:10098A002409F81235BDF6A31235BD08F6A31235AF
:10099A00BD08F6A31235BD08F6C004C003C002E5BF
:1009AA003A2409F8E6C0E008E6C0E008E6C0E00834
:1009BA00E6C0E090FF0075F07F7447122FE2AF8225
:1009CA00E58124FCF581D002D003D004EF6037A87A
:1009DA003A0886820886830886F01235BDFDA3127E
:1009EA0035BDFEA31235BDFF74ACC0E07449C0E04A
:1009FA007480C0E08D828E838FF0122E401581158F
:100A0A00811581020DC5C002C003C004E53A24095C
:100A1A00F886820886830886F008E6C004C003C008
:100A2A0002123309AE82AF83D002D003D004A83AAF
:100A3A000886820886830886F01235BDFBA3123524
:100A4A00BDFCA31235BDFDC007C006C004C003C06B
:100A5A0002C006C00774AFC0E07449C0E07480C029
:100A6A00E0C003C004C0051231A5E58124F8F58170
:100A7A00D002D003D004A83A088682088683088662
:100A8A00F01235BDFBA31235BDFCA31235BDFD8B9B
:100A9A00828C838DF0C003C0021234E2AC82D00291
:100AAA00D003D006D007E53A2409F8A604A83A08E4
:100ABA00E53A2404F9740726F7E4083609F7080921
:100ACA00E6F7E53A2404F886820886830886F01257
:100ADA0035BDFDE53A2409F8C3E69DD004D003D01C
:100AEA00024003020BD7C002C003C004E53A240740
:100AFA00F8A605087600A83A08868208868308863A
:100B0A00F01235BDFAA31235BDFBA31235BDFDC0E7
:100B1A0007C006C004C003C002E53A2407F8E6C0CD
:100B2A00E008E6C0E07430C0E08A828B838DF01260
:100B3A003314158115811581D002D003D004D00653
:100B4A00D007A83A0886820886830886F01235BD3F
:100B5A00FBA31235BDFCA31235BDFDE53A2404F80A
:100B6A0086820886830886F01235BDFAE53A24049F
:100B7A00F8EA2BF6E43C08F608A605E53A2409F853
:100B8A0086027D00E53A2404F8E6C39AFA08E69D4F
:100B9A00FD088604C007C006C004C003C002C00620
:100BAA00C00774AFC0E07449C0E07480C0E0C002FE
:100BBA00C005C0041231A5E58124F8F581D002D020
:100BCA0003D004D006D007D004D003D0028A828B87
:100BDA00838CF0E53A2409F81235BDF6A31235BD27
:100BEA0008F6A31235BD08F6A31235BD08F68E82A3
:100BFA008F831232FDAC82AD83AEF0FFC004C00514
:100C0A00C006C007E53A2409F88682088683088662
:100C1A00F008E6122E04AC82AD83AEF0FFE5812423
:100C2A00FCF581E4C0E0C0E07480C0E0743FC0E03D
:100C3A008C828D838EF0EF123034AC82AD83AEF0AD
:100C4A00FFE58124FCF581E53A240DF8A60408A6FF
:100C5A000508A60608A607A83A08740826FAE408AA
:100C6A0036FB0886078A828B838FF01235BDFF8F89
:100C7A00061FEE6042C007E53A240DF8E6C0E00818
:100C8A00E6C0E008E6C0E008E6C0E090000075F0C3
:100C9A00207441122EACAC82AD83AEF0FBE5812408
:100CAA00FCF581D007E53A240DF8A60408A6050844
:100CBA00A60608A60380B8E53A240DF886820886B7
:100CCA00830886F008E6123309AE82AF83A83A0891
:100CDA0086820886830886F01235BDFBA31235BDCD
:100CEA00FCA31235BDFD8B828C838DF0C007C00634
:100CFA001234E2AC82D006D007A83A088682088667
:100D0A00830886F01235BDFAA31235BDFBA312354E
:100D1A00BDFDEC2AFAE43BFBC004C006C00774AF71
:100D2A00C0E07449C0E07480C0E0C002C003C005DE
:100D3A001231A5E58124F8F581D004A83A08868203
:100D4A000886830886F01235BDFDA31235BDFEA3C1
:100D5A001235BDFFEC2DFCE43EFB8F028C828B83A7
:100D6A008AF0742E122FC7A83A08740926FDE408DF
:100D7A0036FE0886078D828E838FF01235BDFDA35D
:100D8A001235BDFEA31235BDFFED4E602EA83A08FE
:100D9A0086820886830886F01235BDFAA31235BD0D
:100DAA00FBA31235BDFCC005C006C0078A828B832F
:100DBA008CF012337E158115811581853A81D03ADE
:100DCA0022C03AE581F53A240CF581200805200174
:100DDA000280551208B7AC82AD83AEF0FFA93A097A
:100DEA007726097700097760AB3A0B74032BF8A6CC
:100DFA000408A60508A60608A60774072BF87601B4
:100E0A0074082BF8760274092BF977B20977490925
:100E1A0077807F007E408B828F838EF012096390E9
:100E2A00000B75F060122CFE853A81D03A22C03A46
:100E3A0085813AAE82AF83C202AA22AB23AC24AD2B
:100E4A00257801EAF208EBF208ECF208EDF2C007A5
:100E5A00C006C02EC02F900E10123012AC82AD8385
:100E6A0015811581C005C004C030C03190003C1204
:100E7A003012AA82AB8315811581D004D005EA2CE1
:100E8A00FCEB3DFD8C328D337534007535007809E5
:100E9A00E4F208F27420C0E0E4C0E07420C0E090FC
:100EAA00000B75F060123314158115811581C0305D
:100EBA00C031C02EC02F74B4C0E07449C0E0748041
:100ECA00C0E0740BC0E07400C0E07460C0E012318E
:100EDA00A5E58124F6F58174C1C0E07449C0E074C7
:100EEA0080C0E07415C0E07400C0E07460C0E01215
:100EFA0031A5E58124FAF581D006D0077824E53AB0
:100F0A0024FDF9E7F290000B75F060C007C00612E5
:100F1A002CFED006D007300203020FDFC2F0C00752
:100F2A00C00685F021120DCB12058DD006D0072000
:100F3A00875B900064C007C00612036AD006D00718
:100F4A0020874AC007C006C030C031C02EC02F74E7
:100F5A00C8C0E07449C0E07480C0E0741BC0E0748B
:100F6A0000C0E07460C0E01231A5E58124F6F58185
:100F7A00D006D00790000B75F060C007C006122C8F
:100F8A00FE9007D012036AD006D00780487809E29B
:100F9A00FA08E2FB7C007D00C3EA9532EB9533EC5C
:100FAA009534ED95355003020F20C007C006780925
:100FBA00E2C0E008E2C0E074D2C0E07449C0E07464
:100FCA0080C0E012348FE58124FBF581D006D0077A
:100FDA00D202020F20300220C280D2818E828F83F9
:100FEA0012072E74EDC0E07449C0E07480C0E012AC
:100FFA00348F158115811581D03A22E58054E0FF9E
:10100A00E5B054044FF58222AF805307E0E5B054AF
:10101A0004FE4207BFE4030210BE900014C0071288
:10102A00036AD007AE805306E0E5B05404FD4206D9
:10103A00BEE4028003EF4206BEE4028077EE20E2BD
:10104A0019C00674FAC0E07449C0E07480C0E012A6
:10105A00348F158115811581D006EE20E719C00657
:10106A007408C0E0744AC0E07480C0E012348F157E
:10107A008115811581D006EE20E619C0067416C0C6
:10108A00E0744AC0E07480C0E012348F1581158183
:10109A001581D006EE20E519C0067424C0E0744A12
:1010AA00C0E07480C0E012348F158115811581D09B
:1010BA00068E82227582E422AE827F00C007C006B5
:1010CA00121012AD82D006D007BDE40280038D82D1
:1010DA0022900014C007C00612036AD006D0078EF9
:1010EA00048F051EBEFF011FEC4D70D07582E422ED
:1010FA00C03A85813A0581AE82AF837C017D00D2F8
:10110A0008900190C007C006C005C004C0211203A0
:10111A006AD021C0217421C0E0E4C0E07420C0E09C
:10112A0090000B75F060123314158115811581D06A
:10113A0021D004D005D006D0078E828F83C007C085
:10114A0006C005C004C021120287AA82AB83D0213F
:10115A00C003C002C021E53A24FBF8E6C0E008E675
:10116A00C0E008E6C0E0740BC0E07400C0E0746040
:10117A00C0E01231A5E58124FAF581D021D002D050
:10118A0003D004D005D006D007C007C006C005C0EA
:10119A0004C003C002C021C002C00374AFC0E0741F
:1011AA0049C0E07480C0E0741BC0E07400C0E07401
:1011BA0060C0E01231A5E58124F8F581D021D00282
:1011CA00D003D004D005D006D00790000B75F0608C
:1011DA00C007C006C005C004C003C002C021122C4B
:1011EA00FED021D002D003D004D005D006D007C04B
:1011FA0006C00775820AC006C005C004C003C00243
:10120A00C0211210C2AF82D021D002D003D004D0A4
:10121A0005D006BFE406D007D00680D3D007D00693
:10122A00C006C007758202C006C005C004C003C05C
:10123A0002C0211210C2AF82D021D002D003D00442
:10124A00D005D006A83A08A607A83A08E6D007D0DB
:10125A000630E5030213CB900190C007C006C00513
:10126A00C004C003C002C02112036AD021C0217485
:10127A0008C0E0E4C0E07420C0E090000B75F060A4
:10128A00123314158115811581D021C0217432C001
:10129A00E0744AC0E07480C0E0740BC0E07400C01F
:1012AA00E07460C0E01231A5E58124FAF581D0210D
:1012BA00D002D003D004D005D006D00790000B7519
:1012CA00F060C007C006C005C004C003C002C02148
:1012DA00122CFED021D002D003D004D005D006D0E3
:1012EA0007C006C00775820AC006C005C004C0034D
:1012FA00C002C0211210C2AF82D021D002D003D0C6
:10130A0004D005D006BFE406D007D00680D3D007A4
:10131A00D0067582C8C007C006C005C004C003C095
:10132A0002C0211210C2E582D021D002D003D0041B
:10133A00D005D006D00730E503021193900190C082
:10134A0007C006C003C00212036AD002D003D00647
:10135A00D007C007C006C003C002C006C007C0024B
:10136A00C003743BC0E0744AC0E07480C0E0123429
:10137A008FE58124F9F581D002D003D006D007C0C9
:10138A0002C0038E828F831201CE15811581745596
:10139A00C0E0744AC0E07480C0E07410C0E0740019
:1013AA00C0E07460C0E01231A5E58124FAF58190AD
:1013BA00000B75F060122CFE9003E812036A021407
:1013CA0064A83A08E620E2469000C8C007C006C0F2
:1013DA0005C004C003C002C02112036AD021D00292
:1013EA00D003D004D005D006D007200811C3EC944E
:1013FA0030ED9475500CEC2CFCED33FD80047C012F
:10140A007D00C208EAC39CFAEB9DFB021193A83A3D
:10141A0008E620E6459000C8C007C006C005C0041B
:10142A00C003C002C02112036AD021D002D003D067
:10143A0004D005D006D007300811C3EC9430ED94DF
:10144A0075500CEC2CFCED33FD80047C017D00D240
:10145A0008EC2AFAED3BFB0211931581D03A22C01F
:10146A003AE581F53A2419F581C208C0211203D957
:10147A00D02175820AC0211210C2E582D02130E241
:10148A00030215749005DC12036A7420C0E0E4C0FC
:10149A00E07420C0E090000B75F0601233141581DF
:1014AA00158115817460C0E0744AC0E07480C0E0A0
:1014BA00740BC0E07400C0E07460C0E01231A5E5AE
:1014CA008124FAF5817468C0E0744AC0E07480C06F
:1014DA00E0741BC0E07400C0E07460C0E01231A583
:1014EA00E58124FAF58190000B75F060122CFE90CC
:1014FA0001F412036A902B8E12072E746DC0E074E9
:10150A004AC0E07480C0E0741BC0E07400C0E0749C
:10151A0060C0E01231A5E58124FAF58190000B75CF
:10152A00F060122CFE9001F412036A9028E112076F
:10153A002E747CC0E0744AC0E07480C0E0741BC0A2
:10154A00E07400C0E07460C0E01231A5E58124FABD
:10155A00F58190000B75F060122CFE9001F41203D5
:10156A006A9029A912072E02149475820AC02112C0
:10157A0010C2E582D02130E703021A1EC02174206E
:10158A00C0E0E4C0E0742DC0E090000B75F060127A
:10159A003314158115811581D021C021743DC0E015
:1015AA007449C0E07480C0E07439C0E07449C0E096
:1015BA007480C0E07434C0E07449C0E07480C0E054
:1015CA00740BC0E07400C0E07460C0E01231A5E59D
:1015DA008124F4F581D02190000B75F060C02112AE
:1015EA002CFED0219003E8C02112036AD021AC223C
:1015FA00AD23AE24AF257801ECF208EDF208EEF245
:10160A0008EFF2C021C004C005C006C007748CC030
:10161A00E0744AC0E07480C0E0741BC0E07400C08B
:10162A00E07460C0E01231A5E58124F6F581D0218D
:10163A007834E2FC08E2FD7E007F00C021C004C0CD
:10164A0005C006C0077801E2F58208E2F58308E2E0
:10165A00F5F008E21231FDAC82AD83AEF0FFE58110
:10166A0024FCF581D021C021C004C005C006C007F2
:10167A00748CC0E0744AC0E07480C0E07425C0E095
:10168A007400C0E07460C0E01231A5E58124F6F56B
:10169A0081D02190000B75F060C021122CFED02160
:1016AA00C021121005AF82D021BFE4030219D9C0AC
:1016BA0021121005E582D02120E7030219E69001E4
:1016CA0090C02112036AD021C0217410C0E0E4C086
:1016DA00E07420C0E090000B75F06012331415819D
:1016EA0015811581D0217834E2FE08E2C313CE13A6
:1016FA00CEFF7D007C007801A93A09E22EF708E2C4
:10170A003F09F708E23D09F708E23C09F77834E2B5
:10171A00FA08E2FB7E007F00C021C002C003C006B7
:10172A00C007A83A0886820886830886F008E61267
:10173A0031FDAC82AD83AEF0FFE58124FCF581D0AA
:10174A00217809ECF208EDF2C0217801E2C0E00844
:10175A00E2C0E008E2C0E008E2C0E0748CC0E074D5
:10176A004AC0E07480C0E0740BC0E07400C0E0744A
:10177A0060C0E01231A5E58124F6F581D021C021AF
:10178A007809E2C0E008E2C0E074AFC0E07449C082
:10179A00E07480C0E07415C0E07400C0E07460C0FA
:1017AA00E01231A5E58124F8F581D02190000B756E
:1017BA00F060C021122CFED02175820AC0211210BD
:1017CA00C2AF82D021BFE40280EF758202C021122B
:1017DA0010C2AF82D021EF30E50302194890019080
:1017EA00C02112036AD0217809E2FB08E2FC7D00DD
:1017FA007E00C021C003C004C005C0067801E2F51E
:10180A008208E2F58308E2F5F008E21231FDAB82C4
:10181A00AC83E58124FCF581D021C004C003C0213A
:10182A007408C0E0E4C0E07420C0E090000B75F0DA
:10183A0060123314158115811581D021D003D0048B
:10184A00C004C003C021C003C00474AFC0E074491F
:10185A00C0E07480C0E0740BC0E07400C0E0746043
:10186A00C0E01231A5E58124F8F581D021D003D05A
:10187A000490000B75F060C004C003C021122CFE56
:10188A00D021D003D00475820AC004C003C021123B
:10189A0010C2AE82D021D003D004BEE40280E77524
:1018AA0082C8C004C003C0211210C2E582D021D070
:1018BA0003D00430E503021980C004C003C02174B8
:1018CA0090C0E0744AC0E07480C0E07413C0E07451
:1018DA0000C0E07460C0E01231A5E58124FAF58108
:1018EA00D021D003D00490000B75F060C004C0036F
:1018FA00C021122CFED021900190C02112036AD07F
:10190A0021D003D004C004C003C021C003C00474A2
:10191A0099C0E0744AC0E07480C0E012348FE58157
:10192A0024FBF581D021D003D004C021C003C00418
:10193A009000041201CE15811581D0218038EF2044
:10194A00E218900190C02112036AD0217809E2249A
:10195A00FFF208E234FFF2021752EF20E618900174
:10196A0090C02112036AD0217809E22401F208E228
:10197A003400F2021752C0217408C0E0E4C0E074D7
:10198A0020C0E090000B75F06012331415811581A8
:10199A001581D021C0217834E2C0E008E2C0E074A9
:1019AA00AFC0E07449C0E07480C0E0740BC0E0745A
:1019BA0000C0E07460C0E01231A5E58124F8F58129
:1019CA00D02190000B75F060C021122CFED021901E
:1019DA000190C02112036AD0210215F8C02174AB0C
:1019EA00C0E0744AC0E07480C0E09000041210FAAB
:1019FA00158115811581D021C02174B6C0E0744AC1
:101A0A00C0E07480C0E09000061210FA15811581BA
:101A1A001581D021C021740BC0E07400C0E074604D
:101A2A00C0E074BDC0E0744AC0E07480C0E0123403
:101A3A008FE58124FAF581D021C0217422C0E07497
:101A4A0000C0E07440C0E074CBC0E0744AC0E074E7
:101A5A0080C0E012348FE58124FAF581D021C021BB
:101A6A007409C0E07400C0E07460C0E074D9C0E0DA
:101A7A00744AC0E07480C0E012348FE58124FAF51C
:101A8A0081D021C0217420C0E0E4C0E07420C0E00D
:101A9A0090000B75F060123314158115811581D0F1
:101AAA0021C02174E7C0E0744AC0E07480C0E090AD
:101ABA00000B75F060122E40158115811581D02119
:101ACA0090000B75F060C021122CFED02175829611
:101ADA00C0211210C2AF82D0218F057E00C007C07C
:101AEA0021C005C0067404C0E0744BC0E07480C015
:101AFA00E012348FE58124FBF581D021D007BFE4C1
:101B0A00028003021BA0753005E4F531F52EF52F8E
:101B1A00C0217420C0E0E4C0E07420C0E090000B53
:101B2A0075F060123314158115811581D021C021F9
:101B3A00740EC0E0744BC0E07480C0E090000B7576
:101B4A00F060122E40158115811581D02190000B6D
:101B5A0075F060C021122CFED021902B85C0211275
:101B6A00072ED021D203C0217431C0E0902B8512F8
:101B7A000E381581D021C0217432C0E0902B851215
:101B8A000E381581D021C0217433C0E0902B851204
:101B9A000E381581D021C0217420C0E0E4C0E07461
:101BAA0020C0E090000B75F0601233141581158186
:101BBA001581D021C0217421C0E0744BC0E074802B
:101BCA00C0E090000B75F060122E4015811581154A
:101BDA0081D02190000B75F060C021122CFED0211B
:101BEA00900258C02112036AD021758296C0211230
:101BFA0010C2AF82D021BFE40280030224EEE4F5D2
:101C0A0030F531752E0F752F27C203AC22AD23AEE6
:101C1A0024AF257801ECF208EDF208EEF208EFF2B3
:101C2A007809E4F208F2C0217420C0E0E4C0E0744C
:101C3A0020C0E090000B75F06012331415811581F5
:101C4A001581D021C0217440C0E0744BC0E074807B
:101C5A00C0E090000B75F060122E401581158115B9
:101C6A0081D02190000B75F060C021122CFED0218A
:101C7A00E53A2406FFFEC2F0C007C006C02185F07F
:101C8A0021120DCBD021C02112058DD021C02112E5
:101C9A001005AD82D021D006D007BDE40280030230
:101CAA0024EEE526B52A12E527B52B0DE528B52C35
:101CBA0008E529B52D0302226AE52A452B452C455C
:101CCA002D700302224EC006E526C3952AFAE5279F
:101CDA00952BFBE528952CFCE529952DFDE53A2465
:101CEA0012F8A60208A60308A60408A6057836E292
:101CFA00F58208E2F583C007C0211232FDAB82AC3F
:101D0A0083ADF0FED021C006C021C003C004C005C7
:101D1A00C006900FD075F0C97440122EACA83A08CC
:101D2A00A68208A68308A6F008F6E58124FCF581B8
:101D3A00D021D0067834E2F58208E2F583C0211278
:101D4A0032FDAA82AC83ADF0FED021C021C002C010
:101D5A0004C005C006A83A0886820886830886F069
:101D6A0008E6122EACAB82AC83ADF0FEE58124FC12
:101D7A00F581D021C006C021E4C0E0C0E0747AC079
:101D8A00E07444C0E08B828C838DF0EE1234FAA8A2
:101D9A003A08A68208A68308A6F008F6E58124FC7C
:101DAA00F581D021D006E53A2412F8868208868386
:101DBA000886F008E6C021122FB0AA82AC83ADF0E3
:101DCA00FED021C021C002C004C005C006A83A083E
:101DDA0086820886830886F008E61234FAAB82AC5B
:101DEA0083ADF0FEE58124FCF581D021C021C0033A
:101DFA00C004C005C00690000075F0617445122E3B
:101E0A00ACAB82AC83ADF0FEE58124FCF581D02138
:101E1A00C021E4C0E0C0E0747AC0E07444C0E08B42
:101E2A00828C838DF0EE1234FAAB82AC83ADF0FE75
:101E3A00E58124FCF581D021E53A2416F8A60308A9
:101E4A00A60408A60508A606C006C021E53A241677
:101E5A00F8E6C0E008E6C0E008E6C0E008E6C0E050
:101E6A007444C0E0744BC0E07480C0E012348FE563
:101E7A008124F9F581D021D006C021E4C0E0C0E078
:101E8A0074C8C0E07442C0E0E53A2416F8868208B5
:101E9A0086830886F008E6122FE2AE82E58124FCEA
:101EAA00F581D021D007EED00670030224E1C006E6
:101EBA00E53A2416F87930E6F30809E6F30809E664
:101ECA00F30809E6F37836E2F58208E2F583C007FB
:101EDA00C006C0211232FDAA82AB83ACF0FDD0212C
:101EEA00C021C002C003C004C005900FD075F0C95C
:101EFA007440122EACAA82AB83ACF0FDE58124FCBF
:101F0A00F581D021C021C002C003C004C005782CCD
:101F1A00E2F58208E2F58308E2F5F008E2123034CD
:101F2A00AA82AB83ACF0FDE58124FCF581D021D0F7
:101F3A0006D007782CEAF208EBF208ECF208EDF288
:101F4A00E53A2406F9770B0977000977601919E54C
:101F5A003A2406F92403F8C001E53A2416F9E7F60B
:101F6A000809E7F60809E7F60809E7F6181818D085
:101F7A0001740729FDC000A8057602E53A2405F890
:101F8A00740829F6E53A2405F886007601A83A0885
:101F9A00740929F6A83A088600765008764B08761E
:101FAA00801818D00089027B007E408A828B838E3B
:101FBA00F0C007C006C005C001C000C021120963F5
:101FCA00D021D000D001D005D006C005C001C00084
:101FDA00C021E4C0E07424C0E07474C0E07449C055
:101FEA00E0C000782CE2F58208E2F58308E2F5F019
:101FFA0008E2D000122FE2AE82E58124FCF581D0FE
:10200A0021D000D001D005D007EED00670030220FF
:10201A00B1C00677150977000977601919C007C09A
:10202A0005C001C000C021E4C0E0C0E0747AC0E08D
:10203A007444C0E0C000782CE2F58208E2F5830817
:10204A00E2F5F008E2D0001234FAAA82AB83ACF0CF
:10205A00FEE58124FCF581D021D000D001D005A66F
:10206A000208A60308A60408A606181818A80576E2
:10207A0003E53A2405F886007601A83A0886007630
:10208A005508764B087680181889067C007B408EA6
:10209A00828C838BF0C006C021120963D021D0063E
:1020AA00D007D00602222AC007C006C005C001C058
:1020BA0000C0217480C0E07496C0E07418C0E07457
:1020CA004BC0E0C000782CE2F58208E2F58308E212
:1020DA00F5F008E2D000122FE2AC82E58124FCF58B
:1020EA0081D021D000D001D005D006D007EC7003F2
:1020FA00022195C00677150977000977601919C07A
:10210A0007C005C001C000C021E4C0E07424C0E0DB
:10211A007474C0E07449C0E0C000782CE2F582080B
:10212A00E2F58308E2F5F008E2D0001234FAAA8256
:10213A00AB83ACF0FEE58124FCF581D021D000D040
:10214A0001D005A60208A60308A60408A6061818C0
:10215A0018A8057601E53A2405F886007602A83A19
:10216A00088600765708764B087680181889067C08
:10217A00007B408E828C838BF0C006C021120963DB
:10218A00D021D006D007D00602222AC00677150928
:10219A0077000977601919C007C005C001C000C0DF
:1021AA0021E4C0E07424C0E07474C0E07449C0E063
:1021BA00C000782CE2F58208E2F58308E2F5F0081F
:1021CA00E2D0001234FAAA82AB83ACF0FEE5812495
:1021DA00FCF581D021D000D001D005A60208A603C3
:1021EA0008A60408A606181818A8057603E53A24CE
:1021FA0005F886007601A83A088600765708764BD5
:10220A00087680181889067D007C408E828D838C22
:10221A00F0C006C021120963D021D006D007D0062B
:10222A0090000B75F060C007C006C021122CFED0CA
:10223A0021D006D00785262A85272B85282C852993
:10224A002D0224E1E5264527452845297003022465
:10225A00E185262A85272B85282C85292D0224E12C
:10226A002001030224E1C006E522C3952AFAE523E8
:10227A00952BFBE524952CFCE525952DFDE53A24C7
:10228A0012F8A60208A60308A60408A6057836E2EC
:10229A00F58208E2F583C007C0211232FDAB82AC99
:1022AA0083ADF0FED021C006C021C003C004C00522
:1022BA00C006900FD075F0C97440122EACA83A0827
:1022CA00A68208A68308A6F008F6E58124FCF58113
:1022DA00D021D0067834E2F58208E2F583C02112D3
:1022EA0032FDAA82AC83ADF0FED021C021C002C06B
:1022FA0004C005C006A83A0886820886830886F0C4
:10230A0008E6122EACAB82AC83ADF0FEE58124FC6C
:10231A00F581D021C006C021E4C0E0C0E0747AC0D3
:10232A00E07444C0E08B828C838DF0EE1234FAA8FC
:10233A003A08A68208A68308A6F008F6E58124FCD6
:10234A00F581D021D006E53A2412F88682088683E0
:10235A000886F008E6C021122FB0AA82AC83ADF03D
:10236A00FED021C021C002C004C005C006A83A0898
:10237A0086820886830886F008E61234FAAB82ACB5
:10238A0083ADF0FEE58124FCF581D021C021C00394
:10239A00C004C005C00690000075F0617445122E95
:1023AA00ACAB82AC83ADF0FEE58124FCF581D02193
:1023BA00C021E4C0E0C0E0747AC0E07444C0E08B9D
:1023CA00828C838DF0EE1234FAAB82AC83ADF0FED0
:1023DA00E58124FCF581D021E53A2416F8A6030804
:1023EA00A60408A60508A606C006C021E53A2416D2
:1023FA00F8E6C0E008E6C0E008E6C0E008E6C0E0AB
:10240A00745AC0E0744BC0E07480C0E012348FE5A7
:10241A008124F9F581D021D006C0217830E2C0E0CC
:10242A0008E2C0E008E2C0E008E2C0E0E53A2416AB
:10243A00F886820886830886F008E6122FE2AE82C2
:10244A00E58124FCF581D021D007EED00670030285
:10245A0024E1E53A2406F9770B0977000977601930
:10246A001974032FF8E53A2416F9E7F60809E7F68E
:10247A000809E7F60809E7F674072FF876027408E0
:10248A002FF8760174092FF9775009774B0977806D
:10249A0019198E037C007D408B828C838DF0C007D6
:1024AA00C006C021120963D021D006D00790000BC4
:1024BA0075F060C007C006C021122CFED021D006DC
:1024CA00D007E53A2416F87930E6F30809E6F30866
:1024DA0009E6F30809E6F330B305D280021C80C28C
:1024EA0080021C80AC22AD23AE24AF259000C8C068
:1024FA0007C006C005C004C02112036AD021D00457
:10250A00D005D006D007E522C39CFCE5239DFDE556
:10251A00249EFEE5259FFFC021C004C005C006C059
:10252A00077466C0E0744BC0E07480C0E012348F58
:10253A00E58124F9F581D021AC22AD23AE24AF2563
:10254A009003E8C007C006C005C004C02112036A90
:10255A00D021D004D005D006D007E522C39CFCE5E3
:10256A00239DFDE5249EFEE5259FFFC021C004C0F2
:10257A0005C006C0077466C0E0744BC0E07480C032
:10258A00E012348FE58124F9F581D021753001E418
:10259A00F531F52EF52FC0217420C0E0E4C0E074B7
:1025AA0020C0E090000B75F060123314158115817C
:1025BA001581D021C0217410C0E0E4C0E0746FC05E
:1025CA00E0744BC0E07480C0E090000B75F06012BC
:1025DA00326AE58124FBF581D021C021C02EC02FAB
:1025EA0074AFC0E07449C0E07480C0E0741CC0E0FD
:1025FA007400C0E07460C0E01231A5E58124F8F5EA
:10260A0081D021C021C030C03174AFC0E07449C04C
:10261A00E07480C0E07421C0E07400C0E07460C05F
:10262A00E01231A5E58124F8F581D02190000B75DF
:10263A00F060C021122CFED021208510900014C019
:10264A002112036AD021208503022809208662907C
:10265A000014C02112036AD0212086550530E4B542
:10266A0030020531743CB53006E4B531028002808F
:10267A0006753001753100C030C03174AFC0E074E6
:10268A0049C0E07480C0E07421C0E07400C0E07406
:10269A0060C0E01231A5E58124F8F58190000B7540
:1026AA00F060122CFEC208900064C02112036AD0A6
:1026BA002120B24F900014C02112036AD02120B207
:1026CA0042052EE4B52E02052FC02EC02F74AFC0CE
:1026DA00E07449C0E07480C0E0741CC0E07400C0BB
:1026EA00E07460C0E01231A5E58124F8F58190001C
:1026FA000B75F060122CFED208900064C021120300
:10270A006AD0213087030227CD900014C02112031A
:10271A006AD0213087030227CD300854E52E452F91
:10272A0070030227CD152E74FFB52E02152FC02176
:10273A00C02EC02F74AFC0E07449C0E07480C0E0FE
:10274A00741CC0E07400C0E07460C0E01231A5E5FA
:10275A008124F8F581D02190000B75F060C0211218
:10276A002CFED021900064C02112036AD02180532C
:10277A00C374019530E495315049153074FFB53072
:10278A00021531C021C030C03174AFC0E07449C0F5
:10279A00E07480C0E07421C0E07400C0E07460C0DE
:1027AA00E01231A5E58124F8F581D02190000B755E
:1027BA00F060C021122CFED021900064C0211203C7
:1027CA006AD021900032C02112036AD021AE38AFFC
:1027DA00390538E4B538020539C374149E74808FFC
:1027EA00F063F08095F04003022643D2F0C02185C1
:1027FA00F021120DCBD021E4F538F539022643D267
:10280A0003C0217420C0E09028E1120E381581D04F
:10281A00210224EE853A81D03A22C2D875F9007590
:10282A00E900B28432852226852327852428852536
:10283A002932C0E0C0D075D008AC22AD23AE24AF97
:10284A002574012CF522E43DF523E43EF524E43F0A
:07285A00F525D0D0D0E032DB
:1048E900722025303478203D200025303278206927
:1048F90061705F636F6E747220253032780D0A0023
:10490900772025303478203D20253032780D0A0073
:10491900657261736520253034780D0A000D0A250A
:104929003034783A00202530327800257325730019
:10493900302E31005F3034323632383820636C65BE
:10494900616E0025730030393A30363A3536004108
:104959007072203235203230323000253032753ACB
:10496900253032753A2530327500636F756E7420C3
:0949790031733A2025750D0A0086
:102861001B1F5C1DB61B281AB0184E17FF15C31489
:1028710098137F1275117A108E0FAE0EDB0D140DA9
:10288100580CA70BFF0A610ACC093F09BB083D0898
:10289100C7075707EE068A062C06D30580053105C2
:1028A100E604A0045D041F04E303AB0377034503BF
:1028B1001603EA02C0029802730250022F020F02AD
:10498200696E7075742025640D0A006F75747075F8
:07499200742025750D0A00D9
:1028C1006E05200594041404D9036D030D03B802A9
:1028D10091024A020A02ED01B70187015C01000081
:1028E1000505060605050808070700000505060693
:1028F10005050909080800000505343420200808E9
:102901000707060600002A2A2020080809090808E6
:10291100000000007F000000000000000000000037
:1029210000000000000000000000000000000000A6
:102931000000000000000000000000000000000096
:102941000000000000000000000000000000000086
:102951000000000000000000000000000000000076
:102961000000000000000000000000000000000066
:102971000000000000000000000000000000000056
:102981000000000000000000000000000000000046
:102991000000000000000000000000000000000036
:1029A10000000000000000000506080808060808ED
:1029B10008080808030807070706070707070707A6
:1029C100060302020203050505050602023C010198
:1029D100030506030505030506030505323C010150
:1029E100010503030302030303030303323C010153
:1029F10001050202020102020202030506060606A1
:102A0100060603050101010302463C3C00020203E4
:102A11000202463C32323232323205060C0C0C06CE
:102A21000C0C0C0C0C0C200C0707070607070707FA
:102A31000707060302020203070707060505050546
:102A4100050505060C0C0C060C0C0C0C0C0C200CD2
:102A5100070707060707070707070603020202031E
:102A6100050505050002023C010101010101050600
:102A71000101010101010603020202030505050529
:102A81000002023C010101010101010100000202F9
:102A910002023C3C010101010101010101017F032D
:102AA1000505082020160C0606060606060606027F
:102AB10004040507070605030303030303030305D2
:102AC1000606082A2A2008161616161616161606BF
:102AD100161608070806070505050505050505037A
:102AE1000505082020160806060606060606060243
:102AF1000404050707060503030303030303030394
:102B0100050606082A2A20080909090909090606ED
:102B1100070909080708060705050505050505054F
:102B2100030505082020090806060606060606060E
:102B31000204040507070605030303030303030354
:102B410003050606082A2A200809090909090906B0
:102B510006070909080708060508080808080808FB
:102B610008050606082A2A20080909090909090988
:102B710009090606070606050508080808080808E1
:102B81000808087F01010404050508087F01020304
:062B910004050607087FA1
:10499900256420746B2025640D0A00727320257527
:1049A9000D0A006F6F002575005600253032753AE3
:1049B900253032753A30300053757070566F0043A8
:1049C900616E63656C6C65640073657420746172F3
:1049D900676574203120636F756E742031732025EB
:1049E900750D0A00706C617920656E642E2E2E0A91
:1049F900004B657920413120646F776E0D0A004BB9
:104A0900657920413220646F776E0D0A004B657914
:104A190020413320646F776E0D0A004B6579204180
:104A29003420646F776E0D0A00436F6E6669726D8C
:104A39003A00676F20777269746520726F6D20255F
:104A49007520616464722025780D0A0057726974B3
:104A59006520646F6E6500504C4159494E4700749A
:104A69006573740068617070792062697274686432
:104A79006179005368616F204C696E205368692021
:104A8900202000256C7500577269746520646F00D9
:104A9900676F20777269746520726F6D2025750DB7
:104AA9000A0054696D6572496E742F730057686501
:104AB900656C5200646973705F6D656D2025700DBA
:104AC9000A0074696D65725F63742025700D0A00B0
:104AD900636F756E745F31732025700D0A00507213
:104AE900657373204B657920696E20332073656384
:104AF9006F6E6420746F204C434A0075635F746D58
:104B090070202564005374617274203378356D699F
:104B19006E2074696D6572005072657373204B6500
:104B29007920696E2033207365636F6E6420746F1A
:104B39002074696D6572004C434A00312D2D2D2575
:104B4900322E31660D0A006B6D2F68006D006B6D9A
:104B590000322D2D2D25322E31660D0A003173209C
:104B6900256C750D0A00686F757220206D696E7568
:074B790074652020202000DC
:0D00410075813A122FC3E582600302003E74
:102B970022AF82C2C4C2C6D2C575A0FFD2C485A067
:102BA70082C007122B97AE82D0075306807D00C2E2
:102BB700C4EE4D70E4C2C5D2C68F82122B978582B0
:102BC700A0D2C4C2C422AF82C2C4C2C6D2C575A035
:102BD700FFD2C485A082C007122B97AE82D00753BD
:102BE70006807D00C2C4EE4D70E4C2C58F82122BF1
:102BF700978582A0D2C4C2C422C2C4C2C6D2C57538
:102C0700A0FFD2C485A082122B97AF82530780C240
:102C1700C4EF70EBD2C6D2C485A082122B97C2C470
:102C270022C2C4C2C6D2C575A0FFD2C485A0821273
:102C37002B97C2C422AE82AF83C3E49E74808FF009
:102C470063F08095F0501C7C207D0300EC24FFFA94
:102C5700ED34FFFB8A048B05EA4B70EF1EBEFF01C4
:102C67001F80D622C2C4C2C6C2C57D807E4B7F806C
:102C77007C008D828E838FF01235BDFBA3AD82AEB3
:102C8700838B82C007C006C005C004122B978582BC
:102C9700A0D2C4900004122C3CD004D005D006D09A
:102CA70007C2C40CBC040040C98D828E838FF0120A
:102CB70035BDFC0DBD00010E8C82C007C006C005E6
:102CC700122BCDD005D006D0078D828E838FF012C0
:102CD70035BDFC0DBD00010E8C82C007C006C005C6
:102CE700122BCDD005D006D0078D828E838FF012A0
:102CF70035BDF582022BCDC03A85813A0581058124
:102D07000581AD82AE83AFF0C007C006C005122CA7
:102D170028758280122BCDD005D006D0078D028E64
:102D2700038F04A83A08A60508A60608A6077F1079
:102D37008F061FEE6059A83A0886820886830886A0
:102D4700F01235BDFEBE0A070ABA00430B8040EEFB
:102D57007010A83A0886820886830886F0742012C5
:102D67002FC7A83A0886820886830886F01235BDE1
:102D7700FEA31818A68208A6838E82C007122B9876
:102D8700D007A83A08860208860308860480A1753A
:102D970082C0C004C003C002122BCDD002D003D022
:102DA700048A058B068C077C108C031CEB603C8D1A
:102DB700828E838FF01235BD700B8D828E838FF0DC
:102DC7007420122FC78D828E838FF01235BDFBA31F
:102DD700AD82AE838B82C007C006C005C004122B2C
:102DE70098D004D005D006D00780BE122C0075827B
:0D2DF70080122BCD122C00853A81D03A229B
:074B80003030303801060C53
:102E0400A8811818C6B2E7C6023034E58124FEF85A
:102E1400E6F918E6F87A10E4FBFCE58225E0F58291
:102E2400E58333F583EB33FBEC33FCEB98F5F0EC03
:102E3400994006FCABF0438201DADF22C03A858177
:102E44003AC082C083C0F0058105810581E53A243A
:102E5400FBF88602088603088604A83A08E53A24A3
:102E640004F9E6F70809E6F70809E6F78A828B838E
:102E74008CF01235BDFFA3AA82AB83E53A2404F893
:102E840086820886830886F0EF122FC7A31818A637
:102E94008208A683EF70D5A83A088682088683083C
:102EA40086F0853A81D03A22122F4FBC00030234B7
:102EB40023EF60FA30D502B2D1E583B4FF030234C4
:102EC40039E582B4FF030234392583400724824064
:102ED4000B0234232483145003023439F582EA8D1F
:102EE400F0A4A8F0EA8EF0A428F8E435F0F9EB8D0C
:102EF400F0A428E935F0F9E433CA8FF0A429F9EAFB
:102F040035F0FAEBF88EF0A429F9EA35F0FAE43357
:102F1400FBEC8DF0A429F9EA35F0FAE43BFBE88FE9
:102F2400F0A42AFAEB35F0FBE433CCFD8EF0A42AAE
:102F3400FAEB35F0FBE43CFCED8FF0A42BFBEC3515
:102F4400F0FC20E703122F7D023402AA82AB83A295
:102F5400F73392D1F5826002D2F7ACF0E58124F91F
:102F6400F8E6FD08E6FE0886F008E6A2F73392D5F7
:092F7400F5836002D2F7AFF022F0
:06007000E478FFF6D8FD64
:102F7D007804EC7011E58224F8500AF582E4C9CA90
:102F8D00CBFCD8EF22EC7820058220E713D5820107
:102F9D0022C3E933F9EA33FAEB33FBEC33FCD8EA1D
:032FAD0015822268
:10004E007900E94400601B7A00904B92780175A00C
:10005E0000E493F2A308B8000205A0D9F4DAF27511
:02006E00A0FFF1
:102FB000FCABF0AA83A982749EC2D1F582122F7D48
:102FC0000234027582002220F71130F6138883A89C
:102FD0008220F509F6A8837583002280FEF280F531
:102FE000F022FFA88118181230ABD2D133E6400787
:102FF00030E70B7582002220E70675820122C2D1DC
:1030000012308DE97003F5822220D101B3E433F54B
:10301000822274FE2581F8E68582F0A4C0E08582D4
:10302000F018E6A4F582D0E025F0C58386F0A4254B
:0430300083F583227F
:100076007837E84400600A790175A000E4F309D8EE
:10008600FC7800E84400600C7900900001E4F0A3DD
:04009600D8FCD9FABF
:10303400122F4F7900E583B58202800D50031234BC
:10304400C8E583C39582123653E5D0C465D020E128
:1030540017EA2DFAEB3EFBEC3FFC500974011236E3
:1030640053EC4480FC023402C3EA9DFAEB9EFBEC71
:103074009FFC500FC3E499F9E49AFAE49BFBE49CA7
:10308400FCB2D1122F7D0234027901AA82E68F822A
:10309400B5821318E6B5F00E18E6B5830918E68A6A
:1030A40082B58202790022B4800FE5F0700AE583CC
:1030B4007006E58270027F00EFB6801518B6001026
:1030C40018B6000B18B6000608080876002208088F
:1030D4000822C03A85813AC082058105810581E5CF
:1030E4003A24FBF8A93A0909E6F70809E6F70809BA
:1030F400E6F7A83A080886820886830886F012351F
:10310400BDFAA31235BDFBA31235BDFF74012AFC21
:10311400E43BFD8F06A83A08088682088683088661
:10312400F0EC122FC7A3ED122FC7A3EE122FC78AFC
:10313400828B838FF0A83A08E6122FC7853A81D094
:103144003A22C03A85813AC082C083C0F0AF3A0FB8
:103154007E007D40E53A24FAF8E6C0E0E53A24FB37
:10316400F8E6C0E008E6C0E008E6C0E0C007C00634
:10317400C0059030D6123808AE82AF83E58124F9B9
:10318400F581A83A0886030886040886058B828C94
:10319400838DF0E4122FC78E828F83853A81D03AD3
:1031A40022C03AE581F53A24F8FFE53A24FBFE7D96
:1031B400007C40C007E53A24F8F8E6C0E008E6C021
:1031C400E008E6C0E0C006C005C0049030D612385E
:1031D40008AE82AF83E58124F9F581E53A24FBF852
:1031E40086030886040886058B828C838DF0E4129E
:1031F4002FC78E828F83D03A22FBE58124FBF8E629
:10320400F9087A20E4FCFDFEFFE5822582F582E5DB
:103214008333F583E5F033F5F0EB33FB4017DAE95C
:103224008042E5822582F582E58333F583E5F03338
:10323400F5F0EB33FBEC33FCED33FDEE33FEEF3313
:10324400FFEC99ED96EE0896EF089618184013ECEB
:1032540099FCED96FDEE0896FEEF0896FF181843CC
:103264008201DABEEB22C03AE581F53A2408F58101
:10327400AD82AE83AFF0E53A2406F8A60508A606AB
:1032840008A607E53A24FBF8A93A09E6F70809E68F
:10329400F70809E6F7E53A24F9F8E53A2404F9E6EB
:1032A400F70809E6F7E53A2404F88603088604E5F6
:1032B4003A2404F816B6FF020816EB4C6028A83A24
:1032C4000886820886830886F01235BDFCA3181888
:1032D400A68208A6838D828E838FF0EC122FC7A35B
:1032E400AD82AE8380BFE53A2406F88682088683E1
:1032F4000886F0853A81D03A22E4AC83AB82FAF9AD
:10330400748E022FB97F8E1248B2F58385F0822223
:10331400C03A85813AC082C083C0F005810581A886
:103324003A088602088603088604E53A24FBF8E591
:103334003A2404F9E6F70809E6F7E53A2404F8869E
:1033440006088607E53A2404F816B6FF020816EEC6
:103354004F60168A828B838CF0E53A24FDF8E612DE
:103364002FC7A3AA82AB8380D1A83A088682088695
:10337400830886F0853A81D03A22C03A85813AC0E2
:1033840082C083C0F0058105810581A83A088602C0
:103394000886030886048A828B838CF01235BD600C
:1033A400070ABA00F10B80EEE53A24FBF88605081B
:1033B4008606088607E53A2404F8A60208A6030848
:1033C400A6048D828E838FF01235BDFCA3AD82AE30
:1033D40083E53A2404F886820886830886F0EC1292
:1033E4002FC7A31818A68208A683EC70D5A83A089C
:1033F40086820886830886F0853A81D03A22B9808D
:1034040003EA13B34010EA2401FAE43BFBE43CFC76
:1034140050047C800582BC000EBB000BBA0008E49B
:10342400F5F0F583F58222A2D1E582138CF092F7B0
:103434008B838A8222E4F583F58275F080F4A2D12D
:103444001322E4F583F58275F0C0747F22C03A85B7
:10345400813A7E008E831203B3D03A22C03A85812A
:103464003AAD82AE83AFF0E53A24FDF8E6C0E0C0A1
:1034740005C006C007E4C0E0C0E0C0E090345112CB
:103484003808E58124F9F581D03A22C03AE581F57E
:103494003A24FBFFC007E53A24FBF8E6C0E008E65F
:1034A400C0E008E6C0E0E4C0E0C0E0C0E090345111
:1034B400123808AE82AF83E58124F9F5818E828FBC
:1034C40083D03A22E582C583F582A2D133A2D59274
:1034D400D11392D5ECCFFCEBCEFBEACDFA22AA8233
:1034E400AB831235BD6003A380F8C3E5829AF582ED
:1034F400E5839BF58322122F4F30D502B2D1BF0052
:1035040009BC0003023446023439BC0003023423EC
:10351400E583B4FF0BE582B4FF030234460234238F
:10352400E582B4FF03023439C395835007247F40F6
:103534000B0234232480145003023439F582C3ED82
:103544009AEE9BEF9C40111582C3EA33F9EB33FAF0
:10355400EC33FBE433FC8005E4CCCBCAF9C08275C0
:10356400F019C3E99DEA9EEB9FEC9400D5F002802C
:103574002D400EE99DF9EA9EFAEB9FFBEC9400FCCA
:10358400C3B3E833F8E58233F582E58333F583C3C7
:10359400E933F9EA33FAEB33FBEC33FC80C4B3E4EC
:1035A400F938FAE43582FBE43583FCD08250040513
:1035B400827C80122F7D02341A20F71430F614888E
:1035C40083A88220F507E6A88375830022E280F7AA
:1035D400E49322E022C2D5E58330E70DD2D5E4C3DB
:1035E4009582F582E49583F583E58124FEF8E6303F
:1035F400E70918E4C396F6E40896F68601188600EF
:103604001236A030D50BE4C39582F582E49583F598
:103614008322C2D5E58330E70DD2D5E4C39582F584
:1036240082E49583F583E58124FEF8E630E70AB267
:10363400D518E4C396F6E40896F918E6F8122E199C
:1036440030D50BE4C39582F582E49583F58322603B
:1036540040F82582500274FFF582E824F8501ECC0D
:10366400CBCAF9E4CC24F85014CBCAF9E4CB24F83F
:10367400500BCAF9E4CA24F85003790022240860E4
:1036840010F8C3EC13FCEB13FBEA13FAE913F9D8B3
:10369400F122E58124FEF88601188600E8496036A7
:1036A4007A01E825E0F8E933400EF9E58298E583EC
:1036B4009940030A80ECC3E913F9E813F8C3E582DF
:1036C40098F5F0E583994005F58385F082C3E91305
:1036D400F9E813F8DAE722C03A85813AAF82743008
:1036E4002FFF24C6501074072FFFE53A24FDF8E697
:1036F400600474202FFFE53A24F8F8E6C0E008E6F9
:10370400C0E008E6C0E012370F800FE53A24FBF86A
:10371400E6C0E008E6C0E08F82221581158115819C
:10372400D03A22C03A85813AE582FFC4540FFEC0E4
:1037340007E53A24F8F8E6C0E008E6C0E008E6C089
:10374400E0E53A24FBF8E6C0E008E6C0E0E53A2408
:10375400FDF8E6C0E08E821236DBE58124FAF581BD
:10376400D00753070FE53A24F8F8E6C0E008E6C0AE
:10377400E008E6C0E0E53A24FBF8E6C0E008E6C06D
:10378400E0E53A24FDF8E6C0E08F821236DBE581FD
:1037940024FAF581D03A22C03A85813AA982870475
:1037A400098705098706098707191919740429F86F
:1037B4007B20C003E626FAEF235401FBEA4203A66A
:1037C40003EC2CFCED33FDEE33FEEF33FFC000E5DC
:1037D4003A24FDF8C3EB96D000D00340148602C00F
:1037E40000E53A24FDF8EAC396FAD000A6024304A1
:1037F40001EB14FB70BCA70409A70509A70609A7D8
:1038040007D03A22C03A85813AC082C083E5812438
:1038140023F581E53A240CF8E4F608F6E53A2405A4
:10382400F8E53A2414F6E53A2420C8E53A2412C807
:103834002405F6E53A2414F82404FAE53A2403F9B5
:10384400A702E53A2404F9A702E53A24F8F9870621
:103854000987050987048E828D838CF01235BDFF9C
:10386400E53A24F8F974012EF7E43D09F709A704B1
:10387400EFFE70030248A0BE25028003024862C224
:1038840008C209C20AC20BC20CC20DC20EC20FE5A5
:103894003A241BF97700E53A2406F9E4F709F7E539
:1038A4003A241CF977FF0977FFE53A24F8F9C000B8
:1038B400E53A2408F8E7F60908E7F60908E7F6D038
:1038C40000E53A2408F987820987830987F0C00054
:1038D400E53A240BF81235BDF6A31919A78209A7F6
:1038E40083E53A2408F9E53A24F8F8E7F60908E705
:1038F400F60908E7F6D000E53A240BF9B72543C0EA
:1039040002C000E53A24FBF9E7C0E009E7C0E0099A
:10391400E7C0E012391C8012A93A09E7C0E009E7C0
:10392400C0E0E53A240BF9878222158115811581BF
:10393400D000D002E53A240CF907B70002090702C7
:10394400384DE53A240BF9B730005003023A07E545
:103954003A240BF9E724C65003023A07E53A241C3B
:10396400F9B7FF5909B7FF55C002C000C021E53AB5
:103974002406F9E7C0E009E7C0E090000A1230121B
:10398400AB82AF8315811581D021D000D002E53AF6
:10399400240BF987057E00ED2BFBEE3FFFE53A246F
:1039A40006F9EB24D0F7EF34FF09F7E53A2406F9DA
:1039B400E7094760030238C5D2090238C5C002C00E
:1039C40000C021E53A241CF9E7C0E009E7C0E09013
:1039D400000A123012AE82AF8315811581D021D036
:1039E40000D002E53A240BF987047D00EC2EFEEDAD
:1039F4003FFFE53A241CF9EE24D0F7EF34FF09F732
:103A04000238C5E53A240BF9B72E1DE53A241CF912
:103A1400B7FF0609B7FF0280030238C5E53A241C44
:103A2400F9E4F709F70238C5E53A240BF9B7610060
:103A3400401CE53A240BF9E724854012E53A240BAF
:103A4400F9E754DFF7E53A2413F977018007E53AFB
:103A54002413F97700E53A240BF9B72003023B2B32
:103A6400E53A240BF9B72B03023B26E53A240BF97C
:103A7400B72D03023B21E53A240BF9B74203023B7D
:103A840030E53A240BF9B74303023B3AE53A240BF9
:103A9400F9B744030240A6E53A240BF9B7460302FA
:103AA40040CDE53A240BF9B748030238C5E53A247A
:103AB4000BF9B749030240A6E53A240BF9B74A03C8
:103AC4000238C5E53A240BF9B74C028064E53A2480
:103AD4000BF9B74F030240B2E53A240BF9B7500390
:103AE400023E78E53A240BF9B75303023BAAE53AC0
:103AF400240BF9B754030238C5E53A240BF9B7553A
:103B0400030240BBE53A240BF9B758030240C4E56D
:103B14003A240BF9B75A030238C50240D1D208023D
:103B240038C5D20A0238C5D20B0238C5D20D0238C4
:103B3400C5D20E0238C5300D17C000E53A24F7F897
:103B4400E614F9E53A24F7F8A601D00087068014B4
:103B5400E53A24F7F9E724FEFDE53A24F7F9A70549
:103B64008D018706C002C000C021E53A24FBF9E7B5
:103B7400C0E009E7C0E009E7C0E0123B83800DA97B
:103B84003A09E7C0E009E7C0E08E82221581158179
:103B94001581D021D000D002E53A240CF907B700F2
:103BA400020907024135E53A2414F9C000E53A2434
:103BB400F7F8E624FDFEE53A24F7F8A606A80686FB
:103BC40004088605088606D000A70409A70509A7E6
:103BD4000619198C828D838EF0C002C001C000C00A
:103BE400211234E2C000C8E53A2410C8A68208A60F
:103BF40083D000D021D000D001D002C000E53A2407
:103C04001CF8B6FF0608B6FF028004D0008016E553
:103C14003A2410F8C001E53A241CF9E6F70809E64D
:103C2400F7D001D000300803023D01C000E53A247A
:103C340010F8C001E53A2406F9C3E69708E60997A7
:103C4400D001D0004003023D01C000E53A2406F84B
:103C5400C001E53A2410F9E6C397FE08E60997FD8A
:103C6400E53A240CF8E53A240EF9E6F70809E6F7F4
:103C7400D001D0008E048D071EBEFF011DEC4F60E5
:103C84005AC006C005C002C001C000C0218500F0B2
:103C9400E53A24FBF8E6C0E008E6C0E008E6C0E048
:103CA400A8F0123CAB80118500F0A83A08E6C0E009
:103CB40008E6C0E075822022158115811581D02186
:103CC400D000D001D002D005D006C000E53A240EC1
:103CD400F806B600020806D0008099C000E53A2430
:103CE4000EF8C001E53A240CF9E6F70809E6F7D026
:103CF40001E53A2406F8A60608A605D000C000E5AA
:103D04003A241CF88604088607E53A240CF8C00116
:103D1400E53A240EF9E6F70809E6F7D001D0008762
:103D24000309870509870619198B828D838EF01282
:103D340035BDFBFE7003023DC3C3E49C74808FF069
:103D440063F08095F050781CBCFF011FC007C004CD
:103D5400C002C001C000C0218500F0E53A24FBF890
:103D6400E6C0E008E6C0E008E6C0E0A8F0123D7650
:103D740080108500F0A83A08E6C0E008E6C0E08EAE
:103D84008222158115811581D021D000D001D00265
:103D9400D004D007C000E53A240EF806B6000208A5
:103DA40006D000870309870509870619190BBB008C
:103DB400010DA70309A70509A7061919023D23E563
:103DC4003A240EF9C000E53A240CF8E7F60908E7AE
:103DD400F6D000200803024135E53A2410F9C0006A
:103DE400E53A2406F8C3E79609E70896D0004003AD
:103DF400024135E53A2406F9C000E53A2410F8E713
:103E0400C396FE09E70896FFE53A240EF9E53A243D
:103E140019F8E7F60908E7F6D0008E048F051EBEF0
:103E2400FF011FEC4D7003024117C007C006C0021A
:103E3400C000C021E53A24FBF9E7C0E009E7C0E08F
:103E440009E7C0E0123E4D800EA93A09E7C0E00937
:103E5400E7C0E075822022158115811581D021D01B
:103E640000D002D006D007E53A2419F907B70002BA
:103E7400090780A6E53A2414F9C000E53A24F7F8C6
:103E8400E624FDFDE53A24F7F8A605A8058603080F
:103E94008604088605D000A70309A70409A7051905
:103EA40019E53A2414FE2402F98707BF8000400470
:103EB4007D438014BF600040047D50800BBF4000F0
:103EC40040047D4980027D58C006C005C002C00080
:103ED400C021E53A24FBF9E7C0E009E7C0E009E7BF
:103EE400C0E0123EEB800DA93A09E7C0E009E7C043
:103EF400E08D8222158115811581D021D000D00258
:103F0400D005D006E53A240CF9740127FCE40937FE
:103F1400FBC006C005C004C003C002C000C021E548
:103F24003A24FBF9E7C0E009E7C0E009E7C0E01282
:103F34003F38800EA93A09E7C0E009E7C0E075827E
:103F44003A22158115811581D021D000D002D003E9
:103F5400D004D005D0060CBC00010BC006C005C0BF
:103F640004C003C002C000C021E53A24FBF9E7C045
:103F7400E009E7C0E009E7C0E0123F82800EA93AF9
:103F840009E7C0E009E7C0E0758230221581158198
:103F94001581D021D000D002D003D004D005D006A2
:103FA4000CBC00010BC006C005C004C003C002C0A5
:103FB40000C021E53A24FBF9E7C0E009E7C0E009C5
:103FC400E7C0E0123FCC800EA93A09E7C0E009E758
:103FD400C0E075827822158115811581D021D00029
:103FE400D002D003D004D005D00674012CFCE43BED
:103FF400FFBD49028052BD5002804DEE04F9870591
:10400400C007C004C002C000C021E53A24FBF9E7A0
:10401400C0E009E7C0E009E7C0E0A93A09E7C0E069
:1040240009E7C0E0E53A2413F9E7C0E08D821237CE
:1040340027E58124FAF581D021D000D002D004D024
:104044000774022CFCE43FFFE53A2405F987018755
:1040540005C007C004C002C000C021E53A24FBF932
:10406400E7C0E009E7C0E009E7C0E0A93A09E7C012
:10407400E009E7C0E0E53A2413F9E7C0E08D8212D5
:104084003727E58124FAF581D021D000D002D0046D
:10409400D007E53A240CF974022CF7E43F09F7023F
:1040A4004135D20CE53A241BF9770A024135E53A49
:1040B400241BF97708807AE53A241BF9770A807182
:1040C400E53A241BF977108068D20F8064C002C0DF
:1040D40000C021E53A24FBF9E7C0E009E7C0E009A4
:1040E400E7C0E01240EC8012A93A09E7C0E009E712
:1040F400C0E0E53A240BF9878222158115811581E8
:10410400D021D000D002E53A240CF907B700020907
:1041140007801EE53A2419F9C000E53A240CF8E7B3
:10412400F60908E7F6D000E53A2406F9A70609A738
:1041340007200F03024229E53A2414F9C000E53AA6
:1041440024F7F8E624FCFFE53A24F7F8A607A807C5
:104154008604088605088606088607A70409A705B5
:1041640009A70609A707191919E53A2414F9778745
:1041740009774B0977801919E53A240CF886040865
:104184008603D000C000E53A2408F8E7F609E708FA
:10419400F609E708F61919E53A2408F8740126FD2A
:1041A400E40836FE088607A70509A70609A7071924
:1041B40019E53A2408F886820886830886F01235C1
:1041C400BDFFD000EFFE700302384DC004C003C031
:1041D40002C001C0008500F0E53A24FBF8E6C0E027
:1041E40008E6C0E008E6C0E0A8F01241F3801085BC
:1041F40000F0A83A08E6C0E008E6C0E08E82221586
:104204008115811581D000D001D002D003D0040CD7
:10421400BC00010BC000E53A240CF8A60408A60370
:10422400D000024188E53A241BF9E7700302384DB7
:10423400E53A2412F98707300D65C007E53A2414DE
:10424400F9C000E53A24F7F8E614FEE53A24F7F855
:10425400A606A8068606D0008E047D007E007F0098
:10426400A70409A70509A70609A707191919D0075B
:10427400300C03024340C0078704098705098706F9
:104284000987071919197D007E007F00A70409A773
:104294000509A70609A707191919D00702434030D1
:1042A4000E3AC007E53A2414F9C000E53A24F7F8B9
:1042B400E624FCFEE53A24F7F8A606A806860408D8
:1042C4008605088606088607D000A70409A70509FD
:1042D400A70609A707191919D0078060C007E53A8E
:1042E4002414F9C000E53A24F7F8E624FEFEE53A82
:1042F40024F7F8A606A8068605088606D000EEFC74
:104304003395E0FEFFA70509A70409A70609A70737
:10431400191919D007200C24C00787040987050937
:1043240087060987071919197E007F00A70409A7C2
:104334000509A70609A707191919D007300C4CC09D
:1043440007E53A2414F987040987050987060987CC
:1043540007191919EFD00730E72FC0078704098719
:1043640005098706098707191919C3E49CFCE49D0C
:10437400FDE49EFEE49FFFA70409A70509A706091B
:10438400A707191919D0078002C20CD20D8F01C0DA
:1043940000E53A2410F8E4F608F6D000E53A2414CF
:1043A4002404C000F87600D0008805C002C001C013
:1043B40000C0218500F0E53A241BF8E6C0E08D82B8
:1043C40012379B1581D021D000D001D002200D19C5
:1043D400C000E53A2403F886008605D000EDC4FD4C
:1043E400E7FC4205A70519800AC000A8028605D08B
:1043F40000A705C000E53A2410F806B60002080636
:10440400D000B20D860308860408860508860718BE
:104414001818EB4C4D4F70848907E53A2410F9C005
:1044240000E53A241EF8E7F60908E7F6D000E53A75
:104434002406F9E70947700AE53A2406F9770109E1
:1044440077003009030244FE3008030244FEE53AD3
:10445400240CF98704098703E53A2406F9C000E52A
:104464003A2410F8E7F60908E7F6D000C007E53A61
:10447400241EF987070F8F067F00E53A2410F9C33D
:10448400EE97EF0997D0075053C007C004C003C08C
:1044940002C000C021E53A24FBF9E7C0E009E7C007
:1044A400E009E7C0E01244AE800EA93A09E7C0E093
:1044B40009E7C0E075822022158115811581D0217C
:1044C400D000D002D003D004D0070CBC00010BE50F
:1044D4003A2410F917B7FF0209178090E53A240C23
:1044E400F9A70409A703E53A2410F9C000E53A2422
:1044F40006F8E7F60908E7F6D000300C52C007C00A
:1045040002C000C021E53A24FBF9E7C0E009E7C096
:10451400E009E7C0E012451E800EA93A09E7C0E0B1
:1045240009E7C0E075822D22158115811581D021FE
:10453400D000D002D007E53A240CF907B7000209ED
:1045440007E53A2406F917B7FF020917024606E5FC
:104554003A241EF9E709477003024606300A51C09F
:1045640007C002C000C021E53A24FBF9E7C0E00916
:10457400E7C0E009E7C0E0124580800EA93A09E7E8
:10458400C0E009E7C0E075822B22158115811581F1
:10459400D021D000D002D007E53A240CF907B700A7
:1045A400020907E53A2406F917B7FF0209178052F2
:1045B400300B4FC007C002C000C021E53A24FBF90C
:1045C400E7C0E009E7C0E009E7C0E01245D4800E87
:1045D400A93A09E7C0E009E7C0E075822022158105
:1045E40015811581D021D000D002D007E53A240CE2
:1045F400F907B700020907E53A2406F917B7FF02DD
:1046040009173008030246A1E53A240CF9C000E575
:104614003A2410F8E7F60908E7F6D000E53A24064C
:10462400F98703098704C0078B068C071BBBFF01AE
:104634001CE53A241EF9C3E79E09E79FD00740030F
:104644000246EA3009067D307E0080047D207E002B
:10465400C007C004C003C002C000C021E53A24FB67
:10466400F9E7C0E009E7C0E009E7C0E01246758059
:104674000DA93A09E7C0E009E7C0E08D822215815F
:1046840015811581D021D000D002D003D004D007E9
:10469400E53A2410F907B7000209078089E53A24AE
:1046A40006F9C000E53A241EF8C3E69708E6099720
:1046B400D0005027E53A2406F9C000E53A241EF854
:1046C400E7C396C0E009E70896C0E0E53A240FF98D
:1046D400D0E0F719D0E0F7D0008029E53A240EF9AC
:1046E400E4F709F7801EE53A2410F9C000E53A24FE
:1046F4000CF8E7F60908E7F6D000E53A240EF9A726
:104704000309A7048F01C000E53A240CF8860408C5
:104714008607E53A241EF8C001E53A2410F9E6F7C5
:104724000809E6F7D001D000C000E53A2410F88665
:1047340003088606E53A2410F816B6FF020816D0D8
:1047440000EB4E70030247D4B20D200D1009E7C4EC
:10475400540FFEC000A802A606D000800C87067481
:104764000F5EC000A802F6D000C000E53A2404F8A9
:1047740086008606D000C007C004C002C001C00085
:10478400C0218500F0E53A24FBF8E6C0E008E6C065
:10479400E008E6C0E0A8F08500F0A83A08E6C0E02A
:1047A40008E6C0E0A8F08500F0E53A2413F8E6C076
:1047B400E08E821236DBE58124FAF581D021D00027
:1047C400D001D002D004D0070CBC00010F02472C4A
:1047D400E53A240CF9A70409A70720080302384D79
:1047E400E53A2419F9A70409A707E53A240EF9873D
:1047F400040987058C038D071CBCFF011DEB4F705A
:104804000302384DC005C004C002C000E53A24FBD1
:10481400F9E7C0E009E7C0E009E7C0E012482580F5
:104824000EA93A09E7C0E009E7C0E0758220221525
:104834008115811581D000D002D004D005E53A2439
:1048440019F907B700020907E53A2419F9C000E588
:104854003A240CF8E7F60908E7F6D0008096C0027F
:10486400C000E53A24FBF9E7C0E009E7C0E009E746
:10487400C0E012487B800DA93A09E7C0E009E7C00F
:10488400E08E8222158115811581D000D002E53A8F
:10489400240CF907B70002090702384DE53A240C45
:0C48A400F88682088683853A81D03A228B
:0B4B87003C4E4F20464C4F41543E0076
:1048B0007F9E1248D730D103023423C3EF95825034
:1048C0000974FFF5F0F583F58222790012365389D9
:1048D000828A838BF0EC22AA82AB83A2F73392D137
:0948E000F5826002D2F7ACF0226F
:00000001FF
